{
  "_format": "hh-sol-artifact-1",
  "contractName": "IPEnforcer",
  "sourceName": "contracts/IPEnforcer.sol",
  "abi": [
    {
      "inputs": [
        {
          "internalType": "address",
          "name": "initialOwner",
          "type": "address"
        },
        {
          "internalType": "address",
          "name": "_ipRegistryAdapter",
          "type": "address"
        }
      ],
      "stateMutability": "nonpayable",
      "type": "constructor"
    },
    {
      "anonymous": false,
      "inputs": [
        {
          "indexed": false,
          "internalType": "uint256",
          "name": "oldScore",
          "type": "uint256"
        },
        {
          "indexed": false,
          "internalType": "uint256",
          "name": "newScore",
          "type": "uint256"
        },
        {
          "indexed": false,
          "internalType": "uint256",
          "name": "timestamp",
          "type": "uint256"
        }
      ],
      "name": "MinSimilarityScoreUpdated",
      "type": "event"
    },
    {
      "anonymous": false,
      "inputs": [
        {
          "indexed": true,
          "internalType": "address",
          "name": "previousOwner",
          "type": "address"
        },
        {
          "indexed": true,
          "internalType": "address",
          "name": "newOwner",
          "type": "address"
        }
      ],
      "name": "OwnershipTransferred",
      "type": "event"
    },
    {
      "anonymous": false,
      "inputs": [
        {
          "indexed": false,
          "internalType": "address",
          "name": "account",
          "type": "address"
        }
      ],
      "name": "Paused",
      "type": "event"
    },
    {
      "anonymous": false,
      "inputs": [
        {
          "indexed": true,
          "internalType": "bytes32",
          "name": "role",
          "type": "bytes32"
        },
        {
          "indexed": true,
          "internalType": "bytes32",
          "name": "previousAdminRole",
          "type": "bytes32"
        },
        {
          "indexed": true,
          "internalType": "bytes32",
          "name": "newAdminRole",
          "type": "bytes32"
        }
      ],
      "name": "RoleAdminChanged",
      "type": "event"
    },
    {
      "anonymous": false,
      "inputs": [
        {
          "indexed": true,
          "internalType": "bytes32",
          "name": "role",
          "type": "bytes32"
        },
        {
          "indexed": true,
          "internalType": "address",
          "name": "account",
          "type": "address"
        },
        {
          "indexed": true,
          "internalType": "address",
          "name": "sender",
          "type": "address"
        }
      ],
      "name": "RoleGranted",
      "type": "event"
    },
    {
      "anonymous": false,
      "inputs": [
        {
          "indexed": true,
          "internalType": "bytes32",
          "name": "role",
          "type": "bytes32"
        },
        {
          "indexed": true,
          "internalType": "address",
          "name": "account",
          "type": "address"
        },
        {
          "indexed": true,
          "internalType": "address",
          "name": "sender",
          "type": "address"
        }
      ],
      "name": "RoleRevoked",
      "type": "event"
    },
    {
      "anonymous": false,
      "inputs": [
        {
          "indexed": false,
          "internalType": "address",
          "name": "account",
          "type": "address"
        }
      ],
      "name": "Unpaused",
      "type": "event"
    },
    {
      "anonymous": false,
      "inputs": [
        {
          "indexed": true,
          "internalType": "uint256",
          "name": "violationId",
          "type": "uint256"
        },
        {
          "indexed": true,
          "internalType": "address",
          "name": "creator",
          "type": "address"
        },
        {
          "indexed": false,
          "internalType": "uint256",
          "name": "timestamp",
          "type": "uint256"
        }
      ],
      "name": "ViolationAccepted",
      "type": "event"
    },
    {
      "anonymous": false,
      "inputs": [
        {
          "indexed": true,
          "internalType": "uint256",
          "name": "violationId",
          "type": "uint256"
        },
        {
          "indexed": true,
          "internalType": "address",
          "name": "creator",
          "type": "address"
        },
        {
          "indexed": false,
          "internalType": "string",
          "name": "counterEvidenceHash",
          "type": "string"
        },
        {
          "indexed": false,
          "internalType": "uint256",
          "name": "timestamp",
          "type": "uint256"
        }
      ],
      "name": "ViolationChallenged",
      "type": "event"
    },
    {
      "anonymous": false,
      "inputs": [
        {
          "indexed": true,
          "internalType": "uint256",
          "name": "violationId",
          "type": "uint256"
        },
        {
          "indexed": true,
          "internalType": "address",
          "name": "resolver",
          "type": "address"
        },
        {
          "indexed": false,
          "internalType": "string",
          "name": "reason",
          "type": "string"
        },
        {
          "indexed": false,
          "internalType": "uint256",
          "name": "timestamp",
          "type": "uint256"
        }
      ],
      "name": "ViolationDismissed",
      "type": "event"
    },
    {
      "anonymous": false,
      "inputs": [
        {
          "indexed": true,
          "internalType": "uint256",
          "name": "violationId",
          "type": "uint256"
        },
        {
          "indexed": true,
          "internalType": "uint256",
          "name": "dippChainId",
          "type": "uint256"
        },
        {
          "indexed": true,
          "internalType": "address",
          "name": "reporter",
          "type": "address"
        },
        {
          "indexed": false,
          "internalType": "string",
          "name": "evidenceHash",
          "type": "string"
        },
        {
          "indexed": false,
          "internalType": "uint256",
          "name": "similarityScore",
          "type": "uint256"
        },
        {
          "indexed": false,
          "internalType": "string",
          "name": "detectedUrl",
          "type": "string"
        },
        {
          "indexed": false,
          "internalType": "uint256",
          "name": "timestamp",
          "type": "uint256"
        }
      ],
      "name": "ViolationReported",
      "type": "event"
    },
    {
      "anonymous": false,
      "inputs": [
        {
          "indexed": true,
          "internalType": "uint256",
          "name": "violationId",
          "type": "uint256"
        },
        {
          "indexed": true,
          "internalType": "address",
          "name": "resolver",
          "type": "address"
        },
        {
          "indexed": false,
          "internalType": "bool",
          "name": "isValid",
          "type": "bool"
        },
        {
          "indexed": false,
          "internalType": "string",
          "name": "resolutionNote",
          "type": "string"
        },
        {
          "indexed": false,
          "internalType": "uint256",
          "name": "timestamp",
          "type": "uint256"
        }
      ],
      "name": "ViolationResolved",
      "type": "event"
    },
    {
      "inputs": [],
      "name": "AI_ENGINE_ROLE",
      "outputs": [
        {
          "internalType": "bytes32",
          "name": "",
          "type": "bytes32"
        }
      ],
      "stateMutability": "view",
      "type": "function"
    },
    {
      "inputs": [],
      "name": "DEFAULT_ADMIN_ROLE",
      "outputs": [
        {
          "internalType": "bytes32",
          "name": "",
          "type": "bytes32"
        }
      ],
      "stateMutability": "view",
      "type": "function"
    },
    {
      "inputs": [],
      "name": "RESOLVER_ROLE",
      "outputs": [
        {
          "internalType": "bytes32",
          "name": "",
          "type": "bytes32"
        }
      ],
      "stateMutability": "view",
      "type": "function"
    },
    {
      "inputs": [],
      "name": "VERIFIER_ROLE",
      "outputs": [
        {
          "internalType": "bytes32",
          "name": "",
          "type": "bytes32"
        }
      ],
      "stateMutability": "view",
      "type": "function"
    },
    {
      "inputs": [
        {
          "internalType": "uint256",
          "name": "violationId",
          "type": "uint256"
        }
      ],
      "name": "acceptViolation",
      "outputs": [],
      "stateMutability": "nonpayable",
      "type": "function"
    },
    {
      "inputs": [
        {
          "internalType": "uint256",
          "name": "violationId",
          "type": "uint256"
        },
        {
          "internalType": "string",
          "name": "counterEvidenceHash",
          "type": "string"
        }
      ],
      "name": "challengeViolation",
      "outputs": [],
      "stateMutability": "nonpayable",
      "type": "function"
    },
    {
      "inputs": [
        {
          "internalType": "bytes32",
          "name": "role",
          "type": "bytes32"
        }
      ],
      "name": "getRoleAdmin",
      "outputs": [
        {
          "internalType": "bytes32",
          "name": "",
          "type": "bytes32"
        }
      ],
      "stateMutability": "view",
      "type": "function"
    },
    {
      "inputs": [
        {
          "internalType": "uint256",
          "name": "violationId",
          "type": "uint256"
        }
      ],
      "name": "getViolation",
      "outputs": [
        {
          "components": [
            {
              "internalType": "uint256",
              "name": "violationId",
              "type": "uint256"
            },
            {
              "internalType": "uint256",
              "name": "dippChainId",
              "type": "uint256"
            },
            {
              "internalType": "address",
              "name": "reporter",
              "type": "address"
            },
            {
              "internalType": "string",
              "name": "evidenceHash",
              "type": "string"
            },
            {
              "internalType": "uint256",
              "name": "similarityScore",
              "type": "uint256"
            },
            {
              "internalType": "string",
              "name": "detectedUrl",
              "type": "string"
            },
            {
              "internalType": "enum IPEnforcer.DisputeState",
              "name": "state",
              "type": "uint8"
            },
            {
              "internalType": "uint256",
              "name": "reportedAt",
              "type": "uint256"
            },
            {
              "internalType": "address",
              "name": "creator",
              "type": "address"
            },
            {
              "internalType": "string",
              "name": "counterEvidenceHash",
              "type": "string"
            },
            {
              "internalType": "address",
              "name": "resolver",
              "type": "address"
            },
            {
              "internalType": "uint256",
              "name": "resolvedAt",
              "type": "uint256"
            },
            {
              "internalType": "string",
              "name": "resolutionNote",
              "type": "string"
            }
          ],
          "internalType": "struct IPEnforcer.Violation",
          "name": "violation",
          "type": "tuple"
        }
      ],
      "stateMutability": "view",
      "type": "function"
    },
    {
      "inputs": [
        {
          "internalType": "uint256",
          "name": "dippChainId",
          "type": "uint256"
        }
      ],
      "name": "getViolationCount",
      "outputs": [
        {
          "internalType": "uint256",
          "name": "count",
          "type": "uint256"
        }
      ],
      "stateMutability": "view",
      "type": "function"
    },
    {
      "inputs": [
        {
          "internalType": "uint256",
          "name": "dippChainId",
          "type": "uint256"
        }
      ],
      "name": "getViolations",
      "outputs": [
        {
          "internalType": "uint256[]",
          "name": "violationIds",
          "type": "uint256[]"
        }
      ],
      "stateMutability": "view",
      "type": "function"
    },
    {
      "inputs": [
        {
          "internalType": "address",
          "name": "account",
          "type": "address"
        }
      ],
      "name": "grantAIEngineRole",
      "outputs": [],
      "stateMutability": "nonpayable",
      "type": "function"
    },
    {
      "inputs": [
        {
          "internalType": "address",
          "name": "account",
          "type": "address"
        }
      ],
      "name": "grantResolverRole",
      "outputs": [],
      "stateMutability": "nonpayable",
      "type": "function"
    },
    {
      "inputs": [
        {
          "internalType": "bytes32",
          "name": "role",
          "type": "bytes32"
        },
        {
          "internalType": "address",
          "name": "account",
          "type": "address"
        }
      ],
      "name": "grantRole",
      "outputs": [],
      "stateMutability": "nonpayable",
      "type": "function"
    },
    {
      "inputs": [
        {
          "internalType": "address",
          "name": "account",
          "type": "address"
        }
      ],
      "name": "grantVerifierRole",
      "outputs": [],
      "stateMutability": "nonpayable",
      "type": "function"
    },
    {
      "inputs": [
        {
          "internalType": "bytes32",
          "name": "role",
          "type": "bytes32"
        },
        {
          "internalType": "address",
          "name": "account",
          "type": "address"
        }
      ],
      "name": "hasRole",
      "outputs": [
        {
          "internalType": "bool",
          "name": "",
          "type": "bool"
        }
      ],
      "stateMutability": "view",
      "type": "function"
    },
    {
      "inputs": [],
      "name": "ipRegistryAdapter",
      "outputs": [
        {
          "internalType": "contract IPRegistryAdapter",
          "name": "",
          "type": "address"
        }
      ],
      "stateMutability": "view",
      "type": "function"
    },
    {
      "inputs": [
        {
          "internalType": "uint256",
          "name": "",
          "type": "uint256"
        },
        {
          "internalType": "uint256",
          "name": "",
          "type": "uint256"
        }
      ],
      "name": "ipViolations",
      "outputs": [
        {
          "internalType": "uint256",
          "name": "",
          "type": "uint256"
        }
      ],
      "stateMutability": "view",
      "type": "function"
    },
    {
      "inputs": [],
      "name": "minSimilarityScore",
      "outputs": [
        {
          "internalType": "uint256",
          "name": "",
          "type": "uint256"
        }
      ],
      "stateMutability": "view",
      "type": "function"
    },
    {
      "inputs": [],
      "name": "owner",
      "outputs": [
        {
          "internalType": "address",
          "name": "",
          "type": "address"
        }
      ],
      "stateMutability": "view",
      "type": "function"
    },
    {
      "inputs": [],
      "name": "pause",
      "outputs": [],
      "stateMutability": "nonpayable",
      "type": "function"
    },
    {
      "inputs": [],
      "name": "paused",
      "outputs": [
        {
          "internalType": "bool",
          "name": "",
          "type": "bool"
        }
      ],
      "stateMutability": "view",
      "type": "function"
    },
    {
      "inputs": [],
      "name": "renounceOwnership",
      "outputs": [],
      "stateMutability": "nonpayable",
      "type": "function"
    },
    {
      "inputs": [
        {
          "internalType": "bytes32",
          "name": "role",
          "type": "bytes32"
        },
        {
          "internalType": "address",
          "name": "account",
          "type": "address"
        }
      ],
      "name": "renounceRole",
      "outputs": [],
      "stateMutability": "nonpayable",
      "type": "function"
    },
    {
      "inputs": [
        {
          "internalType": "uint256",
          "name": "dippChainId",
          "type": "uint256"
        },
        {
          "internalType": "string",
          "name": "evidenceHash",
          "type": "string"
        },
        {
          "internalType": "uint256",
          "name": "similarityScore",
          "type": "uint256"
        },
        {
          "internalType": "string",
          "name": "detectedUrl",
          "type": "string"
        }
      ],
      "name": "reportViolation",
      "outputs": [
        {
          "internalType": "uint256",
          "name": "",
          "type": "uint256"
        }
      ],
      "stateMutability": "nonpayable",
      "type": "function"
    },
    {
      "inputs": [
        {
          "internalType": "uint256",
          "name": "violationId",
          "type": "uint256"
        },
        {
          "internalType": "bool",
          "name": "isValid",
          "type": "bool"
        },
        {
          "internalType": "string",
          "name": "resolutionNote",
          "type": "string"
        }
      ],
      "name": "resolveViolation",
      "outputs": [],
      "stateMutability": "nonpayable",
      "type": "function"
    },
    {
      "inputs": [
        {
          "internalType": "bytes32",
          "name": "role",
          "type": "bytes32"
        },
        {
          "internalType": "address",
          "name": "account",
          "type": "address"
        }
      ],
      "name": "revokeRole",
      "outputs": [],
      "stateMutability": "nonpayable",
      "type": "function"
    },
    {
      "inputs": [
        {
          "internalType": "uint256",
          "name": "newMinScore",
          "type": "uint256"
        }
      ],
      "name": "setMinSimilarityScore",
      "outputs": [],
      "stateMutability": "nonpayable",
      "type": "function"
    },
    {
      "inputs": [
        {
          "internalType": "bytes4",
          "name": "interfaceId",
          "type": "bytes4"
        }
      ],
      "name": "supportsInterface",
      "outputs": [
        {
          "internalType": "bool",
          "name": "",
          "type": "bool"
        }
      ],
      "stateMutability": "view",
      "type": "function"
    },
    {
      "inputs": [],
      "name": "totalViolations",
      "outputs": [
        {
          "internalType": "uint256",
          "name": "count",
          "type": "uint256"
        }
      ],
      "stateMutability": "view",
      "type": "function"
    },
    {
      "inputs": [
        {
          "internalType": "address",
          "name": "newOwner",
          "type": "address"
        }
      ],
      "name": "transferOwnership",
      "outputs": [],
      "stateMutability": "nonpayable",
      "type": "function"
    },
    {
      "inputs": [],
      "name": "unpause",
      "outputs": [],
      "stateMutability": "nonpayable",
      "type": "function"
    },
    {
      "inputs": [
        {
          "internalType": "uint256",
          "name": "",
          "type": "uint256"
        }
      ],
      "name": "violationExists",
      "outputs": [
        {
          "internalType": "bool",
          "name": "",
          "type": "bool"
        }
      ],
      "stateMutability": "view",
      "type": "function"
    },
    {
      "inputs": [
        {
          "internalType": "uint256",
          "name": "",
          "type": "uint256"
        }
      ],
      "name": "violations",
      "outputs": [
        {
          "internalType": "uint256",
          "name": "violationId",
          "type": "uint256"
        },
        {
          "internalType": "uint256",
          "name": "dippChainId",
          "type": "uint256"
        },
        {
          "internalType": "address",
          "name": "reporter",
          "type": "address"
        },
        {
          "internalType": "string",
          "name": "evidenceHash",
          "type": "string"
        },
        {
          "internalType": "uint256",
          "name": "similarityScore",
          "type": "uint256"
        },
        {
          "internalType": "string",
          "name": "detectedUrl",
          "type": "string"
        },
        {
          "internalType": "enum IPEnforcer.DisputeState",
          "name": "state",
          "type": "uint8"
        },
        {
          "internalType": "uint256",
          "name": "reportedAt",
          "type": "uint256"
        },
        {
          "internalType": "address",
          "name": "creator",
          "type": "address"
        },
        {
          "internalType": "string",
          "name": "counterEvidenceHash",
          "type": "string"
        },
        {
          "internalType": "address",
          "name": "resolver",
          "type": "address"
        },
        {
          "internalType": "uint256",
          "name": "resolvedAt",
          "type": "uint256"
        },
        {
          "internalType": "string",
          "name": "resolutionNote",
          "type": "string"
        }
      ],
      "stateMutability": "view",
      "type": "function"
    }
  ],
  "bytecode": "0x608060405260466008553480156200001657600080fd5b5060405162002fc038038062002fc08339810160408190526200003991620001e4565b6200004433620000ee565b60016002556003805460ff191690556200005e82620000ee565b6001600160a01b038116620000b95760405162461bcd60e51b815260206004820152601b60248201527f4950456e666f726365723a20496e76616c696420616461707465720000000000604482015260640160405180910390fd5b60038054610100600160a81b0319166101006001600160a01b03841602179055620000e66000836200013e565b50506200021c565b600080546001600160a01b038381166001600160a01b0319831681178455604051919092169283917f8be0079c531659141344cd1fd0a4f28419497f9722a3daafe3b4186f6b6457e09190a35050565b60008281526001602090815260408083206001600160a01b038516845290915290205460ff16620001c35760008281526001602081815260408084206001600160a01b0386168086529252808420805460ff19169093179092559051339285917f2f8788117e7eff1d82e926ec794901d17c78024a50270940304540a733656f0d9190a45b5050565b80516001600160a01b0381168114620001df57600080fd5b919050565b60008060408385031215620001f857600080fd5b6200020383620001c7565b91506200021360208401620001c7565b90509250929050565b612d94806200022c6000396000f3fe608060405234801561001057600080fd5b50600436106101fb5760003560e01c806378fab2601161011a578063a489f675116100ad578063d547741f1161007c578063d547741f1461049b578063d6fd6239146104ae578063e7705db6146104b6578063f2fde38b146104cb578063fb6250f9146104de57600080fd5b8063a489f67514610424578063af0c5ef21461043c578063b995bb951461045c578063d50307181461048857600080fd5b806393e1d18f116100e957806393e1d18f146103ed578063954fd25b146104005780639fa908e114610409578063a217fddf1461041c57600080fd5b806378fab260146103865780638456cb59146103ad5780638da5cb5b146103b557806391d14854146103da57600080fd5b806336568abe116101925780635c975abb116101615780635c975abb1461033d57806365c0abf4146103485780636ffee7101461035b578063715018a61461037e57600080fd5b806336568abe146102db5780633f4ba83a146102ee5780634c5765d1146102f65780635b977d841461031657600080fd5b8063248a9ca3116101ce578063248a9ca31461027e57806326a18da3146102a25780632f2ff15d146102b55780633060b2d1146102c857600080fd5b806301ffc9a7146102005780630337c0611461022857806309613c2f1461023d57806310b3f8a714610250575b600080fd5b61021361020e36600461220e565b6104f1565b60405190151581526020015b60405180910390f35b61023b61023636600461224d565b610528565b005b61023b61024b36600461226a565b61054b565b61027061025e36600461226a565b60009081526006602052604090205490565b60405190815260200161021f565b61027061028c36600461226a565b6000908152600160208190526040909120015490565b61023b6102b036600461226a565b6105f0565b61023b6102c3366004612283565b610823565b6102706102d63660046122b3565b61084e565b61023b6102e9366004612283565b61087f565b61023b6108fd565b61030961030436600461226a565b61090f565b60405161021f919061235d565b6102707f0dba38fd1375522bd19c96d7dc32c2d7161e8813dd9e7a93313ac713de7bc7a581565b60035460ff16610213565b61023b61035636600461224d565b610c5e565b61021361036936600461226a565b60076020526000908152604090205460ff1681565b61023b610c90565b6102707f92a19c77d2ea87c7f81d50c74403cb2f401780f3ad919571121efe2bdb427eb181565b61023b610ca2565b6000546001600160a01b03165b6040516001600160a01b03909116815260200161021f565b6102136103e8366004612283565b610cb2565b61023b6103fb36600461257e565b610cdd565b61027060085481565b61023b6104173660046125d7565b610f1d565b610270600081565b6003546103c29061010090046001600160a01b031681565b61044f61044a36600461226a565b6111cb565b60405161021f919061261e565b61046f61046a36600461226a565b61122d565b60405161021f9d9c9b9a99989796959493929190612662565b61023b61049636600461224d565b6114d9565b61023b6104a9366004612283565b61150b565b600454610270565b610270600080516020612d3f83398151915281565b61023b6104d936600461224d565b611531565b6102706104ec366004612730565b6115a7565b60006001600160e01b03198216637965db0b60e01b148061052257506301ffc9a760e01b6001600160e01b03198316145b92915050565b610530611c71565b610548600080516020612d3f83398151915282611ccb565b50565b610553611c71565b60648111156105a55760405162461bcd60e51b81526020600482015260196024820152784950456e666f726365723a20496e76616c69642073636f726560381b60448201526064015b60405180910390fd5b60088054908290556040805182815260208101849052428183015290517f3ad1c9f2d178123ab22fb5a99699c544a78d717271f138ec19296d5133a9ce6b9181900360600190a15050565b6105f8611d36565b600081815260076020526040902054819060ff166106285760405162461bcd60e51b815260040161059c906127a7565b600082815260056020526040812090600682015460ff16600481111561065057610650612325565b1461066d5760405162461bcd60e51b815260040161059c906127dc565b6003546001820154604051632c1acbb360e11b8152600481019190915260009182916101009091046001600160a01b0316906358359766906024016040805180830381865afa1580156106c4573d6000803e3d6000fd5b505050506040513d601f19601f820116820180604052508101906106e89190612823565b6040516331a9108f60e11b815260048101829052919350915082906000906001600160a01b03831690636352211e90602401602060405180830381865afa158015610737573d6000803e3d6000fd5b505050506040513d601f19601f8201168201806040525081019061075b9190612851565b60088601549091506001600160a01b031633148061078157506001600160a01b03811633145b6107cd5760405162461bcd60e51b815260206004820181905260248201527f4950456e666f726365723a204e6f742063726561746f72206f72206f776e6572604482015260640161059c565b60068501805460ff19166001179055604051428152339088907f17223bd62ac34002c149aff8bfb255e3246e9e39a5732d82d48912626e616fe19060200160405180910390a35050505050506105486001600255565b6000828152600160208190526040909120015461083f81611d8d565b6108498383611ccb565b505050565b6006602052816000526040600020818154811061086a57600080fd5b90600052602060002001600091509150505481565b6001600160a01b03811633146108ef5760405162461bcd60e51b815260206004820152602f60248201527f416363657373436f6e74726f6c3a2063616e206f6e6c792072656e6f756e636560448201526e103937b632b9903337b91039b2b63360891b606482015260840161059c565b6108f98282611d97565b5050565b610905611c71565b61090d611dfe565b565b61091761217a565b600082815260076020526040902054829060ff166109475760405162461bcd60e51b815260040161059c906127a7565b60008381526005602090815260409182902082516101a0810184528154815260018201549281019290925260028101546001600160a01b03169282019290925260038201805491929160608401919061099f9061286e565b80601f01602080910402602001604051908101604052809291908181526020018280546109cb9061286e565b8015610a185780601f106109ed57610100808354040283529160200191610a18565b820191906000526020600020905b8154815290600101906020018083116109fb57829003601f168201915b5050505050815260200160048201548152602001600582018054610a3b9061286e565b80601f0160208091040260200160405190810160405280929190818152602001828054610a679061286e565b8015610ab45780601f10610a8957610100808354040283529160200191610ab4565b820191906000526020600020905b815481529060010190602001808311610a9757829003601f168201915b5050509183525050600682015460209091019060ff166004811115610adb57610adb612325565b6004811115610aec57610aec612325565b81526007820154602082015260088201546001600160a01b03166040820152600982018054606090920191610b209061286e565b80601f0160208091040260200160405190810160405280929190818152602001828054610b4c9061286e565b8015610b995780601f10610b6e57610100808354040283529160200191610b99565b820191906000526020600020905b815481529060010190602001808311610b7c57829003601f168201915b5050509183525050600a8201546001600160a01b03166020820152600b8201546040820152600c82018054606090920191610bd39061286e565b80601f0160208091040260200160405190810160405280929190818152602001828054610bff9061286e565b8015610c4c5780601f10610c2157610100808354040283529160200191610c4c565b820191906000526020600020905b815481529060010190602001808311610c2f57829003601f168201915b50505050508152505091505b50919050565b610c66611c71565b6105487f92a19c77d2ea87c7f81d50c74403cb2f401780f3ad919571121efe2bdb427eb182611ccb565b610c98611c71565b61090d6000611e50565b610caa611c71565b61090d611ea0565b60009182526001602090815260408084206001600160a01b0393909316845291905290205460ff1690565b610ce5611d36565b600083815260076020526040902054839060ff16610d155760405162461bcd60e51b815260040161059c906127a7565b610d2d600080516020612d3f83398151915233610cb2565b80610d5d5750610d5d7f92a19c77d2ea87c7f81d50c74403cb2f401780f3ad919571121efe2bdb427eb133610cb2565b610db75760405162461bcd60e51b815260206004820152602560248201527f4950456e666f726365723a204e6f7420617574686f72697a656420746f207265604482015264736f6c766560d81b606482015260840161059c565b600084815260056020526040812090600682015460ff166004811115610ddf57610ddf612325565b1480610e0357506002600682015460ff166004811115610e0157610e01612325565b145b610e1f5760405162461bcd60e51b815260040161059c906127dc565b83610e2b576004610e2e565b60035b60068201805460ff19166001836004811115610e4c57610e4c612325565b0217905550600a810180546001600160a01b0319163317905542600b820155600c8101610e7984826128f0565b508315610ecc57336001600160a01b0316857f888e0149303e214560274822f9e9f5f7d440b8f9c4f7134252c99d36d27a0c1860018642604051610ebf939291906129b0565b60405180910390a3610f11565b336001600160a01b0316857f0421c368784fa7a77ae5b584e4758ac0fdcd6e7fee0347f0f47d1b37db61dea38542604051610f089291906129db565b60405180910390a35b50506108496001600255565b610f25611d36565b600082815260076020526040902054829060ff16610f555760405162461bcd60e51b815260040161059c906127a7565b600083815260056020526040812090600682015460ff166004811115610f7d57610f7d612325565b14610f9a5760405162461bcd60e51b815260040161059c906127dc565b6003546001820154604051632c1acbb360e11b8152600481019190915260009182916101009091046001600160a01b0316906358359766906024016040805180830381865afa158015610ff1573d6000803e3d6000fd5b505050506040513d601f19601f820116820180604052508101906110159190612823565b6040516331a9108f60e11b815260048101829052919350915082906000906001600160a01b03831690636352211e90602401602060405180830381865afa158015611064573d6000803e3d6000fd5b505050506040513d601f19601f820116820180604052508101906110889190612851565b60088601549091506001600160a01b03163314806110ae57506001600160a01b03811633145b6110fa5760405162461bcd60e51b815260206004820181905260248201527f4950456e666f726365723a204e6f742063726561746f72206f72206f776e6572604482015260640161059c565b60008751116111595760405162461bcd60e51b815260206004820152602560248201527f4950456e666f726365723a20436f756e7465722d65766964656e6365207265716044820152641d5a5c995960da1b606482015260840161059c565b60068501805460ff191660021790556009850161117688826128f0565b50336001600160a01b0316887f4b1348fc5205fd7881c7aeeeb931b81f1e037e26ce3a14622562dd566789638289426040516111b39291906129db565b60405180910390a35050505050506108f96001600255565b60008181526006602090815260409182902080548351818402810184019094528084526060939283018282801561122157602002820191906000526020600020905b81548152602001906001019080831161120d575b50505050509050919050565b6005602052600090815260409020805460018201546002830154600384018054939492936001600160a01b0390921692916112679061286e565b80601f01602080910402602001604051908101604052809291908181526020018280546112939061286e565b80156112e05780601f106112b5576101008083540402835291602001916112e0565b820191906000526020600020905b8154815290600101906020018083116112c357829003601f168201915b5050505050908060040154908060050180546112fb9061286e565b80601f01602080910402602001604051908101604052809291908181526020018280546113279061286e565b80156113745780601f1061134957610100808354040283529160200191611374565b820191906000526020600020905b81548152906001019060200180831161135757829003601f168201915b505050600684015460078501546008860154600987018054969760ff909416969295506001600160a01b039091169350906113ae9061286e565b80601f01602080910402602001604051908101604052809291908181526020018280546113da9061286e565b80156114275780601f106113fc57610100808354040283529160200191611427565b820191906000526020600020905b81548152906001019060200180831161140a57829003601f168201915b50505050600a830154600b840154600c8501805494956001600160a01b0390931694919350906114569061286e565b80601f01602080910402602001604051908101604052809291908181526020018280546114829061286e565b80156114cf5780601f106114a4576101008083540402835291602001916114cf565b820191906000526020600020905b8154815290600101906020018083116114b257829003601f168201915b505050505090508d565b6114e1611c71565b6105487f0dba38fd1375522bd19c96d7dc32c2d7161e8813dd9e7a93313ac713de7bc7a582611ccb565b6000828152600160208190526040909120015461152781611d8d565b6108498383611d97565b611539611c71565b6001600160a01b03811661159e5760405162461bcd60e51b815260206004820152602660248201527f4f776e61626c653a206e6577206f776e657220697320746865207a65726f206160448201526564647265737360d01b606482015260840161059c565b61054881611e50565b60006115b1611d36565b6115b9611edd565b6115e37f0dba38fd1375522bd19c96d7dc32c2d7161e8813dd9e7a93313ac713de7bc7a533610cb2565b806116015750611601600080516020612d3f83398151915233610cb2565b6116595760405162461bcd60e51b8152602060048201526024808201527f4950456e666f726365723a204e6f7420617574686f72697a656420746f2072656044820152631c1bdc9d60e21b606482015260840161059c565b60008451116116aa5760405162461bcd60e51b815260206004820152601d60248201527f4950456e666f726365723a2045766964656e6365207265717569726564000000604482015260640161059c565b6008548310156116fc5760405162461bcd60e51b815260206004820152601960248201527f4950456e666f726365723a2053636f726520746f6f206c6f7700000000000000604482015260640161059c565b60648311156117495760405162461bcd60e51b81526020600482015260196024820152784950456e666f726365723a20496e76616c69642073636f726560381b604482015260640161059c565b600082511161179a5760405162461bcd60e51b815260206004820152601860248201527f4950456e666f726365723a2055524c2072657175697265640000000000000000604482015260640161059c565b600354604051634f558e7960e01b8152600481018790526101009091046001600160a01b031690634f558e7990602401602060405180830381865afa1580156117e7573d6000803e3d6000fd5b505050506040513d601f19601f8201168201806040525081019061180b9190612a08565b6118505760405162461bcd60e51b815260206004820152601660248201527504950456e666f726365723a20496e76616c69642049560541b604482015260640161059c565b60035460405163295d33a960e21b81526004810187905260009161010090046001600160a01b03169063a574cea490602401600060405180830381865afa15801561189f573d6000803e3d6000fd5b505050506040513d6000823e601f3d908101601f191682016040526118c79190810190612b09565b90508060e0015161191a5760405162461bcd60e51b815260206004820152601960248201527f4950456e666f726365723a204950206e6f742061637469766500000000000000604482015260640161059c565b600354604051632c1acbb360e11b81526004810188905260009182916101009091046001600160a01b0316906358359766906024016040805180830381865afa15801561196b573d6000803e3d6000fd5b505050506040513d601f19601f8201168201806040525081019061198f9190612823565b6040516331a9108f60e11b815260048101829052919350915082906000906001600160a01b03831690636352211e90602401602060405180830381865afa1580156119de573d6000803e3d6000fd5b505050506040513d601f19601f82011682018060405250810190611a029190612851565b6004805491925081906000611a1683612c09565b9190505550604051806101a001604052808281526020018c8152602001336001600160a01b031681526020018b81526020018a815260200189815260200160006004811115611a6757611a67612325565b8152426020808301919091526001600160a01b038581166040808501919091528051808401825260008082526060808701929092526080860181905260a086018190528251808601845281815260c0909601959095528685526005845293819020855181559285015160018401558401516002830180546001600160a01b03191691909216179055908201516003820190611b0290826128f0565b506080820151600482015560a08201516005820190611b2190826128f0565b5060c082015160068201805460ff19166001836004811115611b4557611b45612325565b021790555060e082015160078201556101008201516008820180546001600160a01b0319166001600160a01b039092169190911790556101208201516009820190611b9090826128f0565b50610140820151600a820180546001600160a01b0319166001600160a01b03909216919091179055610160820151600b820155610180820151600c820190611bd890826128f0565b50505060008b815260066020908152604080832080546001818101835591855283852001859055848452600790925291829020805460ff191690911790555133908c9083907f79c86900b239f0c9e4452150c728b5e0e45813acb658d6f3bb7497bc9ce5190790611c50908f908f908f904290612c22565b60405180910390a495505050505050611c696001600255565b949350505050565b6000546001600160a01b0316331461090d5760405162461bcd60e51b815260206004820181905260248201527f4f776e61626c653a2063616c6c6572206973206e6f7420746865206f776e6572604482015260640161059c565b611cd58282610cb2565b6108f95760008281526001602081815260408084206001600160a01b0386168086529252808420805460ff19169093179092559051339285917f2f8788117e7eff1d82e926ec794901d17c78024a50270940304540a733656f0d9190a45050565b6002805403611d875760405162461bcd60e51b815260206004820152601f60248201527f5265656e7472616e637947756172643a207265656e7472616e742063616c6c00604482015260640161059c565b60028055565b6105488133611f23565b611da18282610cb2565b156108f95760008281526001602090815260408083206001600160a01b0385168085529252808320805460ff1916905551339285917ff6391f5c32d9c69d2a47ea670b442974b53935d1edc7fd64eb21e047a839171b9190a45050565b611e06611f7c565b6003805460ff191690557f5db9ee0a495bf2e6ff9c91a7834c1ba4fdd244a5e8aa4e537bd38aeae4b073aa335b6040516001600160a01b03909116815260200160405180910390a1565b600080546001600160a01b038381166001600160a01b0319831681178455604051919092169283917f8be0079c531659141344cd1fd0a4f28419497f9722a3daafe3b4186f6b6457e09190a35050565b611ea8611edd565b6003805460ff191660011790557f62e78cea01bee320cd4e420270b5ea74000d11b0c9f74754ebdbfc544b05a258611e333390565b60035460ff161561090d5760405162461bcd60e51b815260206004820152601060248201526f14185d5cd8589b194e881c185d5cd95960821b604482015260640161059c565b611f2d8282610cb2565b6108f957611f3a81611fc5565b611f45836020611fd7565b604051602001611f56929190612c5f565b60408051601f198184030181529082905262461bcd60e51b825261059c91600401612cd4565b60035460ff1661090d5760405162461bcd60e51b815260206004820152601460248201527314185d5cd8589b194e881b9bdd081c185d5cd95960621b604482015260640161059c565b60606105226001600160a01b03831660145b60606000611fe6836002612ce7565b611ff1906002612cfe565b67ffffffffffffffff8111156120095761200961248f565b6040519080825280601f01601f191660200182016040528015612033576020820181803683370190505b509050600360fc1b8160008151811061204e5761204e612d11565b60200101906001600160f81b031916908160001a905350600f60fb1b8160018151811061207d5761207d612d11565b60200101906001600160f81b031916908160001a90535060006120a1846002612ce7565b6120ac906001612cfe565b90505b6001811115612124576f181899199a1a9b1b9c1cb0b131b232b360811b85600f16601081106120e0576120e0612d11565b1a60f81b8282815181106120f6576120f6612d11565b60200101906001600160f81b031916908160001a90535060049490941c9361211d81612d27565b90506120af565b5083156121735760405162461bcd60e51b815260206004820181905260248201527f537472696e67733a20686578206c656e67746820696e73756666696369656e74604482015260640161059c565b9392505050565b604051806101a00160405280600081526020016000815260200160006001600160a01b03168152602001606081526020016000815260200160608152602001600060048111156121cc576121cc612325565b81526020016000815260200160006001600160a01b031681526020016060815260200160006001600160a01b0316815260200160008152602001606081525090565b60006020828403121561222057600080fd5b81356001600160e01b03198116811461217357600080fd5b6001600160a01b038116811461054857600080fd5b60006020828403121561225f57600080fd5b813561217381612238565b60006020828403121561227c57600080fd5b5035919050565b6000806040838503121561229657600080fd5b8235915060208301356122a881612238565b809150509250929050565b600080604083850312156122c657600080fd5b50508035926020909101359150565b60005b838110156122f05781810151838201526020016122d8565b50506000910152565b600081518084526123118160208601602086016122d5565b601f01601f19169290920160200192915050565b634e487b7160e01b600052602160045260246000fd5b6005811061235957634e487b7160e01b600052602160045260246000fd5b9052565b6020815281516020820152602082015160408201526000604083015161238e60608401826001600160a01b03169052565b5060608301516101a08060808501526123ab6101c08501836122f9565b9150608085015160a085015260a0850151601f19808685030160c08701526123d384836122f9565b935060c087015191506123e960e087018361233b565b60e0870151610100878101919091528701519150610120612414818801846001600160a01b03169052565b8088015192505061014081878603018188015261243185846122f9565b945080880151925050610160612451818801846001600160a01b03169052565b8701516101808781019190915287015186850390910183870152905061247783826122f9565b9695505050505050565b801515811461054857600080fd5b634e487b7160e01b600052604160045260246000fd5b604051610100810167ffffffffffffffff811182821017156124c9576124c961248f565b60405290565b604051601f8201601f1916810167ffffffffffffffff811182821017156124f8576124f861248f565b604052919050565b600067ffffffffffffffff82111561251a5761251a61248f565b50601f01601f191660200190565b600082601f83011261253957600080fd5b813561254c61254782612500565b6124cf565b81815284602083860101111561256157600080fd5b816020850160208301376000918101602001919091529392505050565b60008060006060848603121561259357600080fd5b8335925060208401356125a581612481565b9150604084013567ffffffffffffffff8111156125c157600080fd5b6125cd86828701612528565b9150509250925092565b600080604083850312156125ea57600080fd5b82359150602083013567ffffffffffffffff81111561260857600080fd5b61261485828601612528565b9150509250929050565b6020808252825182820181905260009190848201906040850190845b818110156126565783518352928401929184019160010161263a565b50909695505050505050565b60006101a08f83528e6020840152612685604084018f6001600160a01b03169052565b8060608401526126978184018e6122f9565b90508b608084015282810360a08401526126b1818c6122f9565b90506126c060c084018b61233b565b8860e08401526126dc6101008401896001600160a01b03169052565b8281036101208401526126ef81886122f9565b6001600160a01b03871661014085015290508461016084015282810361018084015261271b81856122f9565b9150509e9d5050505050505050505050505050565b6000806000806080858703121561274657600080fd5b84359350602085013567ffffffffffffffff8082111561276557600080fd5b61277188838901612528565b945060408701359350606087013591508082111561278e57600080fd5b5061279b87828801612528565b91505092959194509250565b6020808252818101527f4950456e666f726365723a20496e76616c69642076696f6c6174696f6e204944604082015260600190565b60208082526019908201527f4950456e666f726365723a20496e76616c696420737461746500000000000000604082015260600190565b805161281e81612238565b919050565b6000806040838503121561283657600080fd5b825161284181612238565b6020939093015192949293505050565b60006020828403121561286357600080fd5b815161217381612238565b600181811c9082168061288257607f821691505b602082108103610c5857634e487b7160e01b600052602260045260246000fd5b601f82111561084957600081815260208120601f850160051c810160208610156128c95750805b601f850160051c820191505b818110156128e8578281556001016128d5565b505050505050565b815167ffffffffffffffff81111561290a5761290a61248f565b61291e81612918845461286e565b846128a2565b602080601f831160018114612953576000841561293b5750858301515b600019600386901b1c1916600185901b1785556128e8565b600085815260208120601f198616915b8281101561298257888601518255948401946001909101908401612963565b50858210156129a05787850151600019600388901b60f8161c191681555b5050505050600190811b01905550565b83151581526060602082015260006129cb60608301856122f9565b9050826040830152949350505050565b6040815260006129ee60408301856122f9565b90508260208301529392505050565b805161281e81612481565b600060208284031215612a1a57600080fd5b815161217381612481565b600082601f830112612a3657600080fd5b8151612a4461254782612500565b818152846020838601011115612a5957600080fd5b611c698260208301602087016122d5565b600082601f830112612a7b57600080fd5b8151602067ffffffffffffffff80831115612a9857612a9861248f565b8260051b612aa78382016124cf565b9384528581018301938381019088861115612ac157600080fd5b84880192505b85831015612afd57825184811115612adf5760008081fd5b612aed8a87838c0101612a25565b8352509184019190840190612ac7565b98975050505050505050565b600060208284031215612b1b57600080fd5b815167ffffffffffffffff80821115612b3357600080fd5b908301906101008286031215612b4857600080fd5b612b506124a5565b612b5983612813565b815260208301516020820152604083015182811115612b7757600080fd5b612b8387828601612a25565b604083015250606083015182811115612b9b57600080fd5b612ba787828601612a6a565b606083015250612bb9608084016129fd565b608082015260a083015160a0820152612bd460c08401612813565b60c0820152612be560e084016129fd565b60e082015295945050505050565b634e487b7160e01b600052601160045260246000fd5b600060018201612c1b57612c1b612bf3565b5060010190565b608081526000612c3560808301876122f9565b8560208401528281036040840152612c4d81866122f9565b91505082606083015295945050505050565b7f416363657373436f6e74726f6c3a206163636f756e7420000000000000000000815260008351612c978160178501602088016122d5565b7001034b99036b4b9b9b4b733903937b6329607d1b6017918401918201528351612cc88160288401602088016122d5565b01602801949350505050565b60208152600061217360208301846122f9565b808202811582820484141761052257610522612bf3565b8082018082111561052257610522612bf3565b634e487b7160e01b600052603260045260246000fd5b600081612d3657612d36612bf3565b50600019019056fe0ce23c3e399818cfee81a7ab0880f714e53d7672b08df0fa62f2843416e1ea09a2646970667358221220e552df37417100029e7dc4453d7454902bbdb6917967e84fce62e02a867e25b464736f6c63430008140033",
  "linkReferences": {},
  "deployedLinkReferences": {}
}