{
  "_format": "hh-sol-artifact-1",
  "contractName": "YieldVault",
  "sourceName": "contracts/YieldVault.sol",
  "abi": [
    {
      "inputs": [
        {
          "internalType": "address",
          "name": "initialOwner",
          "type": "address"
        },
        {
          "internalType": "address",
          "name": "_fractionalizer",
          "type": "address"
        }
      ],
      "stateMutability": "nonpayable",
      "type": "constructor"
    },
    {
      "anonymous": false,
      "inputs": [
        {
          "indexed": true,
          "internalType": "address",
          "name": "previousOwner",
          "type": "address"
        },
        {
          "indexed": true,
          "internalType": "address",
          "name": "newOwner",
          "type": "address"
        }
      ],
      "name": "OwnershipTransferred",
      "type": "event"
    },
    {
      "anonymous": false,
      "inputs": [
        {
          "indexed": false,
          "internalType": "address",
          "name": "account",
          "type": "address"
        }
      ],
      "name": "Paused",
      "type": "event"
    },
    {
      "anonymous": false,
      "inputs": [
        {
          "indexed": true,
          "internalType": "address",
          "name": "user",
          "type": "address"
        },
        {
          "indexed": true,
          "internalType": "address",
          "name": "royaltyToken",
          "type": "address"
        },
        {
          "indexed": false,
          "internalType": "uint256",
          "name": "amount",
          "type": "uint256"
        },
        {
          "indexed": false,
          "internalType": "uint256",
          "name": "timestamp",
          "type": "uint256"
        }
      ],
      "name": "TokensStaked",
      "type": "event"
    },
    {
      "anonymous": false,
      "inputs": [
        {
          "indexed": true,
          "internalType": "address",
          "name": "user",
          "type": "address"
        },
        {
          "indexed": true,
          "internalType": "address",
          "name": "royaltyToken",
          "type": "address"
        },
        {
          "indexed": false,
          "internalType": "uint256",
          "name": "amount",
          "type": "uint256"
        },
        {
          "indexed": false,
          "internalType": "uint256",
          "name": "timestamp",
          "type": "uint256"
        }
      ],
      "name": "TokensUnstaked",
      "type": "event"
    },
    {
      "anonymous": false,
      "inputs": [
        {
          "indexed": false,
          "internalType": "address",
          "name": "account",
          "type": "address"
        }
      ],
      "name": "Unpaused",
      "type": "event"
    },
    {
      "anonymous": false,
      "inputs": [
        {
          "indexed": true,
          "internalType": "address",
          "name": "royaltyToken",
          "type": "address"
        },
        {
          "indexed": true,
          "internalType": "address",
          "name": "yieldToken",
          "type": "address"
        },
        {
          "indexed": true,
          "internalType": "address",
          "name": "creator",
          "type": "address"
        },
        {
          "indexed": false,
          "internalType": "uint256",
          "name": "timestamp",
          "type": "uint256"
        }
      ],
      "name": "VaultCreated",
      "type": "event"
    },
    {
      "anonymous": false,
      "inputs": [
        {
          "indexed": true,
          "internalType": "address",
          "name": "user",
          "type": "address"
        },
        {
          "indexed": true,
          "internalType": "address",
          "name": "royaltyToken",
          "type": "address"
        },
        {
          "indexed": false,
          "internalType": "uint256",
          "name": "amount",
          "type": "uint256"
        },
        {
          "indexed": false,
          "internalType": "uint256",
          "name": "timestamp",
          "type": "uint256"
        }
      ],
      "name": "YieldClaimed",
      "type": "event"
    },
    {
      "anonymous": false,
      "inputs": [
        {
          "indexed": true,
          "internalType": "address",
          "name": "royaltyToken",
          "type": "address"
        },
        {
          "indexed": true,
          "internalType": "address",
          "name": "yieldToken",
          "type": "address"
        },
        {
          "indexed": false,
          "internalType": "uint256",
          "name": "amount",
          "type": "uint256"
        },
        {
          "indexed": false,
          "internalType": "uint256",
          "name": "timestamp",
          "type": "uint256"
        }
      ],
      "name": "YieldDeposited",
      "type": "event"
    },
    {
      "anonymous": false,
      "inputs": [
        {
          "indexed": true,
          "internalType": "address",
          "name": "royaltyToken",
          "type": "address"
        },
        {
          "indexed": false,
          "internalType": "uint256",
          "name": "oldRate",
          "type": "uint256"
        },
        {
          "indexed": false,
          "internalType": "uint256",
          "name": "newRate",
          "type": "uint256"
        },
        {
          "indexed": false,
          "internalType": "uint256",
          "name": "timestamp",
          "type": "uint256"
        }
      ],
      "name": "YieldRateUpdated",
      "type": "event"
    },
    {
      "inputs": [],
      "name": "MIN_STAKE_DURATION",
      "outputs": [
        {
          "internalType": "uint256",
          "name": "",
          "type": "uint256"
        }
      ],
      "stateMutability": "view",
      "type": "function"
    },
    {
      "inputs": [
        {
          "internalType": "address",
          "name": "",
          "type": "address"
        }
      ],
      "name": "accumulatedYield",
      "outputs": [
        {
          "internalType": "uint256",
          "name": "",
          "type": "uint256"
        }
      ],
      "stateMutability": "view",
      "type": "function"
    },
    {
      "inputs": [
        {
          "internalType": "address",
          "name": "royaltyToken",
          "type": "address"
        }
      ],
      "name": "claimYield",
      "outputs": [],
      "stateMutability": "nonpayable",
      "type": "function"
    },
    {
      "inputs": [
        {
          "internalType": "address",
          "name": "royaltyToken",
          "type": "address"
        },
        {
          "internalType": "address",
          "name": "yieldToken",
          "type": "address"
        }
      ],
      "name": "createVault",
      "outputs": [],
      "stateMutability": "nonpayable",
      "type": "function"
    },
    {
      "inputs": [
        {
          "internalType": "address",
          "name": "royaltyToken",
          "type": "address"
        },
        {
          "internalType": "uint256",
          "name": "amount",
          "type": "uint256"
        }
      ],
      "name": "depositYield",
      "outputs": [],
      "stateMutability": "nonpayable",
      "type": "function"
    },
    {
      "inputs": [],
      "name": "fractionalizer",
      "outputs": [
        {
          "internalType": "contract Fractionalizer",
          "name": "",
          "type": "address"
        }
      ],
      "stateMutability": "view",
      "type": "function"
    },
    {
      "inputs": [
        {
          "internalType": "address",
          "name": "user",
          "type": "address"
        },
        {
          "internalType": "address",
          "name": "royaltyToken",
          "type": "address"
        }
      ],
      "name": "getPendingYield",
      "outputs": [
        {
          "internalType": "uint256",
          "name": "pendingYield",
          "type": "uint256"
        }
      ],
      "stateMutability": "view",
      "type": "function"
    },
    {
      "inputs": [
        {
          "internalType": "address",
          "name": "",
          "type": "address"
        }
      ],
      "name": "lastUpdateTime",
      "outputs": [
        {
          "internalType": "uint256",
          "name": "",
          "type": "uint256"
        }
      ],
      "stateMutability": "view",
      "type": "function"
    },
    {
      "inputs": [],
      "name": "owner",
      "outputs": [
        {
          "internalType": "address",
          "name": "",
          "type": "address"
        }
      ],
      "stateMutability": "view",
      "type": "function"
    },
    {
      "inputs": [],
      "name": "pause",
      "outputs": [],
      "stateMutability": "nonpayable",
      "type": "function"
    },
    {
      "inputs": [],
      "name": "paused",
      "outputs": [
        {
          "internalType": "bool",
          "name": "",
          "type": "bool"
        }
      ],
      "stateMutability": "view",
      "type": "function"
    },
    {
      "inputs": [],
      "name": "renounceOwnership",
      "outputs": [],
      "stateMutability": "nonpayable",
      "type": "function"
    },
    {
      "inputs": [
        {
          "internalType": "address",
          "name": "royaltyToken",
          "type": "address"
        },
        {
          "internalType": "uint256",
          "name": "newRateBps",
          "type": "uint256"
        }
      ],
      "name": "setYieldRate",
      "outputs": [],
      "stateMutability": "nonpayable",
      "type": "function"
    },
    {
      "inputs": [
        {
          "internalType": "address",
          "name": "royaltyToken",
          "type": "address"
        },
        {
          "internalType": "uint256",
          "name": "amount",
          "type": "uint256"
        }
      ],
      "name": "stake",
      "outputs": [],
      "stateMutability": "nonpayable",
      "type": "function"
    },
    {
      "inputs": [
        {
          "internalType": "address",
          "name": "",
          "type": "address"
        },
        {
          "internalType": "address",
          "name": "",
          "type": "address"
        }
      ],
      "name": "stakeTimestamps",
      "outputs": [
        {
          "internalType": "uint256",
          "name": "",
          "type": "uint256"
        }
      ],
      "stateMutability": "view",
      "type": "function"
    },
    {
      "inputs": [
        {
          "internalType": "address",
          "name": "",
          "type": "address"
        }
      ],
      "name": "totalStaked",
      "outputs": [
        {
          "internalType": "uint256",
          "name": "",
          "type": "uint256"
        }
      ],
      "stateMutability": "view",
      "type": "function"
    },
    {
      "inputs": [
        {
          "internalType": "address",
          "name": "newOwner",
          "type": "address"
        }
      ],
      "name": "transferOwnership",
      "outputs": [],
      "stateMutability": "nonpayable",
      "type": "function"
    },
    {
      "inputs": [],
      "name": "unpause",
      "outputs": [],
      "stateMutability": "nonpayable",
      "type": "function"
    },
    {
      "inputs": [
        {
          "internalType": "address",
          "name": "royaltyToken",
          "type": "address"
        },
        {
          "internalType": "uint256",
          "name": "amount",
          "type": "uint256"
        }
      ],
      "name": "unstake",
      "outputs": [],
      "stateMutability": "nonpayable",
      "type": "function"
    },
    {
      "inputs": [
        {
          "internalType": "address",
          "name": "",
          "type": "address"
        },
        {
          "internalType": "address",
          "name": "",
          "type": "address"
        }
      ],
      "name": "userStakes",
      "outputs": [
        {
          "internalType": "uint256",
          "name": "",
          "type": "uint256"
        }
      ],
      "stateMutability": "view",
      "type": "function"
    },
    {
      "inputs": [
        {
          "internalType": "address",
          "name": "",
          "type": "address"
        }
      ],
      "name": "vaults",
      "outputs": [
        {
          "internalType": "address",
          "name": "royaltyToken",
          "type": "address"
        },
        {
          "internalType": "address",
          "name": "yieldToken",
          "type": "address"
        },
        {
          "internalType": "bool",
          "name": "isActive",
          "type": "bool"
        },
        {
          "internalType": "uint256",
          "name": "totalDeposited",
          "type": "uint256"
        },
        {
          "internalType": "uint256",
          "name": "totalYieldPaid",
          "type": "uint256"
        },
        {
          "internalType": "uint256",
          "name": "createdAt",
          "type": "uint256"
        }
      ],
      "stateMutability": "view",
      "type": "function"
    },
    {
      "inputs": [
        {
          "internalType": "address",
          "name": "",
          "type": "address"
        }
      ],
      "name": "yieldRates",
      "outputs": [
        {
          "internalType": "uint256",
          "name": "",
          "type": "uint256"
        }
      ],
      "stateMutability": "view",
      "type": "function"
    }
  ],
  "bytecode": "0x60806040523480156200001157600080fd5b5060405162001c4e38038062001c4e833981016040819052620000349162000158565b6200003f33620000eb565b600180556002805460ff191690556200005882620000eb565b6001600160a01b038116620000be5760405162461bcd60e51b815260206004820152602260248201527f5969656c645661756c743a20496e76616c6964206672616374696f6e616c697a60448201526132b960f11b606482015260840160405180910390fd5b600280546001600160a01b0390921661010002610100600160a81b03199092169190911790555062000190565b600080546001600160a01b038381166001600160a01b0319831681178455604051919092169283917f8be0079c531659141344cd1fd0a4f28419497f9722a3daafe3b4186f6b6457e09190a35050565b80516001600160a01b03811681146200015357600080fd5b919050565b600080604083850312156200016c57600080fd5b62000177836200013b565b915062000187602084016200013b565b90509250929050565b611aae80620001a06000396000f3fe608060405234801561001057600080fd5b50600436106101425760003560e01c80639bfd8d61116100b8578063cc92d31c1161007c578063cc92d31c14610365578063d03b0e4914610378578063d699618514610390578063e0c570ba146103a3578063f2fde38b146103ad578063fa8e7ed3146103c057600080fd5b80639bfd8d6114610260578063a622ee7c14610280578063adc9772e14610314578063c2a672e014610327578063cb8cb22b1461033a57600080fd5b80635c975abb1161010a5780635c975abb146101d7578063715018a6146101ed5780638456cb59146101f5578063862d2d7c146101fd5780638da5cb5b14610228578063999927df1461024d57600080fd5b80632b240831146101475780632ce9aead1461017a5780633f4ba83a1461019a5780634051584f146101a45780634fbc1258146101b7575b600080fd5b610167610155366004611862565b60086020526000908152604090205481565b6040519081526020015b60405180910390f35b610167610188366004611862565b60076020526000908152604090205481565b6101a26103d3565b005b6101a26101b2366004611884565b6103e5565b6101676101c5366004611862565b60066020526000908152604090205481565b60025460ff166040519015158152602001610171565b6101a26104fc565b6101a261050e565b61016761020b3660046118ae565b600460209081526000928352604080842090915290825290205481565b6000546001600160a01b03165b6040516001600160a01b039091168152602001610171565b6101a261025b366004611862565b61051e565b61016761026e366004611862565b60056020526000908152604090205481565b6102d661028e366004611862565b6003602081905260009182526040909120805460018201546002830154938301546004909301546001600160a01b039283169492821693600160a01b90920460ff1692919086565b604080516001600160a01b039788168152969095166020870152921515938501939093526060840152608083019190915260a082015260c001610171565b6101a2610322366004611884565b610833565b6101a2610335366004611884565b6109ff565b6101676103483660046118ae565b600960209081526000928352604080842090915290825290205481565b6101a26103733660046118ae565b610bf1565b6002546102359061010090046001600160a01b031681565b6101a261039e366004611884565b610ef7565b6101676201518081565b6101a26103bb366004611862565b611016565b6101676103ce3660046118ae565b61108c565b6103db611224565b6103e361127e565b565b6103ed611224565b6001600160a01b0382166000908152600360205260409020600101548290600160a01b900460ff1661043a5760405162461bcd60e51b8152600401610431906118e1565b60405180910390fd5b61138882111561048c5760405162461bcd60e51b815260206004820152601960248201527f5969656c645661756c743a205261746520746f6f2068696768000000000000006044820152606401610431565b610495836112d0565b6001600160a01b0383166000818152600660209081526040918290208054908690558251818152918201869052428284015291519192917fd23600e7153a695874591029b4bd63ab2a091d0f4d0e9e7a8c41f51f3786d1fc9181900360600190a250505050565b610504611224565b6103e360006113c6565b610516611224565b6103e3611416565b610526611453565b6001600160a01b0381166000908152600360205260409020600101548190600160a01b900460ff1661056a5760405162461bcd60e51b8152600401610431906118e1565b610573826112d0565b3360009081526004602090815260408083206001600160a01b0386168452909152902054806105db5760405162461bcd60e51b81526020600482015260146024820152735969656c645661756c743a204e6f207374616b6560601b6044820152606401610431565b3360009081526009602090815260408083206001600160a01b038716845290915290205461060d90620151809061192e565b42101561066f5760405162461bcd60e51b815260206004820152602a60248201527f5969656c645661756c743a204d696e696d756d207374616b65206475726174696044820152691bdb881b9bdd081b595d60b21b6064820152608401610431565b6001600160a01b038316600090815260056020526040902054806106d55760405162461bcd60e51b815260206004820152601a60248201527f5969656c645661756c743a204e6f20746f74616c207374616b650000000000006044820152606401610431565b6001600160a01b03841660009081526008602052604081205482906106fb908590611947565b610705919061195e565b9050600081116107575760405162461bcd60e51b815260206004820152601d60248201527f5969656c645661756c743a204e6f207969656c6420746f20636c61696d0000006044820152606401610431565b6001600160a01b0385166000908152600860205260408120805483929061077f908490611980565b90915550506001600160a01b03808616600090815260036020526040902060010154166107ad8133846114ac565b6001600160a01b038616600090815260036020819052604082200180548492906107d890849061192e565b9091555050604080518381524260208201526001600160a01b0388169133917fb10c79aa8ce52424b7676b33fe7b45ea2516b75f43f3b5c0c730e52ca8ef36a5910160405180910390a3505050505061083060018055565b50565b61083b611453565b610843611514565b6001600160a01b0382166000908152600360205260409020600101548290600160a01b900460ff166108875760405162461bcd60e51b8152600401610431906118e1565b600082116108a75760405162461bcd60e51b815260040161043190611993565b6108b0836112d0565b6108c56001600160a01b03841633308561155a565b3360009081526004602090815260408083206001600160a01b0387168452909152812080548492906108f890849061192e565b90915550506001600160a01b0383166000908152600560205260408120805484929061092590849061192e565b90915550506001600160a01b0383166000908152600360205260408120600201805484929061095590849061192e565b90915550503360009081526009602090815260408083206001600160a01b038716845290915281205490036109ab573360009081526009602090815260408083206001600160a01b038716845290915290204290555b604080518381524260208201526001600160a01b0385169133917f9b68f01b80e516179521925c1a690f13d1fe61c92ac2f10fc202fb1252d7f11191015b60405180910390a3506109fb60018055565b5050565b610a07611453565b6001600160a01b0382166000908152600360205260409020600101548290600160a01b900460ff16610a4b5760405162461bcd60e51b8152600401610431906118e1565b60008211610a6b5760405162461bcd60e51b815260040161043190611993565b3360009081526004602090815260408083206001600160a01b0387168452909152902054821115610ade5760405162461bcd60e51b815260206004820152601e60248201527f5969656c645661756c743a20496e73756666696369656e74207374616b6500006044820152606401610431565b610ae7836112d0565b3360009081526004602090815260408083206001600160a01b038716845290915281208054849290610b1a908490611980565b90915550506001600160a01b03831660009081526005602052604081208054849290610b47908490611980565b90915550503360009081526004602090815260408083206001600160a01b03871684529091528120549003610b9b573360009081526009602090815260408083206001600160a01b03871684529091528120555b610baf6001600160a01b03841633846114ac565b604080518381524260208201526001600160a01b0385169133917fd92ba5965367d6930d1ca05ed5e64effd4947d88c8e50f6de821bc9953b0126e91016109e9565b610bf9611224565b6001600160a01b038216610c595760405162461bcd60e51b815260206004820152602160248201527f5969656c645661756c743a20496e76616c696420726f79616c747920746f6b656044820152603760f91b6064820152608401610431565b6001600160a01b038116610caf5760405162461bcd60e51b815260206004820152601f60248201527f5969656c645661756c743a20496e76616c6964207969656c6420746f6b656e006044820152606401610431565b6001600160a01b038216600090815260036020526040902060010154600160a01b900460ff1615610d225760405162461bcd60e51b815260206004820152601860248201527f5969656c645661756c743a205661756c742065786973747300000000000000006044820152606401610431565b6002546040516352003f2760e01b81526001600160a01b038481166004830152600092610100900416906352003f2790602401602060405180830381865afa158015610d72573d6000803e3d6000fd5b505050506040513d601f19601f82011682018060405250810190610d9691906119ca565b905080600003610df65760405162461bcd60e51b815260206004820152602560248201527f5969656c645661756c743a204e6f7420612076616c696420726f79616c7479206044820152643a37b5b2b760d91b6064820152608401610431565b6040805160c0810182526001600160a01b038086168083528582166020808501828152600186880181815260006060890181815260808a018281524260a08c018181528a85526003808a528e86209d518e54908e166001600160a01b0319909116178e559751968d01805496511515600160a01b026001600160a81b031990971697909c1696909617949094179099555160028a0155965192880192909255516004909601959095556007815285842085905560069052918490206101f490559251339391927f4dda9a6d0ba03769e9813c47681795a7210f951e6ef31e64772e13b9ea0f140691610eea91815260200190565b60405180910390a4505050565b610eff611453565b6001600160a01b0382166000908152600360205260409020600101548290600160a01b900460ff16610f435760405162461bcd60e51b8152600401610431906118e1565b60008211610f635760405162461bcd60e51b815260040161043190611993565b6001600160a01b0380841660009081526003602052604090206001015416610f8d8133308661155a565b610f96846112d0565b6001600160a01b03841660009081526008602052604081208054859290610fbe90849061192e565b9091555050604080518481524260208201526001600160a01b0380841692908716917f45afc1f2190a9c643b622e703b26867b231ca9ec5626176f118eb6f693964528910160405180910390a350506109fb60018055565b61101e611224565b6001600160a01b0381166110835760405162461bcd60e51b815260206004820152602660248201527f4f776e61626c653a206e6577206f776e657220697320746865207a65726f206160448201526564647265737360d01b6064820152608401610431565b610830816113c6565b6001600160a01b0381166000908152600360205260408120600101548290600160a01b900460ff166110d05760405162461bcd60e51b8152600401610431906118e1565b6001600160a01b0380851660009081526004602090815260408083209387168352929052205480158061111957506001600160a01b038416600090815260056020526040902054155b1561112857600092505061121d565b6001600160a01b03841660009081526008602090815260408083205460079092528220549091906111599042611980565b6001600160a01b03871660009081526006602052604090205490915080158015906111845750600082115b156111e9576001600160a01b038716600090815260056020526040812054612710906111b1908490611947565b6111bb919061195e565b905060006301e133806111ce8584611947565b6111d8919061195e565b90506111e4818661192e565b945050505b6001600160a01b03871660009081526005602052604090205461120c8585611947565b611216919061195e565b9550505050505b5092915050565b6000546001600160a01b031633146103e35760405162461bcd60e51b815260206004820181905260248201527f4f776e61626c653a2063616c6c6572206973206e6f7420746865206f776e65726044820152606401610431565b611286611598565b6002805460ff191690557f5db9ee0a495bf2e6ff9c91a7834c1ba4fdd244a5e8aa4e537bd38aeae4b073aa335b6040516001600160a01b03909116815260200160405180910390a1565b6001600160a01b0381166000908152600760205260408120546112f39042611980565b6001600160a01b03831660009081526005602090815260408083205460069092529091205491925090801580159061132b5750600083115b80156113375750600082115b156113a757600061271061134b8385611947565b611355919061195e565b905060006301e133806113688684611947565b611372919061195e565b6001600160a01b03871660009081526008602052604081208054929350839290919061139f90849061192e565b909155505050505b5050506001600160a01b03166000908152600760205260409020429055565b600080546001600160a01b038381166001600160a01b0319831681178455604051919092169283917f8be0079c531659141344cd1fd0a4f28419497f9722a3daafe3b4186f6b6457e09190a35050565b61141e611514565b6002805460ff191660011790557f62e78cea01bee320cd4e420270b5ea74000d11b0c9f74754ebdbfc544b05a2586112b33390565b6002600154036114a55760405162461bcd60e51b815260206004820152601f60248201527f5265656e7472616e637947756172643a207265656e7472616e742063616c6c006044820152606401610431565b6002600155565b6040516001600160a01b03831660248201526044810182905261150f90849063a9059cbb60e01b906064015b60408051601f198184030181529190526020810180516001600160e01b03166001600160e01b0319909316929092179091526115e1565b505050565b60025460ff16156103e35760405162461bcd60e51b815260206004820152601060248201526f14185d5cd8589b194e881c185d5cd95960821b6044820152606401610431565b6040516001600160a01b03808516602483015283166044820152606481018290526115929085906323b872dd60e01b906084016114d8565b50505050565b60025460ff166103e35760405162461bcd60e51b815260206004820152601460248201527314185d5cd8589b194e881b9bdd081c185d5cd95960621b6044820152606401610431565b6000611636826040518060400160405280602081526020017f5361666545524332303a206c6f772d6c6576656c2063616c6c206661696c6564815250856001600160a01b03166116b69092919063ffffffff16565b905080516000148061165757508080602001905181019061165791906119e3565b61150f5760405162461bcd60e51b815260206004820152602a60248201527f5361666545524332303a204552433230206f7065726174696f6e20646964206e6044820152691bdd081cdd58d8d9595960b21b6064820152608401610431565b60606116c584846000856116cd565b949350505050565b60608247101561172e5760405162461bcd60e51b815260206004820152602660248201527f416464726573733a20696e73756666696369656e742062616c616e636520666f6044820152651c8818d85b1b60d21b6064820152608401610431565b600080866001600160a01b0316858760405161174a9190611a29565b60006040518083038185875af1925050503d8060008114611787576040519150601f19603f3d011682016040523d82523d6000602084013e61178c565b606091505b509150915061179d878383876117a8565b979650505050505050565b60608315611817578251600003611810576001600160a01b0385163b6118105760405162461bcd60e51b815260206004820152601d60248201527f416464726573733a2063616c6c20746f206e6f6e2d636f6e74726163740000006044820152606401610431565b50816116c5565b6116c5838381511561182c5781518083602001fd5b8060405162461bcd60e51b81526004016104319190611a45565b80356001600160a01b038116811461185d57600080fd5b919050565b60006020828403121561187457600080fd5b61187d82611846565b9392505050565b6000806040838503121561189757600080fd5b6118a083611846565b946020939093013593505050565b600080604083850312156118c157600080fd5b6118ca83611846565b91506118d860208401611846565b90509250929050565b6020808252601c908201527f5969656c645661756c743a205661756c74206e6f742061637469766500000000604082015260600190565b634e487b7160e01b600052601160045260246000fd5b8082018082111561194157611941611918565b92915050565b808202811582820484141761194157611941611918565b60008261197b57634e487b7160e01b600052601260045260246000fd5b500490565b8181038181111561194157611941611918565b6020808252601a908201527f5969656c645661756c743a20496e76616c696420616d6f756e74000000000000604082015260600190565b6000602082840312156119dc57600080fd5b5051919050565b6000602082840312156119f557600080fd5b8151801515811461187d57600080fd5b60005b83811015611a20578181015183820152602001611a08565b50506000910152565b60008251611a3b818460208701611a05565b9190910192915050565b6020815260008251806020840152611a64816040850160208701611a05565b601f01601f1916919091016040019291505056fea26469706673582212204c6cd4b86504f3db8e09661f7771e9e85a51cc1cc804bb991757fbefaf05f60264736f6c63430008140033",
  "linkReferences": {},
  "deployedLinkReferences": {}
}