{
  "_format": "hh-sol-artifact-1",
  "contractName": "Fractionalizer",
  "sourceName": "contracts/Fractionalizer.sol",
  "abi": [
    {
      "inputs": [
        {
          "internalType": "address",
          "name": "initialOwner",
          "type": "address"
        },
        {
          "internalType": "address",
          "name": "_ipRegistryAdapter",
          "type": "address"
        }
      ],
      "stateMutability": "nonpayable",
      "type": "constructor"
    },
    {
      "anonymous": false,
      "inputs": [
        {
          "indexed": true,
          "internalType": "uint256",
          "name": "dippChainId",
          "type": "uint256"
        },
        {
          "indexed": true,
          "internalType": "address",
          "name": "royaltyToken",
          "type": "address"
        },
        {
          "indexed": true,
          "internalType": "address",
          "name": "owner",
          "type": "address"
        },
        {
          "indexed": false,
          "internalType": "uint256",
          "name": "totalSupply",
          "type": "uint256"
        },
        {
          "indexed": false,
          "internalType": "bool",
          "name": "isLocked",
          "type": "bool"
        },
        {
          "indexed": false,
          "internalType": "uint256",
          "name": "timestamp",
          "type": "uint256"
        }
      ],
      "name": "IPFractionalized",
      "type": "event"
    },
    {
      "anonymous": false,
      "inputs": [
        {
          "indexed": true,
          "internalType": "uint256",
          "name": "dippChainId",
          "type": "uint256"
        },
        {
          "indexed": true,
          "internalType": "address",
          "name": "nftContract",
          "type": "address"
        },
        {
          "indexed": true,
          "internalType": "uint256",
          "name": "tokenId",
          "type": "uint256"
        },
        {
          "indexed": false,
          "internalType": "uint256",
          "name": "timestamp",
          "type": "uint256"
        }
      ],
      "name": "NFTLocked",
      "type": "event"
    },
    {
      "anonymous": false,
      "inputs": [
        {
          "indexed": true,
          "internalType": "uint256",
          "name": "dippChainId",
          "type": "uint256"
        },
        {
          "indexed": true,
          "internalType": "address",
          "name": "nftContract",
          "type": "address"
        },
        {
          "indexed": true,
          "internalType": "uint256",
          "name": "tokenId",
          "type": "uint256"
        },
        {
          "indexed": false,
          "internalType": "address",
          "name": "returnedTo",
          "type": "address"
        },
        {
          "indexed": false,
          "internalType": "uint256",
          "name": "timestamp",
          "type": "uint256"
        }
      ],
      "name": "NFTUnlocked",
      "type": "event"
    },
    {
      "anonymous": false,
      "inputs": [
        {
          "indexed": true,
          "internalType": "address",
          "name": "previousOwner",
          "type": "address"
        },
        {
          "indexed": true,
          "internalType": "address",
          "name": "newOwner",
          "type": "address"
        }
      ],
      "name": "OwnershipTransferred",
      "type": "event"
    },
    {
      "anonymous": false,
      "inputs": [
        {
          "indexed": false,
          "internalType": "address",
          "name": "account",
          "type": "address"
        }
      ],
      "name": "Paused",
      "type": "event"
    },
    {
      "anonymous": false,
      "inputs": [
        {
          "indexed": false,
          "internalType": "address",
          "name": "account",
          "type": "address"
        }
      ],
      "name": "Unpaused",
      "type": "event"
    },
    {
      "inputs": [
        {
          "internalType": "uint256",
          "name": "dippChainId",
          "type": "uint256"
        },
        {
          "internalType": "uint256",
          "name": "totalSupply",
          "type": "uint256"
        },
        {
          "internalType": "string",
          "name": "tokenName",
          "type": "string"
        },
        {
          "internalType": "string",
          "name": "tokenSymbol",
          "type": "string"
        },
        {
          "internalType": "bool",
          "name": "lockNFT",
          "type": "bool"
        }
      ],
      "name": "fractionalize",
      "outputs": [
        {
          "internalType": "address",
          "name": "royaltyToken",
          "type": "address"
        }
      ],
      "stateMutability": "nonpayable",
      "type": "function"
    },
    {
      "inputs": [
        {
          "internalType": "uint256",
          "name": "",
          "type": "uint256"
        }
      ],
      "name": "fractionalizedIPs",
      "outputs": [
        {
          "internalType": "uint256",
          "name": "dippChainId",
          "type": "uint256"
        },
        {
          "internalType": "address",
          "name": "royaltyToken",
          "type": "address"
        },
        {
          "internalType": "uint256",
          "name": "totalSupply",
          "type": "uint256"
        },
        {
          "internalType": "uint256",
          "name": "lockedAt",
          "type": "uint256"
        },
        {
          "internalType": "address",
          "name": "originalOwner",
          "type": "address"
        },
        {
          "internalType": "bool",
          "name": "isLocked",
          "type": "bool"
        },
        {
          "internalType": "address",
          "name": "storyNftContract",
          "type": "address"
        },
        {
          "internalType": "uint256",
          "name": "storyTokenId",
          "type": "uint256"
        }
      ],
      "stateMutability": "view",
      "type": "function"
    },
    {
      "inputs": [
        {
          "internalType": "address",
          "name": "royaltyToken",
          "type": "address"
        }
      ],
      "name": "getDippChainId",
      "outputs": [
        {
          "internalType": "uint256",
          "name": "dippChainId",
          "type": "uint256"
        }
      ],
      "stateMutability": "view",
      "type": "function"
    },
    {
      "inputs": [
        {
          "internalType": "uint256",
          "name": "dippChainId",
          "type": "uint256"
        }
      ],
      "name": "getFractionalizedIP",
      "outputs": [
        {
          "components": [
            {
              "internalType": "uint256",
              "name": "dippChainId",
              "type": "uint256"
            },
            {
              "internalType": "address",
              "name": "royaltyToken",
              "type": "address"
            },
            {
              "internalType": "uint256",
              "name": "totalSupply",
              "type": "uint256"
            },
            {
              "internalType": "uint256",
              "name": "lockedAt",
              "type": "uint256"
            },
            {
              "internalType": "address",
              "name": "originalOwner",
              "type": "address"
            },
            {
              "internalType": "bool",
              "name": "isLocked",
              "type": "bool"
            },
            {
              "internalType": "address",
              "name": "storyNftContract",
              "type": "address"
            },
            {
              "internalType": "uint256",
              "name": "storyTokenId",
              "type": "uint256"
            }
          ],
          "internalType": "struct Fractionalizer.FractionalizedIP",
          "name": "fip",
          "type": "tuple"
        }
      ],
      "stateMutability": "view",
      "type": "function"
    },
    {
      "inputs": [],
      "name": "ipRegistryAdapter",
      "outputs": [
        {
          "internalType": "contract IPRegistryAdapter",
          "name": "",
          "type": "address"
        }
      ],
      "stateMutability": "view",
      "type": "function"
    },
    {
      "inputs": [
        {
          "internalType": "uint256",
          "name": "",
          "type": "uint256"
        }
      ],
      "name": "isFractionalized",
      "outputs": [
        {
          "internalType": "bool",
          "name": "",
          "type": "bool"
        }
      ],
      "stateMutability": "view",
      "type": "function"
    },
    {
      "inputs": [
        {
          "internalType": "uint256",
          "name": "dippChainId",
          "type": "uint256"
        }
      ],
      "name": "lockNFT",
      "outputs": [],
      "stateMutability": "nonpayable",
      "type": "function"
    },
    {
      "inputs": [
        {
          "internalType": "address",
          "name": "",
          "type": "address"
        },
        {
          "internalType": "address",
          "name": "",
          "type": "address"
        },
        {
          "internalType": "uint256",
          "name": "",
          "type": "uint256"
        },
        {
          "internalType": "bytes",
          "name": "",
          "type": "bytes"
        }
      ],
      "name": "onERC721Received",
      "outputs": [
        {
          "internalType": "bytes4",
          "name": "",
          "type": "bytes4"
        }
      ],
      "stateMutability": "pure",
      "type": "function"
    },
    {
      "inputs": [],
      "name": "owner",
      "outputs": [
        {
          "internalType": "address",
          "name": "",
          "type": "address"
        }
      ],
      "stateMutability": "view",
      "type": "function"
    },
    {
      "inputs": [],
      "name": "pause",
      "outputs": [],
      "stateMutability": "nonpayable",
      "type": "function"
    },
    {
      "inputs": [],
      "name": "paused",
      "outputs": [
        {
          "internalType": "bool",
          "name": "",
          "type": "bool"
        }
      ],
      "stateMutability": "view",
      "type": "function"
    },
    {
      "inputs": [],
      "name": "renounceOwnership",
      "outputs": [],
      "stateMutability": "nonpayable",
      "type": "function"
    },
    {
      "inputs": [
        {
          "internalType": "address",
          "name": "",
          "type": "address"
        }
      ],
      "name": "tokenToDippChain",
      "outputs": [
        {
          "internalType": "uint256",
          "name": "",
          "type": "uint256"
        }
      ],
      "stateMutability": "view",
      "type": "function"
    },
    {
      "inputs": [
        {
          "internalType": "address",
          "name": "newOwner",
          "type": "address"
        }
      ],
      "name": "transferOwnership",
      "outputs": [],
      "stateMutability": "nonpayable",
      "type": "function"
    },
    {
      "inputs": [
        {
          "internalType": "uint256",
          "name": "dippChainId",
          "type": "uint256"
        }
      ],
      "name": "unlockNFT",
      "outputs": [],
      "stateMutability": "nonpayable",
      "type": "function"
    },
    {
      "inputs": [],
      "name": "unpause",
      "outputs": [],
      "stateMutability": "nonpayable",
      "type": "function"
    }
  ],
  "bytecode": "0x60806040523480156200001157600080fd5b50604051620050e0380380620050e083398101604081905262000034916200014d565b6200003f33620000e0565b600180556002805460ff191690556200005882620000e0565b6001600160a01b038116620000b35760405162461bcd60e51b815260206004820152601f60248201527f4672616374696f6e616c697a65723a20496e76616c6964206164617074657200604482015260640160405180910390fd5b600280546001600160a01b0390921661010002610100600160a81b03199092169190911790555062000185565b600080546001600160a01b038381166001600160a01b0319831681178455604051919092169283917f8be0079c531659141344cd1fd0a4f28419497f9722a3daafe3b4186f6b6457e09190a35050565b80516001600160a01b03811681146200014857600080fd5b919050565b600080604083850312156200016157600080fd5b6200016c8362000130565b91506200017c6020840162000130565b90509250929050565b614f4b80620001956000396000f3fe60806040523480156200001157600080fd5b5060043610620001155760003560e01c80638da5cb5b11620000a3578063e00c8d19116200006e578063e00c8d191462000316578063f2fde38b146200032d578063f599506e1462000344578063f826276c14620003cf57600080fd5b80638da5cb5b14620001fc578063a489f6751462000222578063afc46728146200023b578063b86b19de14620002f057600080fd5b806352003f2711620000e457806352003f2714620001a45780635c975abb14620001d0578063715018a614620001e85780638456cb5914620001f257600080fd5b8063023117cd146200011a578063150b7a0214620001505780632b7170d014620001815780633f4ba83a146200019a575b600080fd5b6200013d6200012b36600462001809565b60056020526000908152604090205481565b6040519081526020015b60405180910390f35b620001676200016136600462001830565b620003e6565b6040516001600160e01b0319909116815260200162000147565b6200019862000192366004620018d8565b620003f8565b005b6200019862000783565b6200013d620001b536600462001809565b6001600160a01b031660009081526005602052604090205490565b60025460ff165b604051901515815260200162000147565b6200019862000799565b62000198620007af565b6000546001600160a01b03165b6040516001600160a01b03909116815260200162000147565b600254620002099061010090046001600160a01b031681565b620002a56200024c366004620018d8565b6003602081905260009182526040909120805460018201546002830154938301546004840154600585015460069095015493956001600160a01b03938416959094929380831693600160a01b90930460ff169291169088565b604080519889526001600160a01b0397881660208a015288019590955260608701939093529084166080860152151560a085015290911660c083015260e08201526101000162000147565b620001d762000301366004620018d8565b60046020526000908152604090205460ff1681565b6200020962000327366004620019ff565b620007c3565b620001986200033e36600462001809565b62001022565b6200035b62000355366004620018d8565b6200109e565b60405162000147919060006101008201905082518252602083015160018060a01b038082166020850152604085015160408501526060850151606085015280608086015116608085015260a0850151151560a08501528060c08601511660c0850152505060e083015160e083015292915050565b62000198620003e0366004620018d8565b62001191565b630a85bd0160e11b5b95945050505050565b62000402620015b7565b6200040c62001612565b600081815260036020908152604080832060049092529091205460ff16620004515760405162461bcd60e51b8152600401620004489062001a94565b60405180910390fd5b6004810154600160a01b900460ff1615620004af5760405162461bcd60e51b815260206004820152601e60248201527f4672616374696f6e616c697a65723a20416c7265616479206c6f636b65640000604482015260640162000448565b600581015460068201546040516331a9108f60e11b81526001600160a01b03909216916000918391636352211e91620004ee9160040190815260200190565b602060405180830381865afa1580156200050c573d6000803e3d6000fd5b505050506040513d601f19601f8201168201806040525081019062000532919062001ae8565b90506001600160a01b038116331480620005cc5750600683015460405163020604bf60e21b815233916001600160a01b0385169163081812fc916200057d9160040190815260200190565b602060405180830381865afa1580156200059b573d6000803e3d6000fd5b505050506040513d601f19601f82011682018060405250810190620005c1919062001ae8565b6001600160a01b0316145b8062000646575060405163e985e9c560e01b81526001600160a01b03828116600483015233602483015283169063e985e9c590604401602060405180830381865afa15801562000620573d6000803e3d6000fd5b505050506040513d601f19601f8201168201806040525081019062000646919062001b15565b620006945760405162461bcd60e51b815260206004820152601e60248201527f4672616374696f6e616c697a65723a204e6f7420617574686f72697a65640000604482015260640162000448565b6006830154604051632142170760e11b815233600482015230602482015260448101919091526001600160a01b038316906342842e0e90606401600060405180830381600087803b158015620006e957600080fd5b505af1158015620006fe573d6000803e3d6000fd5b50505060048401805460ff60a01b1916600160a01b1790555042600384018190556006840154600585015460405191926001600160a01b039091169187917ffcef9918dd8612dffec5dd5992e3eb56ce5fc1cff031c18f70695108f6c9fa60916200076b91815260200190565b60405180910390a45050506200078060018055565b50565b6200078d6200165a565b62000797620016b6565b565b620007a36200165a565b6200079760006200170a565b620007b96200165a565b620007976200175a565b6000620007cf620015b7565b620007d962001612565b60008681526004602052604090205460ff1615620008495760405162461bcd60e51b815260206004820152602660248201527f4672616374696f6e616c697a65723a20416c7265616479206672616374696f6e604482015265185b1a5e995960d21b606482015260840162000448565b600085116200089b5760405162461bcd60e51b815260206004820152601e60248201527f4672616374696f6e616c697a65723a20496e76616c696420737570706c790000604482015260640162000448565b6000845111620008ee5760405162461bcd60e51b815260206004820152601d60248201527f4672616374696f6e616c697a65723a204e616d65207265717569726564000000604482015260640162000448565b6000835111620009415760405162461bcd60e51b815260206004820152601f60248201527f4672616374696f6e616c697a65723a2053796d626f6c20726571756972656400604482015260640162000448565b600254604051634f558e7960e01b8152600481018890526101009091046001600160a01b031690634f558e7990602401602060405180830381865afa1580156200098f573d6000803e3d6000fd5b505050506040513d601f19601f82011682018060405250810190620009b5919062001b15565b62000a035760405162461bcd60e51b815260206004820152601a60248201527f4672616374696f6e616c697a65723a20496e76616c6964204950000000000000604482015260640162000448565b60025460405163295d33a960e21b81526004810188905260009161010090046001600160a01b03169063a574cea490602401600060405180830381865afa15801562000a53573d6000803e3d6000fd5b505050506040513d6000823e601f3d908101601f1916820160405262000a7d919081019062001c5a565b90508060e0015162000ad25760405162461bcd60e51b815260206004820152601d60248201527f4672616374696f6e616c697a65723a204950206e6f7420616374697665000000604482015260640162000448565b600254604051632c1acbb360e11b81526004810189905260009182916101009091046001600160a01b0316906358359766906024016040805180830381865afa15801562000b24573d6000803e3d6000fd5b505050506040513d601f19601f8201168201806040525081019062000b4a919062001d57565b6040516331a9108f60e11b815260048101829052919350915082906000906001600160a01b03831690636352211e90602401602060405180830381865afa15801562000b9a573d6000803e3d6000fd5b505050506040513d601f19601f8201168201806040525081019062000bc0919062001ae8565b90506001600160a01b03811633148062000c4e575060405163020604bf60e21b81526004810184905233906001600160a01b0384169063081812fc90602401602060405180830381865afa15801562000c1d573d6000803e3d6000fd5b505050506040513d601f19601f8201168201806040525081019062000c43919062001ae8565b6001600160a01b0316145b8062000cc8575060405163e985e9c560e01b81526001600160a01b03828116600483015233602483015283169063e985e9c590604401602060405180830381865afa15801562000ca2573d6000803e3d6000fd5b505050506040513d601f19601f8201168201806040525081019062000cc8919062001b15565b62000d165760405162461bcd60e51b815260206004820152601e60248201527f4672616374696f6e616c697a65723a204e6f7420617574686f72697a65640000604482015260640162000448565b600089898c3360405162000d2a90620017e5565b62000d39949392919062001db6565b604051809103906000f08015801562000d56573d6000803e3d6000fd5b5090506000881562000dce57604051632142170760e11b8152336004820152306024820152604481018690526001600160a01b038516906342842e0e90606401600060405180830381600087803b15801562000db157600080fd5b505af115801562000dc6573d6000803e3d6000fd5b505050504290505b6040518061010001604052808e8152602001836001600160a01b031681526020018d8152602001828152602001336001600160a01b031681526020018a15158152602001876001600160a01b0316815260200186815250600360008f81526020019081526020016000206000820151816000015560208201518160010160006101000a8154816001600160a01b0302191690836001600160a01b03160217905550604082015181600201556060820151816003015560808201518160040160006101000a8154816001600160a01b0302191690836001600160a01b0316021790555060a08201518160040160146101000a81548160ff02191690831515021790555060c08201518160050160006101000a8154816001600160a01b0302191690836001600160a01b0316021790555060e082015181600601559050506001600460008f815260200190815260200160002060006101000a81548160ff0219169083151502179055508c60056000846001600160a01b03166001600160a01b0316815260200190815260200160002081905550336001600160a01b0316826001600160a01b03168e7f43450277585efa6618f3fe20e4e7253c6de3d37ca53948a9d5af57b9bad055938f8d4260405162000fba939291909283529015156020830152604082015260600190565b60405180910390a48815620010105784866001600160a01b03168e7ffcef9918dd8612dffec5dd5992e3eb56ce5fc1cff031c18f70695108f6c9fa60426040516200100791815260200190565b60405180910390a45b5095505050505050620003ef60018055565b6200102c6200165a565b6001600160a01b038116620010935760405162461bcd60e51b815260206004820152602660248201527f4f776e61626c653a206e6577206f776e657220697320746865207a65726f206160448201526564647265737360d01b606482015260840162000448565b62000780816200170a565b6040805161010081018252600080825260208201819052918101829052606081018290526080810182905260a0810182905260c0810182905260e081019190915260008281526004602052604090205460ff16620011105760405162461bcd60e51b8152600401620004489062001a94565b506000908152600360208181526040928390208351610100810185528154815260018201546001600160a01b039081169382019390935260028201549481019490945291820154606084015260048201548082166080850152600160a01b900460ff16151560a084015260058201541660c08301526006015460e082015290565b6200119b620015b7565b620011a562001612565b600081815260036020908152604080832060049092529091205460ff16620011e15760405162461bcd60e51b8152600401620004489062001a94565b6004810154600160a01b900460ff166200123e5760405162461bcd60e51b815260206004820152601a60248201527f4672616374696f6e616c697a65723a204e6f74206c6f636b6564000000000000604482015260640162000448565b600581015460068201546040516331a9108f60e11b81526001600160a01b039092169130918391636352211e916200127c9160040190815260200190565b602060405180830381865afa1580156200129a573d6000803e3d6000fd5b505050506040513d601f19601f82011682018060405250810190620012c0919062001ae8565b6001600160a01b031614620013185760405162461bcd60e51b815260206004820152601e60248201527f4672616374696f6e616c697a65723a204e4654206e6f74206c6f636b65640000604482015260640162000448565b60048201546001600160a01b03163314620013815760405162461bcd60e51b815260206004820152602260248201527f4672616374696f6e616c697a65723a204e6f74206f726967696e616c206f776e60448201526132b960f11b606482015260840162000448565b60018201546040516370a0823160e01b81523360048201526001600160a01b039091169060009082906370a0823190602401602060405180830381865afa158015620013d1573d6000803e3d6000fd5b505050506040513d601f19601f82011682018060405250810190620013f7919062001e01565b90506000826001600160a01b03166318160ddd6040518163ffffffff1660e01b8152600401602060405180830381865afa1580156200143a573d6000803e3d6000fd5b505050506040513d601f19601f8201168201806040525081019062001460919062001e01565b9050806200147083600262001e1b565b11620014d45760405162461bcd60e51b815260206004820152602c60248201527f4672616374696f6e616c697a65723a20496e73756666696369656e7420746f6b60448201526b0656e206f776e6572736869760a41b606482015260840162000448565b6006850154604051632142170760e11b815230600482015233602482015260448101919091526001600160a01b038516906342842e0e90606401600060405180830381600087803b1580156200152957600080fd5b505af11580156200153e573d6000803e3d6000fd5b5050505060048501805460ff60a01b191690556000600386015560068501546005860154604080513381524260208201526001600160a01b039092169189917f1cace7836473c9cbc2ec6d37330c509b533d8bdffe12e2643958efc951ecb1c5910160405180910390a450505050506200078060018055565b6002600154036200160b5760405162461bcd60e51b815260206004820152601f60248201527f5265656e7472616e637947756172643a207265656e7472616e742063616c6c00604482015260640162000448565b6002600155565b60025460ff1615620007975760405162461bcd60e51b815260206004820152601060248201526f14185d5cd8589b194e881c185d5cd95960821b604482015260640162000448565b6000546001600160a01b03163314620007975760405162461bcd60e51b815260206004820181905260248201527f4f776e61626c653a2063616c6c6572206973206e6f7420746865206f776e6572604482015260640162000448565b620016c06200179a565b6002805460ff191690557f5db9ee0a495bf2e6ff9c91a7834c1ba4fdd244a5e8aa4e537bd38aeae4b073aa335b6040516001600160a01b03909116815260200160405180910390a1565b600080546001600160a01b038381166001600160a01b0319831681178455604051919092169283917f8be0079c531659141344cd1fd0a4f28419497f9722a3daafe3b4186f6b6457e09190a35050565b6200176462001612565b6002805460ff191660011790557f62e78cea01bee320cd4e420270b5ea74000d11b0c9f74754ebdbfc544b05a258620016ed3390565b60025460ff16620007975760405162461bcd60e51b815260206004820152601460248201527314185d5cd8589b194e881b9bdd081c185d5cd95960621b604482015260640162000448565b6130ce8062001e4883390190565b6001600160a01b03811681146200078057600080fd5b6000602082840312156200181c57600080fd5b81356200182981620017f3565b9392505050565b6000806000806000608086880312156200184957600080fd5b85356200185681620017f3565b945060208601356200186881620017f3565b935060408601359250606086013567ffffffffffffffff808211156200188d57600080fd5b818801915088601f830112620018a257600080fd5b813581811115620018b257600080fd5b896020828501011115620018c557600080fd5b9699959850939650602001949392505050565b600060208284031215620018eb57600080fd5b5035919050565b634e487b7160e01b600052604160045260246000fd5b604051610100810167ffffffffffffffff811182821017156200192f576200192f620018f2565b60405290565b604051601f8201601f1916810167ffffffffffffffff81118282101715620019615762001961620018f2565b604052919050565b600067ffffffffffffffff821115620019865762001986620018f2565b50601f01601f191660200190565b600082601f830112620019a657600080fd5b8135620019bd620019b78262001969565b62001935565b818152846020838601011115620019d357600080fd5b816020850160208301376000918101602001919091529392505050565b80151581146200078057600080fd5b600080600080600060a0868803121562001a1857600080fd5b8535945060208601359350604086013567ffffffffffffffff8082111562001a3f57600080fd5b62001a4d89838a0162001994565b9450606088013591508082111562001a6457600080fd5b5062001a738882890162001994565b925050608086013562001a8681620019f0565b809150509295509295909350565b60208082526022908201527f4672616374696f6e616c697a65723a204e6f74206672616374696f6e616c697a604082015261195960f21b606082015260800190565b805162001ae381620017f3565b919050565b60006020828403121562001afb57600080fd5b81516200182981620017f3565b805162001ae381620019f0565b60006020828403121562001b2857600080fd5b81516200182981620019f0565b60005b8381101562001b5257818101518382015260200162001b38565b50506000910152565b600082601f83011262001b6d57600080fd5b815162001b7e620019b78262001969565b81815284602083860101111562001b9457600080fd5b62001ba782602083016020870162001b35565b949350505050565b600082601f83011262001bc157600080fd5b8151602067ffffffffffffffff8083111562001be15762001be1620018f2565b8260051b62001bf283820162001935565b938452858101830193838101908886111562001c0d57600080fd5b84880192505b8583101562001c4e5782518481111562001c2d5760008081fd5b62001c3d8a87838c010162001b5b565b835250918401919084019062001c13565b98975050505050505050565b60006020828403121562001c6d57600080fd5b815167ffffffffffffffff8082111562001c8657600080fd5b90830190610100828603121562001c9c57600080fd5b62001ca662001908565b62001cb18362001ad6565b81526020830151602082015260408301518281111562001cd057600080fd5b62001cde8782860162001b5b565b60408301525060608301518281111562001cf757600080fd5b62001d058782860162001baf565b60608301525062001d196080840162001b08565b608082015260a083015160a082015262001d3660c0840162001ad6565b60c082015262001d4960e0840162001b08565b60e082015295945050505050565b6000806040838503121562001d6b57600080fd5b825162001d7881620017f3565b6020939093015192949293505050565b6000815180845262001da281602086016020860162001b35565b601f01601f19169290920160200192915050565b60808152600062001dcb608083018762001d88565b828103602084015262001ddf818762001d88565b604084019590955250506001600160a01b039190911660609091015292915050565b60006020828403121562001e1457600080fd5b5051919050565b808202811582820484141762001e4157634e487b7160e01b600052601160045260246000fd5b9291505056fe6101606040523480156200001257600080fd5b50604051620030ce380380620030ce833981016040819052620000359162000a63565b6040805180820190915260018152603160f81b6020820152849081908186600362000061838262000b86565b50600462000070828262000b86565b5062000082915083905060056200014c565b61012052620000938160066200014c565b61014052815160208084019190912060e052815190820120610100524660a0526200012160e05161010051604080517f8b73c3c69bb8fe3d512ecc4cf759cc79239f7b179b0ffacaa9a75d522b39400f60208201529081019290925260608201524660808201523060a082015260009060c00160405160208183030381529060405280519060200120905090565b60805250503060c0525062000137818362000185565b6200014162000195565b505050505062000d04565b60006020835110156200016c576200016483620001f3565b90506200017f565b8162000179848262000b86565b5060ff90505b92915050565b6200019182826200023f565b5050565b6000620001a6600f80546001019055565b6000620001b2620002e7565b90507f8030e83b04d87bef53480e26263266d6ca66863aa8506aca6f2559d18aa1cb6781604051620001e691815260200190565b60405180910390a1919050565b600080829050601f815111156200022a578260405163305a27a960e01b815260040162000221919062000c52565b60405180910390fd5b8051620002378262000c87565b179392505050565b6200024b8282620002f8565b6001600160e01b036200025f620003d38216565b1115620002c85760405162461bcd60e51b815260206004820152603060248201527f4552433230566f7465733a20746f74616c20737570706c79207269736b73206f60448201526f766572666c6f77696e6720766f74657360801b606482015260840162000221565b620002e1600b62000cbf620003d960201b1783620003ee565b50505050565b6000620002f3600f5490565b905090565b6001600160a01b038216620003505760405162461bcd60e51b815260206004820152601f60248201527f45524332303a206d696e7420746f20746865207a65726f206164647265737300604482015260640162000221565b6200035e6000838362000576565b806002600082825462000372919062000cc2565b90915550506001600160a01b038216600081815260208181526040808320805486019055518481527fddf252ad1be2c89b69c2b068fc378daa952ba7f163c4a11628f55a4df523b3ef910160405180910390a3620001916000838362000588565b60025490565b6000620003e7828462000cc2565b9392505050565b825460009081908181156200043d5760008781526020902082016000190160408051808201909152905463ffffffff8116825264010000000090046001600160e01b0316602082015262000452565b60408051808201909152600080825260208201525b905080602001516001600160e01b031693506200047084868860201c565b92506000821180156200049d57506200048862000595565b65ffffffffffff16816000015163ffffffff16145b15620004e657620004ae83620005a2565b60008881526020902083016000190180546001600160e01b03929092166401000000000263ffffffff9092169190911790556200056c565b86604051806040016040528062000514620005066200059560201b60201c565b65ffffffffffff1662000611565b63ffffffff1681526020016200052a86620005a2565b6001600160e01b0390811690915282546001810184556000938452602093849020835194909301519091166401000000000263ffffffff909316929092179101555b5050935093915050565b6200058383838362000678565b505050565b62000583838383620006cc565b6000620002f34362000700565b60006001600160e01b038211156200060d5760405162461bcd60e51b815260206004820152602760248201527f53616665436173743a2076616c756520646f65736e27742066697420696e20326044820152663234206269747360c81b606482015260840162000221565b5090565b600063ffffffff8211156200060d5760405162461bcd60e51b815260206004820152602660248201527f53616665436173743a2076616c756520646f65736e27742066697420696e203360448201526532206269747360d01b606482015260840162000221565b6001600160a01b0383166200069c57620006928262000769565b62000583620007a1565b6001600160a01b038216620006b657620006928362000769565b620006c18362000769565b620005838262000769565b6001600160a01b038381166000908152600960205260408082205485841683529120546200058392918216911683620007b3565b600065ffffffffffff8211156200060d5760405162461bcd60e51b815260206004820152602660248201527f53616665436173743a2076616c756520646f65736e27742066697420696e203460448201526538206269747360d01b606482015260840162000221565b6001600160a01b0381166000908152600c6020908152604080832091839052909120546200079e9190620008ee565b620008ee565b50565b620007b1600d6200079860025490565b565b816001600160a01b0316836001600160a01b031614158015620007d65750600081115b1562000583576001600160a01b0383161562000863576001600160a01b0383166000908152600a60209081526040822082916200082091906200093d901b62000ccb1785620003ee565b91509150846001600160a01b0316600080516020620030ae833981519152838360405162000858929190918252602082015260400190565b60405180910390a250505b6001600160a01b0382161562000583576001600160a01b0382166000908152600a6020908152604082208291620008a79190620003d9901b62000cbf1785620003ee565b91509150836001600160a01b0316600080516020620030ae8339815191528383604051620008df929190918252602082015260400190565b60405180910390a25050505050565b6000620008fa620002e7565b90508062000908846200094b565b101562000583578254600180820185556000858152602080822090930193909355938401805494850181558252902090910155565b6000620003e7828462000cd8565b805460009081036200095f57506000919050565b81548290620009719060019062000cd8565b8154811062000984576200098462000cee565b90600052602060002001549050919050565b634e487b7160e01b600052604160045260246000fd5b60005b83811015620009c9578181015183820152602001620009af565b50506000910152565b600082601f830112620009e457600080fd5b81516001600160401b038082111562000a015762000a0162000996565b604051601f8301601f19908116603f0116810190828211818310171562000a2c5762000a2c62000996565b8160405283815286602085880101111562000a4657600080fd5b62000a59846020830160208901620009ac565b9695505050505050565b6000806000806080858703121562000a7a57600080fd5b84516001600160401b038082111562000a9257600080fd5b62000aa088838901620009d2565b9550602087015191508082111562000ab757600080fd5b5062000ac687828801620009d2565b60408701516060880151919550935090506001600160a01b038116811462000aed57600080fd5b939692955090935050565b600181811c9082168062000b0d57607f821691505b60208210810362000b2e57634e487b7160e01b600052602260045260246000fd5b50919050565b601f8211156200058357600081815260208120601f850160051c8101602086101562000b5d5750805b601f850160051c820191505b8181101562000b7e5782815560010162000b69565b505050505050565b81516001600160401b0381111562000ba25762000ba262000996565b62000bba8162000bb3845462000af8565b8462000b34565b602080601f83116001811462000bf2576000841562000bd95750858301515b600019600386901b1c1916600185901b17855562000b7e565b600085815260208120601f198616915b8281101562000c235788860151825594840194600190910190840162000c02565b508582101562000c425787850151600019600388901b60f8161c191681555b5050505050600190811b01905550565b602081526000825180602084015262000c73816040850160208701620009ac565b601f01601f19169190910160400192915050565b8051602080830151919081101562000b2e5760001960209190910360031b1b16919050565b634e487b7160e01b600052601160045260246000fd5b808201808211156200017f576200017f62000cac565b818103818111156200017f576200017f62000cac565b634e487b7160e01b600052603260045260246000fd5b60805160a05160c05160e05161010051610120516101405161234f62000d5f60003960006107650152600061073a01526000611104015260006110dc01526000611037015260006110610152600061108b015261234f6000f3fe608060405234801561001057600080fd5b50600436106101c45760003560e01c80637ecebe00116100f95780639ab24eb011610097578063c3cda52011610071578063c3cda520146103ed578063d505accf14610400578063dd62ed3e14610413578063f1127ed81461042657600080fd5b80639ab24eb0146103b4578063a457c2d7146103c7578063a9059cbb146103da57600080fd5b806391ddadf4116100d357806391ddadf41461037257806395d89b41146103915780639711715a14610399578063981b24d0146103a157600080fd5b80637ecebe001461033157806384b0196e146103445780638e539e8c1461035f57600080fd5b80633a46b1a811610166578063587cde1e11610140578063587cde1e146102875780635c19a95c146102cb5780636fcfff45146102e057806370a082311461030857600080fd5b80633a46b1a8146102595780634bf5d7e91461026c5780634ee2cd7e1461027457600080fd5b806323b872dd116101a257806323b872dd1461021c578063313ce5671461022f5780633644e5151461023e578063395093511461024657600080fd5b806306fdde03146101c9578063095ea7b3146101e757806318160ddd1461020a575b600080fd5b6101d1610463565b6040516101de9190611fa5565b60405180910390f35b6101fa6101f5366004611fcf565b6104f5565b60405190151581526020016101de565b6002545b6040519081526020016101de565b6101fa61022a366004611ff9565b61050f565b604051601281526020016101de565b61020e610533565b6101fa610254366004611fcf565b610542565b61020e610267366004611fcf565b610564565b6101d16105ee565b61020e610282366004611fcf565b610686565b6102b3610295366004612035565b6001600160a01b039081166000908152600960205260409020541690565b6040516001600160a01b0390911681526020016101de565b6102de6102d9366004612035565b6106df565b005b6102f36102ee366004612035565b6106ec565b60405163ffffffff90911681526020016101de565b61020e610316366004612035565b6001600160a01b031660009081526020819052604090205490565b61020e61033f366004612035565b61070e565b61034c61072c565b6040516101de9796959493929190612050565b61020e61036d3660046120e6565b6107b5565b61037a61081c565b60405165ffffffffffff90911681526020016101de565b6101d1610827565b61020e610836565b61020e6103af3660046120e6565b610840565b61020e6103c2366004612035565b61086b565b6101fa6103d5366004611fcf565b6108ed565b6101fa6103e8366004611fcf565b610968565b6102de6103fb366004612110565b610976565b6102de61040e366004612168565b610aac565b61020e6104213660046121d2565b610c10565b610439610434366004612205565b610c3b565b60408051825163ffffffff1681526020928301516001600160e01b031692810192909252016101de565b60606003805461047290612245565b80601f016020809104026020016040519081016040528092919081815260200182805461049e90612245565b80156104eb5780601f106104c0576101008083540402835291602001916104eb565b820191906000526020600020905b8154815290600101906020018083116104ce57829003601f168201915b5050505050905090565b600033610503818585610cd7565b60019150505b92915050565b60003361051d858285610dfb565b610528858585610e75565b506001949350505050565b600061053d61102a565b905090565b6000336105038185856105558383610c10565b61055f919061228f565b610cd7565b600061056e61081c565b65ffffffffffff1682106105c55760405162461bcd60e51b815260206004820152601960248201527804552433230566f7465733a20667574757265206c6f6f6b757603c1b60448201526064015b60405180910390fd5b6001600160a01b0383166000908152600a602052604090206105e79083611155565b9392505050565b6060436105f961081c565b65ffffffffffff161461064e5760405162461bcd60e51b815260206004820152601d60248201527f4552433230566f7465733a2062726f6b656e20636c6f636b206d6f646500000060448201526064016105bc565b5060408051808201909152601d81527f6d6f64653d626c6f636b6e756d6265722666726f6d3d64656661756c74000000602082015290565b6001600160a01b0382166000908152600c60205260408120819081906106ad90859061123e565b91509150816106d4576001600160a01b0385166000908152602081905260409020546106d6565b805b95945050505050565b6106e93382611334565b50565b6001600160a01b0381166000908152600a6020526040812054610509906113ad565b6001600160a01b038116600090815260076020526040812054610509565b6000606080828080836107607f00000000000000000000000000000000000000000000000000000000000000006005611416565b61078b7f00000000000000000000000000000000000000000000000000000000000000006006611416565b60408051600080825260208201909252600f60f81b9b939a50919850469750309650945092509050565b60006107bf61081c565b65ffffffffffff1682106108115760405162461bcd60e51b815260206004820152601960248201527804552433230566f7465733a20667574757265206c6f6f6b757603c1b60448201526064016105bc565b610509600b83611155565b600061053d436114c1565b60606004805461047290612245565b600061053d611528565b600080600061085084600d61123e565b915091508161086157600254610863565b805b949350505050565b6001600160a01b0381166000908152600a602052604081205480156108da576001600160a01b0383166000908152600a60205260409020805460001983019081106108b8576108b86122a2565b60009182526020909120015464010000000090046001600160e01b03166108dd565b60005b6001600160e01b03169392505050565b600033816108fb8286610c10565b90508381101561095b5760405162461bcd60e51b815260206004820152602560248201527f45524332303a2064656372656173656420616c6c6f77616e63652062656c6f77604482015264207a65726f60d81b60648201526084016105bc565b6105288286868403610cd7565b600033610503818585610e75565b834211156109c65760405162461bcd60e51b815260206004820152601d60248201527f4552433230566f7465733a207369676e6174757265206578706972656400000060448201526064016105bc565b604080517fe48329057bfd03d55e49b547132e39cffd9c1820ad7b9d4c5307691425d15adf60208201526001600160a01b038816918101919091526060810186905260808101859052600090610a4090610a389060a00160405160208183030381529060405280519060200120611582565b8585856115af565b9050610a4b816115d7565b8614610a995760405162461bcd60e51b815260206004820152601960248201527f4552433230566f7465733a20696e76616c6964206e6f6e63650000000000000060448201526064016105bc565b610aa38188611334565b50505050505050565b83421115610afc5760405162461bcd60e51b815260206004820152601d60248201527f45524332305065726d69743a206578706972656420646561646c696e6500000060448201526064016105bc565b60007f6e71edae12b1b97f4d1f60370fef10105fa2faae0126114a169c64845d6126c9888888610b2b8c6115d7565b6040805160208101969096526001600160a01b0394851690860152929091166060840152608083015260a082015260c0810186905260e0016040516020818303038152906040528051906020012090506000610b8682611582565b90506000610b96828787876115af565b9050896001600160a01b0316816001600160a01b031614610bf95760405162461bcd60e51b815260206004820152601e60248201527f45524332305065726d69743a20696e76616c6964207369676e6174757265000060448201526064016105bc565b610c048a8a8a610cd7565b50505050505050505050565b6001600160a01b03918216600090815260016020908152604080832093909416825291909152205490565b60408051808201909152600080825260208201526001600160a01b0383166000908152600a60205260409020805463ffffffff8416908110610c7f57610c7f6122a2565b60009182526020918290206040805180820190915291015463ffffffff8116825264010000000090046001600160e01b0316918101919091529392505050565b60006105e7828461228f565b60006105e782846122b8565b6001600160a01b038316610d395760405162461bcd60e51b8152602060048201526024808201527f45524332303a20617070726f76652066726f6d20746865207a65726f206164646044820152637265737360e01b60648201526084016105bc565b6001600160a01b038216610d9a5760405162461bcd60e51b815260206004820152602260248201527f45524332303a20617070726f766520746f20746865207a65726f206164647265604482015261737360f01b60648201526084016105bc565b6001600160a01b0383811660008181526001602090815260408083209487168084529482529182902085905590518481527f8c5be1e5ebec7d5bd14f71427d1e84f3dd0314c0f7b2291e5b200ac8c7c3b925910160405180910390a3505050565b6000610e078484610c10565b90506000198114610e6f5781811015610e625760405162461bcd60e51b815260206004820152601d60248201527f45524332303a20696e73756666696369656e7420616c6c6f77616e636500000060448201526064016105bc565b610e6f8484848403610cd7565b50505050565b6001600160a01b038316610ed95760405162461bcd60e51b815260206004820152602560248201527f45524332303a207472616e736665722066726f6d20746865207a65726f206164604482015264647265737360d81b60648201526084016105bc565b6001600160a01b038216610f3b5760405162461bcd60e51b815260206004820152602360248201527f45524332303a207472616e7366657220746f20746865207a65726f206164647260448201526265737360e81b60648201526084016105bc565b610f468383836115ff565b6001600160a01b03831660009081526020819052604090205481811015610fbe5760405162461bcd60e51b815260206004820152602660248201527f45524332303a207472616e7366657220616d6f756e7420657863656564732062604482015265616c616e636560d01b60648201526084016105bc565b6001600160a01b03848116600081815260208181526040808320878703905593871680835291849020805487019055925185815290927fddf252ad1be2c89b69c2b068fc378daa952ba7f163c4a11628f55a4df523b3ef910160405180910390a3610e6f84848461160f565b6000306001600160a01b037f00000000000000000000000000000000000000000000000000000000000000001614801561108357507f000000000000000000000000000000000000000000000000000000000000000046145b156110ad57507f000000000000000000000000000000000000000000000000000000000000000090565b61053d604080517f8b73c3c69bb8fe3d512ecc4cf759cc79239f7b179b0ffacaa9a75d522b39400f60208201527f0000000000000000000000000000000000000000000000000000000000000000918101919091527f000000000000000000000000000000000000000000000000000000000000000060608201524660808201523060a082015260009060c00160405160208183030381529060405280519060200120905090565b8154600090818160058111156111af5760006111708461161a565b61117a90856122b8565b600088815260209020909150869082015463ffffffff16111561119f578091506111ad565b6111aa81600161228f565b92505b505b808210156111fc5760006111c38383611702565b600088815260209020909150869082015463ffffffff1611156111e8578091506111f6565b6111f381600161228f565b92505b506111af565b8015611228576000868152602090208101600019015464010000000090046001600160e01b031661122b565b60005b6001600160e01b03169695505050505050565b6000806000841161128a5760405162461bcd60e51b815260206004820152601660248201527504552433230536e617073686f743a20696420697320360541b60448201526064016105bc565b61129261171d565b8411156112e15760405162461bcd60e51b815260206004820152601d60248201527f4552433230536e617073686f743a206e6f6e6578697374656e7420696400000060448201526064016105bc565b60006112ed8486611728565b8454909150810361130557600080925092505061132d565b600184600101828154811061131c5761131c6122a2565b906000526020600020015492509250505b9250929050565b6001600160a01b038281166000818152600960208181526040808420805485845282862054949093528787166001600160a01b03198416811790915590519190951694919391928592917f3134e8a2e6d97e929a7e54011ea5485d7d196dd5f0ba4d4ef95803e8e3fc257f9190a4610e6f8284836117d5565b600063ffffffff8211156114125760405162461bcd60e51b815260206004820152602660248201527f53616665436173743a2076616c756520646f65736e27742066697420696e203360448201526532206269747360d01b60648201526084016105bc565b5090565b606060ff83146114305761142983611912565b9050610509565b81805461143c90612245565b80601f016020809104026020016040519081016040528092919081815260200182805461146890612245565b80156114b55780601f1061148a576101008083540402835291602001916114b5565b820191906000526020600020905b81548152906001019060200180831161149857829003601f168201915b50505050509050610509565b600065ffffffffffff8211156114125760405162461bcd60e51b815260206004820152602660248201527f53616665436173743a2076616c756520646f65736e27742066697420696e203460448201526538206269747360d01b60648201526084016105bc565b6000611538600f80546001019055565b600061154261171d565b90507f8030e83b04d87bef53480e26263266d6ca66863aa8506aca6f2559d18aa1cb678160405161157591815260200190565b60405180910390a1919050565b600061050961158f61102a565b8360405161190160f01b8152600281019290925260228201526042902090565b60008060006115c087878787611951565b915091506115cd81611a15565b5095945050505050565b6001600160a01b03811660009081526007602052604090208054600181018255905b50919050565b61160a838383611b5f565b505050565b61160a838383611ba7565b60008160000361162c57506000919050565b6000600161163984611bd9565b901c6001901b90506001818481611652576116526122cb565b048201901c9050600181848161166a5761166a6122cb565b048201901c90506001818481611682576116826122cb565b048201901c9050600181848161169a5761169a6122cb565b048201901c905060018184816116b2576116b26122cb565b048201901c905060018184816116ca576116ca6122cb565b048201901c905060018184816116e2576116e26122cb565b048201901c90506105e7818285816116fc576116fc6122cb565b04611c6d565b600061171160028484186122e1565b6105e79084841661228f565b600061053d600f5490565b8154600090810361173b57506000610509565b82546000905b808210156117885760006117558383611702565b6000878152602090209091508590820154111561177457809150611782565b61177f81600161228f565b92505b50611741565b6000821180156117b45750836117b1866117a36001866122b8565b600091825260209091200190565b54145b156117cd576117c46001836122b8565b92505050610509565b509050610509565b816001600160a01b0316836001600160a01b0316141580156117f75750600081115b1561160a576001600160a01b03831615611885576001600160a01b0383166000908152600a60205260408120819061183290610ccb85611c83565b91509150846001600160a01b03167fdec2bacdd2f05b59de34da9b523dff8be42e5e38e818c82fdb0bae774387a724838360405161187a929190918252602082015260400190565b60405180910390a250505b6001600160a01b0382161561160a576001600160a01b0382166000908152600a6020526040812081906118bb90610cbf85611c83565b91509150836001600160a01b03167fdec2bacdd2f05b59de34da9b523dff8be42e5e38e818c82fdb0bae774387a7248383604051611903929190918252602082015260400190565b60405180910390a25050505050565b6060600061191f83611df8565b604080516020808252818301909252919250600091906020820181803683375050509182525060208101929092525090565b6000807f7fffffffffffffffffffffffffffffff5d576e7357a4501ddfe92f46681b20a08311156119885750600090506003611a0c565b6040805160008082526020820180845289905260ff881692820192909252606081018690526080810185905260019060a0016020604051602081039080840390855afa1580156119dc573d6000803e3d6000fd5b5050604051601f1901519150506001600160a01b038116611a0557600060019250925050611a0c565b9150600090505b94509492505050565b6000816004811115611a2957611a29612303565b03611a315750565b6001816004811115611a4557611a45612303565b03611a925760405162461bcd60e51b815260206004820152601860248201527f45434453413a20696e76616c6964207369676e6174757265000000000000000060448201526064016105bc565b6002816004811115611aa657611aa6612303565b03611af35760405162461bcd60e51b815260206004820152601f60248201527f45434453413a20696e76616c6964207369676e6174757265206c656e6774680060448201526064016105bc565b6003816004811115611b0757611b07612303565b036106e95760405162461bcd60e51b815260206004820152602260248201527f45434453413a20696e76616c6964207369676e6174757265202773272076616c604482015261756560f01b60648201526084016105bc565b6001600160a01b038316611b7e57611b7682611e20565b61160a611e52565b6001600160a01b038216611b9557611b7683611e20565b611b9e83611e20565b61160a82611e20565b6001600160a01b0383811660009081526009602052604080822054858416835291205461160a929182169116836117d5565b600080608083901c15611bee57608092831c92015b604083901c15611c0057604092831c92015b602083901c15611c1257602092831c92015b601083901c15611c2457601092831c92015b600883901c15611c3657600892831c92015b600483901c15611c4857600492831c92015b600283901c15611c5a57600292831c92015b600183901c156105095760010192915050565b6000818310611c7c57816105e7565b5090919050565b82546000908190818115611cd05760008781526020902082016000190160408051808201909152905463ffffffff8116825264010000000090046001600160e01b03166020820152611ce5565b60408051808201909152600080825260208201525b905080602001516001600160e01b03169350611d0584868863ffffffff16565b9250600082118015611d2f5750611d1a61081c565b65ffffffffffff16816000015163ffffffff16145b15611d7457611d3d83611e62565b60008881526020902083016000190180546001600160e01b03929092166401000000000263ffffffff909216919091179055611dee565b866040518060400160405280611d98611d8b61081c565b65ffffffffffff166113ad565b63ffffffff168152602001611dac86611e62565b6001600160e01b0390811690915282546001810184556000938452602093849020835194909301519091166401000000000263ffffffff909316929092179101555b5050935093915050565b600060ff8216601f81111561050957604051632cd44ac360e21b815260040160405180910390fd5b6001600160a01b0381166000908152600c6020908152604080832091839052909120546106e99190611ecb565b611ecb565b611e60600d611e4d60025490565b565b60006001600160e01b038211156114125760405162461bcd60e51b815260206004820152602760248201527f53616665436173743a2076616c756520646f65736e27742066697420696e20326044820152663234206269747360c81b60648201526084016105bc565b6000611ed561171d565b905080611ee184611f15565b101561160a578254600180820185556000858152602080822090930193909355938401805494850181558252902090910155565b80546000908103611f2857506000919050565b81548290611f38906001906122b8565b81548110611f4857611f486122a2565b90600052602060002001549050919050565b919050565b6000815180845260005b81811015611f8557602081850181015186830182015201611f69565b506000602082860101526020601f19601f83011685010191505092915050565b6020815260006105e76020830184611f5f565b80356001600160a01b0381168114611f5a57600080fd5b60008060408385031215611fe257600080fd5b611feb83611fb8565b946020939093013593505050565b60008060006060848603121561200e57600080fd5b61201784611fb8565b925061202560208501611fb8565b9150604084013590509250925092565b60006020828403121561204757600080fd5b6105e782611fb8565b60ff60f81b881681526000602060e08184015261207060e084018a611f5f565b8381036040850152612082818a611f5f565b606085018990526001600160a01b038816608086015260a0850187905284810360c0860152855180825283870192509083019060005b818110156120d4578351835292840192918401916001016120b8565b50909c9b505050505050505050505050565b6000602082840312156120f857600080fd5b5035919050565b803560ff81168114611f5a57600080fd5b60008060008060008060c0878903121561212957600080fd5b61213287611fb8565b9550602087013594506040870135935061214e606088016120ff565b92506080870135915060a087013590509295509295509295565b600080600080600080600060e0888a03121561218357600080fd5b61218c88611fb8565b965061219a60208901611fb8565b955060408801359450606088013593506121b6608089016120ff565b925060a0880135915060c0880135905092959891949750929550565b600080604083850312156121e557600080fd5b6121ee83611fb8565b91506121fc60208401611fb8565b90509250929050565b6000806040838503121561221857600080fd5b61222183611fb8565b9150602083013563ffffffff8116811461223a57600080fd5b809150509250929050565b600181811c9082168061225957607f821691505b6020821081036115f957634e487b7160e01b600052602260045260246000fd5b634e487b7160e01b600052601160045260246000fd5b8082018082111561050957610509612279565b634e487b7160e01b600052603260045260246000fd5b8181038181111561050957610509612279565b634e487b7160e01b600052601260045260246000fd5b6000826122fe57634e487b7160e01b600052601260045260246000fd5b500490565b634e487b7160e01b600052602160045260246000fdfea2646970667358221220d35d77811cc36d962985f307af874497b1228ed80203303e96782d00855eb2fe64736f6c63430008140033dec2bacdd2f05b59de34da9b523dff8be42e5e38e818c82fdb0bae774387a724a26469706673582212208e2e51791ccab87461ecefb473029ede3f2fe86df3e977657c3e56f65d9e5abd64736f6c63430008140033",
  "linkReferences": {},
  "deployedLinkReferences": {}
}