{
  "_format": "hh-sol-artifact-1",
  "contractName": "RoyaltyToken",
  "sourceName": "contracts/Fractionalizer.sol",
  "abi": [
    {
      "inputs": [
        {
          "internalType": "string",
          "name": "name",
          "type": "string"
        },
        {
          "internalType": "string",
          "name": "symbol",
          "type": "string"
        },
        {
          "internalType": "uint256",
          "name": "totalSupply",
          "type": "uint256"
        },
        {
          "internalType": "address",
          "name": "initialOwner",
          "type": "address"
        }
      ],
      "stateMutability": "nonpayable",
      "type": "constructor"
    },
    {
      "inputs": [],
      "name": "InvalidShortString",
      "type": "error"
    },
    {
      "inputs": [
        {
          "internalType": "string",
          "name": "str",
          "type": "string"
        }
      ],
      "name": "StringTooLong",
      "type": "error"
    },
    {
      "anonymous": false,
      "inputs": [
        {
          "indexed": true,
          "internalType": "address",
          "name": "owner",
          "type": "address"
        },
        {
          "indexed": true,
          "internalType": "address",
          "name": "spender",
          "type": "address"
        },
        {
          "indexed": false,
          "internalType": "uint256",
          "name": "value",
          "type": "uint256"
        }
      ],
      "name": "Approval",
      "type": "event"
    },
    {
      "anonymous": false,
      "inputs": [
        {
          "indexed": true,
          "internalType": "address",
          "name": "delegator",
          "type": "address"
        },
        {
          "indexed": true,
          "internalType": "address",
          "name": "fromDelegate",
          "type": "address"
        },
        {
          "indexed": true,
          "internalType": "address",
          "name": "toDelegate",
          "type": "address"
        }
      ],
      "name": "DelegateChanged",
      "type": "event"
    },
    {
      "anonymous": false,
      "inputs": [
        {
          "indexed": true,
          "internalType": "address",
          "name": "delegate",
          "type": "address"
        },
        {
          "indexed": false,
          "internalType": "uint256",
          "name": "previousBalance",
          "type": "uint256"
        },
        {
          "indexed": false,
          "internalType": "uint256",
          "name": "newBalance",
          "type": "uint256"
        }
      ],
      "name": "DelegateVotesChanged",
      "type": "event"
    },
    {
      "anonymous": false,
      "inputs": [],
      "name": "EIP712DomainChanged",
      "type": "event"
    },
    {
      "anonymous": false,
      "inputs": [
        {
          "indexed": false,
          "internalType": "uint256",
          "name": "id",
          "type": "uint256"
        }
      ],
      "name": "Snapshot",
      "type": "event"
    },
    {
      "anonymous": false,
      "inputs": [
        {
          "indexed": true,
          "internalType": "address",
          "name": "from",
          "type": "address"
        },
        {
          "indexed": true,
          "internalType": "address",
          "name": "to",
          "type": "address"
        },
        {
          "indexed": false,
          "internalType": "uint256",
          "name": "value",
          "type": "uint256"
        }
      ],
      "name": "Transfer",
      "type": "event"
    },
    {
      "inputs": [],
      "name": "CLOCK_MODE",
      "outputs": [
        {
          "internalType": "string",
          "name": "",
          "type": "string"
        }
      ],
      "stateMutability": "view",
      "type": "function"
    },
    {
      "inputs": [],
      "name": "DOMAIN_SEPARATOR",
      "outputs": [
        {
          "internalType": "bytes32",
          "name": "",
          "type": "bytes32"
        }
      ],
      "stateMutability": "view",
      "type": "function"
    },
    {
      "inputs": [
        {
          "internalType": "address",
          "name": "owner",
          "type": "address"
        },
        {
          "internalType": "address",
          "name": "spender",
          "type": "address"
        }
      ],
      "name": "allowance",
      "outputs": [
        {
          "internalType": "uint256",
          "name": "",
          "type": "uint256"
        }
      ],
      "stateMutability": "view",
      "type": "function"
    },
    {
      "inputs": [
        {
          "internalType": "address",
          "name": "spender",
          "type": "address"
        },
        {
          "internalType": "uint256",
          "name": "amount",
          "type": "uint256"
        }
      ],
      "name": "approve",
      "outputs": [
        {
          "internalType": "bool",
          "name": "",
          "type": "bool"
        }
      ],
      "stateMutability": "nonpayable",
      "type": "function"
    },
    {
      "inputs": [
        {
          "internalType": "address",
          "name": "account",
          "type": "address"
        }
      ],
      "name": "balanceOf",
      "outputs": [
        {
          "internalType": "uint256",
          "name": "",
          "type": "uint256"
        }
      ],
      "stateMutability": "view",
      "type": "function"
    },
    {
      "inputs": [
        {
          "internalType": "address",
          "name": "account",
          "type": "address"
        },
        {
          "internalType": "uint256",
          "name": "snapshotId",
          "type": "uint256"
        }
      ],
      "name": "balanceOfAt",
      "outputs": [
        {
          "internalType": "uint256",
          "name": "",
          "type": "uint256"
        }
      ],
      "stateMutability": "view",
      "type": "function"
    },
    {
      "inputs": [
        {
          "internalType": "address",
          "name": "account",
          "type": "address"
        },
        {
          "internalType": "uint32",
          "name": "pos",
          "type": "uint32"
        }
      ],
      "name": "checkpoints",
      "outputs": [
        {
          "components": [
            {
              "internalType": "uint32",
              "name": "fromBlock",
              "type": "uint32"
            },
            {
              "internalType": "uint224",
              "name": "votes",
              "type": "uint224"
            }
          ],
          "internalType": "struct ERC20Votes.Checkpoint",
          "name": "",
          "type": "tuple"
        }
      ],
      "stateMutability": "view",
      "type": "function"
    },
    {
      "inputs": [],
      "name": "clock",
      "outputs": [
        {
          "internalType": "uint48",
          "name": "",
          "type": "uint48"
        }
      ],
      "stateMutability": "view",
      "type": "function"
    },
    {
      "inputs": [],
      "name": "decimals",
      "outputs": [
        {
          "internalType": "uint8",
          "name": "",
          "type": "uint8"
        }
      ],
      "stateMutability": "view",
      "type": "function"
    },
    {
      "inputs": [
        {
          "internalType": "address",
          "name": "spender",
          "type": "address"
        },
        {
          "internalType": "uint256",
          "name": "subtractedValue",
          "type": "uint256"
        }
      ],
      "name": "decreaseAllowance",
      "outputs": [
        {
          "internalType": "bool",
          "name": "",
          "type": "bool"
        }
      ],
      "stateMutability": "nonpayable",
      "type": "function"
    },
    {
      "inputs": [
        {
          "internalType": "address",
          "name": "delegatee",
          "type": "address"
        }
      ],
      "name": "delegate",
      "outputs": [],
      "stateMutability": "nonpayable",
      "type": "function"
    },
    {
      "inputs": [
        {
          "internalType": "address",
          "name": "delegatee",
          "type": "address"
        },
        {
          "internalType": "uint256",
          "name": "nonce",
          "type": "uint256"
        },
        {
          "internalType": "uint256",
          "name": "expiry",
          "type": "uint256"
        },
        {
          "internalType": "uint8",
          "name": "v",
          "type": "uint8"
        },
        {
          "internalType": "bytes32",
          "name": "r",
          "type": "bytes32"
        },
        {
          "internalType": "bytes32",
          "name": "s",
          "type": "bytes32"
        }
      ],
      "name": "delegateBySig",
      "outputs": [],
      "stateMutability": "nonpayable",
      "type": "function"
    },
    {
      "inputs": [
        {
          "internalType": "address",
          "name": "account",
          "type": "address"
        }
      ],
      "name": "delegates",
      "outputs": [
        {
          "internalType": "address",
          "name": "",
          "type": "address"
        }
      ],
      "stateMutability": "view",
      "type": "function"
    },
    {
      "inputs": [],
      "name": "eip712Domain",
      "outputs": [
        {
          "internalType": "bytes1",
          "name": "fields",
          "type": "bytes1"
        },
        {
          "internalType": "string",
          "name": "name",
          "type": "string"
        },
        {
          "internalType": "string",
          "name": "version",
          "type": "string"
        },
        {
          "internalType": "uint256",
          "name": "chainId",
          "type": "uint256"
        },
        {
          "internalType": "address",
          "name": "verifyingContract",
          "type": "address"
        },
        {
          "internalType": "bytes32",
          "name": "salt",
          "type": "bytes32"
        },
        {
          "internalType": "uint256[]",
          "name": "extensions",
          "type": "uint256[]"
        }
      ],
      "stateMutability": "view",
      "type": "function"
    },
    {
      "inputs": [
        {
          "internalType": "uint256",
          "name": "timepoint",
          "type": "uint256"
        }
      ],
      "name": "getPastTotalSupply",
      "outputs": [
        {
          "internalType": "uint256",
          "name": "",
          "type": "uint256"
        }
      ],
      "stateMutability": "view",
      "type": "function"
    },
    {
      "inputs": [
        {
          "internalType": "address",
          "name": "account",
          "type": "address"
        },
        {
          "internalType": "uint256",
          "name": "timepoint",
          "type": "uint256"
        }
      ],
      "name": "getPastVotes",
      "outputs": [
        {
          "internalType": "uint256",
          "name": "",
          "type": "uint256"
        }
      ],
      "stateMutability": "view",
      "type": "function"
    },
    {
      "inputs": [
        {
          "internalType": "address",
          "name": "account",
          "type": "address"
        }
      ],
      "name": "getVotes",
      "outputs": [
        {
          "internalType": "uint256",
          "name": "",
          "type": "uint256"
        }
      ],
      "stateMutability": "view",
      "type": "function"
    },
    {
      "inputs": [
        {
          "internalType": "address",
          "name": "spender",
          "type": "address"
        },
        {
          "internalType": "uint256",
          "name": "addedValue",
          "type": "uint256"
        }
      ],
      "name": "increaseAllowance",
      "outputs": [
        {
          "internalType": "bool",
          "name": "",
          "type": "bool"
        }
      ],
      "stateMutability": "nonpayable",
      "type": "function"
    },
    {
      "inputs": [],
      "name": "name",
      "outputs": [
        {
          "internalType": "string",
          "name": "",
          "type": "string"
        }
      ],
      "stateMutability": "view",
      "type": "function"
    },
    {
      "inputs": [
        {
          "internalType": "address",
          "name": "owner",
          "type": "address"
        }
      ],
      "name": "nonces",
      "outputs": [
        {
          "internalType": "uint256",
          "name": "",
          "type": "uint256"
        }
      ],
      "stateMutability": "view",
      "type": "function"
    },
    {
      "inputs": [
        {
          "internalType": "address",
          "name": "account",
          "type": "address"
        }
      ],
      "name": "numCheckpoints",
      "outputs": [
        {
          "internalType": "uint32",
          "name": "",
          "type": "uint32"
        }
      ],
      "stateMutability": "view",
      "type": "function"
    },
    {
      "inputs": [
        {
          "internalType": "address",
          "name": "owner",
          "type": "address"
        },
        {
          "internalType": "address",
          "name": "spender",
          "type": "address"
        },
        {
          "internalType": "uint256",
          "name": "value",
          "type": "uint256"
        },
        {
          "internalType": "uint256",
          "name": "deadline",
          "type": "uint256"
        },
        {
          "internalType": "uint8",
          "name": "v",
          "type": "uint8"
        },
        {
          "internalType": "bytes32",
          "name": "r",
          "type": "bytes32"
        },
        {
          "internalType": "bytes32",
          "name": "s",
          "type": "bytes32"
        }
      ],
      "name": "permit",
      "outputs": [],
      "stateMutability": "nonpayable",
      "type": "function"
    },
    {
      "inputs": [],
      "name": "snapshot",
      "outputs": [
        {
          "internalType": "uint256",
          "name": "",
          "type": "uint256"
        }
      ],
      "stateMutability": "nonpayable",
      "type": "function"
    },
    {
      "inputs": [],
      "name": "symbol",
      "outputs": [
        {
          "internalType": "string",
          "name": "",
          "type": "string"
        }
      ],
      "stateMutability": "view",
      "type": "function"
    },
    {
      "inputs": [],
      "name": "totalSupply",
      "outputs": [
        {
          "internalType": "uint256",
          "name": "",
          "type": "uint256"
        }
      ],
      "stateMutability": "view",
      "type": "function"
    },
    {
      "inputs": [
        {
          "internalType": "uint256",
          "name": "snapshotId",
          "type": "uint256"
        }
      ],
      "name": "totalSupplyAt",
      "outputs": [
        {
          "internalType": "uint256",
          "name": "",
          "type": "uint256"
        }
      ],
      "stateMutability": "view",
      "type": "function"
    },
    {
      "inputs": [
        {
          "internalType": "address",
          "name": "to",
          "type": "address"
        },
        {
          "internalType": "uint256",
          "name": "amount",
          "type": "uint256"
        }
      ],
      "name": "transfer",
      "outputs": [
        {
          "internalType": "bool",
          "name": "",
          "type": "bool"
        }
      ],
      "stateMutability": "nonpayable",
      "type": "function"
    },
    {
      "inputs": [
        {
          "internalType": "address",
          "name": "from",
          "type": "address"
        },
        {
          "internalType": "address",
          "name": "to",
          "type": "address"
        },
        {
          "internalType": "uint256",
          "name": "amount",
          "type": "uint256"
        }
      ],
      "name": "transferFrom",
      "outputs": [
        {
          "internalType": "bool",
          "name": "",
          "type": "bool"
        }
      ],
      "stateMutability": "nonpayable",
      "type": "function"
    }
  ],
  "bytecode": "0x6101606040523480156200001257600080fd5b50604051620030ce380380620030ce833981016040819052620000359162000a63565b6040805180820190915260018152603160f81b6020820152849081908186600362000061838262000b86565b50600462000070828262000b86565b5062000082915083905060056200014c565b61012052620000938160066200014c565b61014052815160208084019190912060e052815190820120610100524660a0526200012160e05161010051604080517f8b73c3c69bb8fe3d512ecc4cf759cc79239f7b179b0ffacaa9a75d522b39400f60208201529081019290925260608201524660808201523060a082015260009060c00160405160208183030381529060405280519060200120905090565b60805250503060c0525062000137818362000185565b6200014162000195565b505050505062000d04565b60006020835110156200016c576200016483620001f3565b90506200017f565b8162000179848262000b86565b5060ff90505b92915050565b6200019182826200023f565b5050565b6000620001a6600f80546001019055565b6000620001b2620002e7565b90507f8030e83b04d87bef53480e26263266d6ca66863aa8506aca6f2559d18aa1cb6781604051620001e691815260200190565b60405180910390a1919050565b600080829050601f815111156200022a578260405163305a27a960e01b815260040162000221919062000c52565b60405180910390fd5b8051620002378262000c87565b179392505050565b6200024b8282620002f8565b6001600160e01b036200025f620003d38216565b1115620002c85760405162461bcd60e51b815260206004820152603060248201527f4552433230566f7465733a20746f74616c20737570706c79207269736b73206f60448201526f766572666c6f77696e6720766f74657360801b606482015260840162000221565b620002e1600b62000cbf620003d960201b1783620003ee565b50505050565b6000620002f3600f5490565b905090565b6001600160a01b038216620003505760405162461bcd60e51b815260206004820152601f60248201527f45524332303a206d696e7420746f20746865207a65726f206164647265737300604482015260640162000221565b6200035e6000838362000576565b806002600082825462000372919062000cc2565b90915550506001600160a01b038216600081815260208181526040808320805486019055518481527fddf252ad1be2c89b69c2b068fc378daa952ba7f163c4a11628f55a4df523b3ef910160405180910390a3620001916000838362000588565b60025490565b6000620003e7828462000cc2565b9392505050565b825460009081908181156200043d5760008781526020902082016000190160408051808201909152905463ffffffff8116825264010000000090046001600160e01b0316602082015262000452565b60408051808201909152600080825260208201525b905080602001516001600160e01b031693506200047084868860201c565b92506000821180156200049d57506200048862000595565b65ffffffffffff16816000015163ffffffff16145b15620004e657620004ae83620005a2565b60008881526020902083016000190180546001600160e01b03929092166401000000000263ffffffff9092169190911790556200056c565b86604051806040016040528062000514620005066200059560201b60201c565b65ffffffffffff1662000611565b63ffffffff1681526020016200052a86620005a2565b6001600160e01b0390811690915282546001810184556000938452602093849020835194909301519091166401000000000263ffffffff909316929092179101555b5050935093915050565b6200058383838362000678565b505050565b62000583838383620006cc565b6000620002f34362000700565b60006001600160e01b038211156200060d5760405162461bcd60e51b815260206004820152602760248201527f53616665436173743a2076616c756520646f65736e27742066697420696e20326044820152663234206269747360c81b606482015260840162000221565b5090565b600063ffffffff8211156200060d5760405162461bcd60e51b815260206004820152602660248201527f53616665436173743a2076616c756520646f65736e27742066697420696e203360448201526532206269747360d01b606482015260840162000221565b6001600160a01b0383166200069c57620006928262000769565b62000583620007a1565b6001600160a01b038216620006b657620006928362000769565b620006c18362000769565b620005838262000769565b6001600160a01b038381166000908152600960205260408082205485841683529120546200058392918216911683620007b3565b600065ffffffffffff8211156200060d5760405162461bcd60e51b815260206004820152602660248201527f53616665436173743a2076616c756520646f65736e27742066697420696e203460448201526538206269747360d01b606482015260840162000221565b6001600160a01b0381166000908152600c6020908152604080832091839052909120546200079e9190620008ee565b620008ee565b50565b620007b1600d6200079860025490565b565b816001600160a01b0316836001600160a01b031614158015620007d65750600081115b1562000583576001600160a01b0383161562000863576001600160a01b0383166000908152600a60209081526040822082916200082091906200093d901b62000ccb1785620003ee565b91509150846001600160a01b0316600080516020620030ae833981519152838360405162000858929190918252602082015260400190565b60405180910390a250505b6001600160a01b0382161562000583576001600160a01b0382166000908152600a6020908152604082208291620008a79190620003d9901b62000cbf1785620003ee565b91509150836001600160a01b0316600080516020620030ae8339815191528383604051620008df929190918252602082015260400190565b60405180910390a25050505050565b6000620008fa620002e7565b90508062000908846200094b565b101562000583578254600180820185556000858152602080822090930193909355938401805494850181558252902090910155565b6000620003e7828462000cd8565b805460009081036200095f57506000919050565b81548290620009719060019062000cd8565b8154811062000984576200098462000cee565b90600052602060002001549050919050565b634e487b7160e01b600052604160045260246000fd5b60005b83811015620009c9578181015183820152602001620009af565b50506000910152565b600082601f830112620009e457600080fd5b81516001600160401b038082111562000a015762000a0162000996565b604051601f8301601f19908116603f0116810190828211818310171562000a2c5762000a2c62000996565b8160405283815286602085880101111562000a4657600080fd5b62000a59846020830160208901620009ac565b9695505050505050565b6000806000806080858703121562000a7a57600080fd5b84516001600160401b038082111562000a9257600080fd5b62000aa088838901620009d2565b9550602087015191508082111562000ab757600080fd5b5062000ac687828801620009d2565b60408701516060880151919550935090506001600160a01b038116811462000aed57600080fd5b939692955090935050565b600181811c9082168062000b0d57607f821691505b60208210810362000b2e57634e487b7160e01b600052602260045260246000fd5b50919050565b601f8211156200058357600081815260208120601f850160051c8101602086101562000b5d5750805b601f850160051c820191505b8181101562000b7e5782815560010162000b69565b505050505050565b81516001600160401b0381111562000ba25762000ba262000996565b62000bba8162000bb3845462000af8565b8462000b34565b602080601f83116001811462000bf2576000841562000bd95750858301515b600019600386901b1c1916600185901b17855562000b7e565b600085815260208120601f198616915b8281101562000c235788860151825594840194600190910190840162000c02565b508582101562000c425787850151600019600388901b60f8161c191681555b5050505050600190811b01905550565b602081526000825180602084015262000c73816040850160208701620009ac565b601f01601f19169190910160400192915050565b8051602080830151919081101562000b2e5760001960209190910360031b1b16919050565b634e487b7160e01b600052601160045260246000fd5b808201808211156200017f576200017f62000cac565b818103818111156200017f576200017f62000cac565b634e487b7160e01b600052603260045260246000fd5b60805160a05160c05160e05161010051610120516101405161234f62000d5f60003960006107650152600061073a01526000611104015260006110dc01526000611037015260006110610152600061108b015261234f6000f3fe608060405234801561001057600080fd5b50600436106101c45760003560e01c80637ecebe00116100f95780639ab24eb011610097578063c3cda52011610071578063c3cda520146103ed578063d505accf14610400578063dd62ed3e14610413578063f1127ed81461042657600080fd5b80639ab24eb0146103b4578063a457c2d7146103c7578063a9059cbb146103da57600080fd5b806391ddadf4116100d357806391ddadf41461037257806395d89b41146103915780639711715a14610399578063981b24d0146103a157600080fd5b80637ecebe001461033157806384b0196e146103445780638e539e8c1461035f57600080fd5b80633a46b1a811610166578063587cde1e11610140578063587cde1e146102875780635c19a95c146102cb5780636fcfff45146102e057806370a082311461030857600080fd5b80633a46b1a8146102595780634bf5d7e91461026c5780634ee2cd7e1461027457600080fd5b806323b872dd116101a257806323b872dd1461021c578063313ce5671461022f5780633644e5151461023e578063395093511461024657600080fd5b806306fdde03146101c9578063095ea7b3146101e757806318160ddd1461020a575b600080fd5b6101d1610463565b6040516101de9190611fa5565b60405180910390f35b6101fa6101f5366004611fcf565b6104f5565b60405190151581526020016101de565b6002545b6040519081526020016101de565b6101fa61022a366004611ff9565b61050f565b604051601281526020016101de565b61020e610533565b6101fa610254366004611fcf565b610542565b61020e610267366004611fcf565b610564565b6101d16105ee565b61020e610282366004611fcf565b610686565b6102b3610295366004612035565b6001600160a01b039081166000908152600960205260409020541690565b6040516001600160a01b0390911681526020016101de565b6102de6102d9366004612035565b6106df565b005b6102f36102ee366004612035565b6106ec565b60405163ffffffff90911681526020016101de565b61020e610316366004612035565b6001600160a01b031660009081526020819052604090205490565b61020e61033f366004612035565b61070e565b61034c61072c565b6040516101de9796959493929190612050565b61020e61036d3660046120e6565b6107b5565b61037a61081c565b60405165ffffffffffff90911681526020016101de565b6101d1610827565b61020e610836565b61020e6103af3660046120e6565b610840565b61020e6103c2366004612035565b61086b565b6101fa6103d5366004611fcf565b6108ed565b6101fa6103e8366004611fcf565b610968565b6102de6103fb366004612110565b610976565b6102de61040e366004612168565b610aac565b61020e6104213660046121d2565b610c10565b610439610434366004612205565b610c3b565b60408051825163ffffffff1681526020928301516001600160e01b031692810192909252016101de565b60606003805461047290612245565b80601f016020809104026020016040519081016040528092919081815260200182805461049e90612245565b80156104eb5780601f106104c0576101008083540402835291602001916104eb565b820191906000526020600020905b8154815290600101906020018083116104ce57829003601f168201915b5050505050905090565b600033610503818585610cd7565b60019150505b92915050565b60003361051d858285610dfb565b610528858585610e75565b506001949350505050565b600061053d61102a565b905090565b6000336105038185856105558383610c10565b61055f919061228f565b610cd7565b600061056e61081c565b65ffffffffffff1682106105c55760405162461bcd60e51b815260206004820152601960248201527804552433230566f7465733a20667574757265206c6f6f6b757603c1b60448201526064015b60405180910390fd5b6001600160a01b0383166000908152600a602052604090206105e79083611155565b9392505050565b6060436105f961081c565b65ffffffffffff161461064e5760405162461bcd60e51b815260206004820152601d60248201527f4552433230566f7465733a2062726f6b656e20636c6f636b206d6f646500000060448201526064016105bc565b5060408051808201909152601d81527f6d6f64653d626c6f636b6e756d6265722666726f6d3d64656661756c74000000602082015290565b6001600160a01b0382166000908152600c60205260408120819081906106ad90859061123e565b91509150816106d4576001600160a01b0385166000908152602081905260409020546106d6565b805b95945050505050565b6106e93382611334565b50565b6001600160a01b0381166000908152600a6020526040812054610509906113ad565b6001600160a01b038116600090815260076020526040812054610509565b6000606080828080836107607f00000000000000000000000000000000000000000000000000000000000000006005611416565b61078b7f00000000000000000000000000000000000000000000000000000000000000006006611416565b60408051600080825260208201909252600f60f81b9b939a50919850469750309650945092509050565b60006107bf61081c565b65ffffffffffff1682106108115760405162461bcd60e51b815260206004820152601960248201527804552433230566f7465733a20667574757265206c6f6f6b757603c1b60448201526064016105bc565b610509600b83611155565b600061053d436114c1565b60606004805461047290612245565b600061053d611528565b600080600061085084600d61123e565b915091508161086157600254610863565b805b949350505050565b6001600160a01b0381166000908152600a602052604081205480156108da576001600160a01b0383166000908152600a60205260409020805460001983019081106108b8576108b86122a2565b60009182526020909120015464010000000090046001600160e01b03166108dd565b60005b6001600160e01b03169392505050565b600033816108fb8286610c10565b90508381101561095b5760405162461bcd60e51b815260206004820152602560248201527f45524332303a2064656372656173656420616c6c6f77616e63652062656c6f77604482015264207a65726f60d81b60648201526084016105bc565b6105288286868403610cd7565b600033610503818585610e75565b834211156109c65760405162461bcd60e51b815260206004820152601d60248201527f4552433230566f7465733a207369676e6174757265206578706972656400000060448201526064016105bc565b604080517fe48329057bfd03d55e49b547132e39cffd9c1820ad7b9d4c5307691425d15adf60208201526001600160a01b038816918101919091526060810186905260808101859052600090610a4090610a389060a00160405160208183030381529060405280519060200120611582565b8585856115af565b9050610a4b816115d7565b8614610a995760405162461bcd60e51b815260206004820152601960248201527f4552433230566f7465733a20696e76616c6964206e6f6e63650000000000000060448201526064016105bc565b610aa38188611334565b50505050505050565b83421115610afc5760405162461bcd60e51b815260206004820152601d60248201527f45524332305065726d69743a206578706972656420646561646c696e6500000060448201526064016105bc565b60007f6e71edae12b1b97f4d1f60370fef10105fa2faae0126114a169c64845d6126c9888888610b2b8c6115d7565b6040805160208101969096526001600160a01b0394851690860152929091166060840152608083015260a082015260c0810186905260e0016040516020818303038152906040528051906020012090506000610b8682611582565b90506000610b96828787876115af565b9050896001600160a01b0316816001600160a01b031614610bf95760405162461bcd60e51b815260206004820152601e60248201527f45524332305065726d69743a20696e76616c6964207369676e6174757265000060448201526064016105bc565b610c048a8a8a610cd7565b50505050505050505050565b6001600160a01b03918216600090815260016020908152604080832093909416825291909152205490565b60408051808201909152600080825260208201526001600160a01b0383166000908152600a60205260409020805463ffffffff8416908110610c7f57610c7f6122a2565b60009182526020918290206040805180820190915291015463ffffffff8116825264010000000090046001600160e01b0316918101919091529392505050565b60006105e7828461228f565b60006105e782846122b8565b6001600160a01b038316610d395760405162461bcd60e51b8152602060048201526024808201527f45524332303a20617070726f76652066726f6d20746865207a65726f206164646044820152637265737360e01b60648201526084016105bc565b6001600160a01b038216610d9a5760405162461bcd60e51b815260206004820152602260248201527f45524332303a20617070726f766520746f20746865207a65726f206164647265604482015261737360f01b60648201526084016105bc565b6001600160a01b0383811660008181526001602090815260408083209487168084529482529182902085905590518481527f8c5be1e5ebec7d5bd14f71427d1e84f3dd0314c0f7b2291e5b200ac8c7c3b925910160405180910390a3505050565b6000610e078484610c10565b90506000198114610e6f5781811015610e625760405162461bcd60e51b815260206004820152601d60248201527f45524332303a20696e73756666696369656e7420616c6c6f77616e636500000060448201526064016105bc565b610e6f8484848403610cd7565b50505050565b6001600160a01b038316610ed95760405162461bcd60e51b815260206004820152602560248201527f45524332303a207472616e736665722066726f6d20746865207a65726f206164604482015264647265737360d81b60648201526084016105bc565b6001600160a01b038216610f3b5760405162461bcd60e51b815260206004820152602360248201527f45524332303a207472616e7366657220746f20746865207a65726f206164647260448201526265737360e81b60648201526084016105bc565b610f468383836115ff565b6001600160a01b03831660009081526020819052604090205481811015610fbe5760405162461bcd60e51b815260206004820152602660248201527f45524332303a207472616e7366657220616d6f756e7420657863656564732062604482015265616c616e636560d01b60648201526084016105bc565b6001600160a01b03848116600081815260208181526040808320878703905593871680835291849020805487019055925185815290927fddf252ad1be2c89b69c2b068fc378daa952ba7f163c4a11628f55a4df523b3ef910160405180910390a3610e6f84848461160f565b6000306001600160a01b037f00000000000000000000000000000000000000000000000000000000000000001614801561108357507f000000000000000000000000000000000000000000000000000000000000000046145b156110ad57507f000000000000000000000000000000000000000000000000000000000000000090565b61053d604080517f8b73c3c69bb8fe3d512ecc4cf759cc79239f7b179b0ffacaa9a75d522b39400f60208201527f0000000000000000000000000000000000000000000000000000000000000000918101919091527f000000000000000000000000000000000000000000000000000000000000000060608201524660808201523060a082015260009060c00160405160208183030381529060405280519060200120905090565b8154600090818160058111156111af5760006111708461161a565b61117a90856122b8565b600088815260209020909150869082015463ffffffff16111561119f578091506111ad565b6111aa81600161228f565b92505b505b808210156111fc5760006111c38383611702565b600088815260209020909150869082015463ffffffff1611156111e8578091506111f6565b6111f381600161228f565b92505b506111af565b8015611228576000868152602090208101600019015464010000000090046001600160e01b031661122b565b60005b6001600160e01b03169695505050505050565b6000806000841161128a5760405162461bcd60e51b815260206004820152601660248201527504552433230536e617073686f743a20696420697320360541b60448201526064016105bc565b61129261171d565b8411156112e15760405162461bcd60e51b815260206004820152601d60248201527f4552433230536e617073686f743a206e6f6e6578697374656e7420696400000060448201526064016105bc565b60006112ed8486611728565b8454909150810361130557600080925092505061132d565b600184600101828154811061131c5761131c6122a2565b906000526020600020015492509250505b9250929050565b6001600160a01b038281166000818152600960208181526040808420805485845282862054949093528787166001600160a01b03198416811790915590519190951694919391928592917f3134e8a2e6d97e929a7e54011ea5485d7d196dd5f0ba4d4ef95803e8e3fc257f9190a4610e6f8284836117d5565b600063ffffffff8211156114125760405162461bcd60e51b815260206004820152602660248201527f53616665436173743a2076616c756520646f65736e27742066697420696e203360448201526532206269747360d01b60648201526084016105bc565b5090565b606060ff83146114305761142983611912565b9050610509565b81805461143c90612245565b80601f016020809104026020016040519081016040528092919081815260200182805461146890612245565b80156114b55780601f1061148a576101008083540402835291602001916114b5565b820191906000526020600020905b81548152906001019060200180831161149857829003601f168201915b50505050509050610509565b600065ffffffffffff8211156114125760405162461bcd60e51b815260206004820152602660248201527f53616665436173743a2076616c756520646f65736e27742066697420696e203460448201526538206269747360d01b60648201526084016105bc565b6000611538600f80546001019055565b600061154261171d565b90507f8030e83b04d87bef53480e26263266d6ca66863aa8506aca6f2559d18aa1cb678160405161157591815260200190565b60405180910390a1919050565b600061050961158f61102a565b8360405161190160f01b8152600281019290925260228201526042902090565b60008060006115c087878787611951565b915091506115cd81611a15565b5095945050505050565b6001600160a01b03811660009081526007602052604090208054600181018255905b50919050565b61160a838383611b5f565b505050565b61160a838383611ba7565b60008160000361162c57506000919050565b6000600161163984611bd9565b901c6001901b90506001818481611652576116526122cb565b048201901c9050600181848161166a5761166a6122cb565b048201901c90506001818481611682576116826122cb565b048201901c9050600181848161169a5761169a6122cb565b048201901c905060018184816116b2576116b26122cb565b048201901c905060018184816116ca576116ca6122cb565b048201901c905060018184816116e2576116e26122cb565b048201901c90506105e7818285816116fc576116fc6122cb565b04611c6d565b600061171160028484186122e1565b6105e79084841661228f565b600061053d600f5490565b8154600090810361173b57506000610509565b82546000905b808210156117885760006117558383611702565b6000878152602090209091508590820154111561177457809150611782565b61177f81600161228f565b92505b50611741565b6000821180156117b45750836117b1866117a36001866122b8565b600091825260209091200190565b54145b156117cd576117c46001836122b8565b92505050610509565b509050610509565b816001600160a01b0316836001600160a01b0316141580156117f75750600081115b1561160a576001600160a01b03831615611885576001600160a01b0383166000908152600a60205260408120819061183290610ccb85611c83565b91509150846001600160a01b03167fdec2bacdd2f05b59de34da9b523dff8be42e5e38e818c82fdb0bae774387a724838360405161187a929190918252602082015260400190565b60405180910390a250505b6001600160a01b0382161561160a576001600160a01b0382166000908152600a6020526040812081906118bb90610cbf85611c83565b91509150836001600160a01b03167fdec2bacdd2f05b59de34da9b523dff8be42e5e38e818c82fdb0bae774387a7248383604051611903929190918252602082015260400190565b60405180910390a25050505050565b6060600061191f83611df8565b604080516020808252818301909252919250600091906020820181803683375050509182525060208101929092525090565b6000807f7fffffffffffffffffffffffffffffff5d576e7357a4501ddfe92f46681b20a08311156119885750600090506003611a0c565b6040805160008082526020820180845289905260ff881692820192909252606081018690526080810185905260019060a0016020604051602081039080840390855afa1580156119dc573d6000803e3d6000fd5b5050604051601f1901519150506001600160a01b038116611a0557600060019250925050611a0c565b9150600090505b94509492505050565b6000816004811115611a2957611a29612303565b03611a315750565b6001816004811115611a4557611a45612303565b03611a925760405162461bcd60e51b815260206004820152601860248201527f45434453413a20696e76616c6964207369676e6174757265000000000000000060448201526064016105bc565b6002816004811115611aa657611aa6612303565b03611af35760405162461bcd60e51b815260206004820152601f60248201527f45434453413a20696e76616c6964207369676e6174757265206c656e6774680060448201526064016105bc565b6003816004811115611b0757611b07612303565b036106e95760405162461bcd60e51b815260206004820152602260248201527f45434453413a20696e76616c6964207369676e6174757265202773272076616c604482015261756560f01b60648201526084016105bc565b6001600160a01b038316611b7e57611b7682611e20565b61160a611e52565b6001600160a01b038216611b9557611b7683611e20565b611b9e83611e20565b61160a82611e20565b6001600160a01b0383811660009081526009602052604080822054858416835291205461160a929182169116836117d5565b600080608083901c15611bee57608092831c92015b604083901c15611c0057604092831c92015b602083901c15611c1257602092831c92015b601083901c15611c2457601092831c92015b600883901c15611c3657600892831c92015b600483901c15611c4857600492831c92015b600283901c15611c5a57600292831c92015b600183901c156105095760010192915050565b6000818310611c7c57816105e7565b5090919050565b82546000908190818115611cd05760008781526020902082016000190160408051808201909152905463ffffffff8116825264010000000090046001600160e01b03166020820152611ce5565b60408051808201909152600080825260208201525b905080602001516001600160e01b03169350611d0584868863ffffffff16565b9250600082118015611d2f5750611d1a61081c565b65ffffffffffff16816000015163ffffffff16145b15611d7457611d3d83611e62565b60008881526020902083016000190180546001600160e01b03929092166401000000000263ffffffff909216919091179055611dee565b866040518060400160405280611d98611d8b61081c565b65ffffffffffff166113ad565b63ffffffff168152602001611dac86611e62565b6001600160e01b0390811690915282546001810184556000938452602093849020835194909301519091166401000000000263ffffffff909316929092179101555b5050935093915050565b600060ff8216601f81111561050957604051632cd44ac360e21b815260040160405180910390fd5b6001600160a01b0381166000908152600c6020908152604080832091839052909120546106e99190611ecb565b611ecb565b611e60600d611e4d60025490565b565b60006001600160e01b038211156114125760405162461bcd60e51b815260206004820152602760248201527f53616665436173743a2076616c756520646f65736e27742066697420696e20326044820152663234206269747360c81b60648201526084016105bc565b6000611ed561171d565b905080611ee184611f15565b101561160a578254600180820185556000858152602080822090930193909355938401805494850181558252902090910155565b80546000908103611f2857506000919050565b81548290611f38906001906122b8565b81548110611f4857611f486122a2565b90600052602060002001549050919050565b919050565b6000815180845260005b81811015611f8557602081850181015186830182015201611f69565b506000602082860101526020601f19601f83011685010191505092915050565b6020815260006105e76020830184611f5f565b80356001600160a01b0381168114611f5a57600080fd5b60008060408385031215611fe257600080fd5b611feb83611fb8565b946020939093013593505050565b60008060006060848603121561200e57600080fd5b61201784611fb8565b925061202560208501611fb8565b9150604084013590509250925092565b60006020828403121561204757600080fd5b6105e782611fb8565b60ff60f81b881681526000602060e08184015261207060e084018a611f5f565b8381036040850152612082818a611f5f565b606085018990526001600160a01b038816608086015260a0850187905284810360c0860152855180825283870192509083019060005b818110156120d4578351835292840192918401916001016120b8565b50909c9b505050505050505050505050565b6000602082840312156120f857600080fd5b5035919050565b803560ff81168114611f5a57600080fd5b60008060008060008060c0878903121561212957600080fd5b61213287611fb8565b9550602087013594506040870135935061214e606088016120ff565b92506080870135915060a087013590509295509295509295565b600080600080600080600060e0888a03121561218357600080fd5b61218c88611fb8565b965061219a60208901611fb8565b955060408801359450606088013593506121b6608089016120ff565b925060a0880135915060c0880135905092959891949750929550565b600080604083850312156121e557600080fd5b6121ee83611fb8565b91506121fc60208401611fb8565b90509250929050565b6000806040838503121561221857600080fd5b61222183611fb8565b9150602083013563ffffffff8116811461223a57600080fd5b809150509250929050565b600181811c9082168061225957607f821691505b6020821081036115f957634e487b7160e01b600052602260045260246000fd5b634e487b7160e01b600052601160045260246000fd5b8082018082111561050957610509612279565b634e487b7160e01b600052603260045260246000fd5b8181038181111561050957610509612279565b634e487b7160e01b600052601260045260246000fd5b6000826122fe57634e487b7160e01b600052601260045260246000fd5b500490565b634e487b7160e01b600052602160045260246000fdfea2646970667358221220d35d77811cc36d962985f307af874497b1228ed80203303e96782d00855eb2fe64736f6c63430008140033dec2bacdd2f05b59de34da9b523dff8be42e5e38e818c82fdb0bae774387a724",
  "linkReferences": {},
  "deployedLinkReferences": {}
}