{
  "_format": "hh-sol-artifact-1",
  "contractName": "IPMarketplace",
  "sourceName": "contracts/IPMarketplace.sol",
  "abi": [
    {
      "inputs": [
        {
          "internalType": "address",
          "name": "initialOwner",
          "type": "address"
        },
        {
          "internalType": "address",
          "name": "_fractionalizer",
          "type": "address"
        },
        {
          "internalType": "address",
          "name": "_feeRecipient",
          "type": "address"
        }
      ],
      "stateMutability": "nonpayable",
      "type": "constructor"
    },
    {
      "anonymous": false,
      "inputs": [
        {
          "indexed": false,
          "internalType": "address",
          "name": "oldRecipient",
          "type": "address"
        },
        {
          "indexed": false,
          "internalType": "address",
          "name": "newRecipient",
          "type": "address"
        },
        {
          "indexed": false,
          "internalType": "uint256",
          "name": "timestamp",
          "type": "uint256"
        }
      ],
      "name": "FeeRecipientUpdated",
      "type": "event"
    },
    {
      "anonymous": false,
      "inputs": [
        {
          "indexed": true,
          "internalType": "uint256",
          "name": "listingId",
          "type": "uint256"
        },
        {
          "indexed": true,
          "internalType": "address",
          "name": "seller",
          "type": "address"
        },
        {
          "indexed": false,
          "internalType": "uint256",
          "name": "timestamp",
          "type": "uint256"
        }
      ],
      "name": "ListingCancelled",
      "type": "event"
    },
    {
      "anonymous": false,
      "inputs": [
        {
          "indexed": true,
          "internalType": "uint256",
          "name": "listingId",
          "type": "uint256"
        },
        {
          "indexed": true,
          "internalType": "address",
          "name": "seller",
          "type": "address"
        },
        {
          "indexed": true,
          "internalType": "address",
          "name": "royaltyToken",
          "type": "address"
        },
        {
          "indexed": false,
          "internalType": "uint256",
          "name": "amount",
          "type": "uint256"
        },
        {
          "indexed": false,
          "internalType": "uint256",
          "name": "pricePerToken",
          "type": "uint256"
        },
        {
          "indexed": false,
          "internalType": "address",
          "name": "paymentToken",
          "type": "address"
        },
        {
          "indexed": false,
          "internalType": "uint256",
          "name": "expiresAt",
          "type": "uint256"
        },
        {
          "indexed": false,
          "internalType": "uint256",
          "name": "timestamp",
          "type": "uint256"
        }
      ],
      "name": "ListingCreated",
      "type": "event"
    },
    {
      "anonymous": false,
      "inputs": [
        {
          "indexed": true,
          "internalType": "uint256",
          "name": "listingId",
          "type": "uint256"
        },
        {
          "indexed": true,
          "internalType": "address",
          "name": "seller",
          "type": "address"
        },
        {
          "indexed": true,
          "internalType": "address",
          "name": "buyer",
          "type": "address"
        },
        {
          "indexed": false,
          "internalType": "address",
          "name": "royaltyToken",
          "type": "address"
        },
        {
          "indexed": false,
          "internalType": "uint256",
          "name": "amount",
          "type": "uint256"
        },
        {
          "indexed": false,
          "internalType": "uint256",
          "name": "totalPrice",
          "type": "uint256"
        },
        {
          "indexed": false,
          "internalType": "uint256",
          "name": "fee",
          "type": "uint256"
        },
        {
          "indexed": false,
          "internalType": "uint256",
          "name": "timestamp",
          "type": "uint256"
        }
      ],
      "name": "ListingSold",
      "type": "event"
    },
    {
      "anonymous": false,
      "inputs": [
        {
          "indexed": false,
          "internalType": "uint256",
          "name": "oldFee",
          "type": "uint256"
        },
        {
          "indexed": false,
          "internalType": "uint256",
          "name": "newFee",
          "type": "uint256"
        },
        {
          "indexed": false,
          "internalType": "uint256",
          "name": "timestamp",
          "type": "uint256"
        }
      ],
      "name": "MarketplaceFeeUpdated",
      "type": "event"
    },
    {
      "anonymous": false,
      "inputs": [
        {
          "indexed": true,
          "internalType": "address",
          "name": "previousOwner",
          "type": "address"
        },
        {
          "indexed": true,
          "internalType": "address",
          "name": "newOwner",
          "type": "address"
        }
      ],
      "name": "OwnershipTransferred",
      "type": "event"
    },
    {
      "anonymous": false,
      "inputs": [
        {
          "indexed": false,
          "internalType": "address",
          "name": "account",
          "type": "address"
        }
      ],
      "name": "Paused",
      "type": "event"
    },
    {
      "anonymous": false,
      "inputs": [
        {
          "indexed": false,
          "internalType": "address",
          "name": "account",
          "type": "address"
        }
      ],
      "name": "Unpaused",
      "type": "event"
    },
    {
      "inputs": [
        {
          "internalType": "uint256",
          "name": "listingId",
          "type": "uint256"
        },
        {
          "internalType": "uint256",
          "name": "amount",
          "type": "uint256"
        },
        {
          "internalType": "uint256",
          "name": "maxPricePerToken",
          "type": "uint256"
        }
      ],
      "name": "buyListing",
      "outputs": [],
      "stateMutability": "payable",
      "type": "function"
    },
    {
      "inputs": [
        {
          "internalType": "uint256",
          "name": "listingId",
          "type": "uint256"
        }
      ],
      "name": "cancelListing",
      "outputs": [],
      "stateMutability": "nonpayable",
      "type": "function"
    },
    {
      "inputs": [
        {
          "internalType": "address",
          "name": "royaltyToken",
          "type": "address"
        },
        {
          "internalType": "uint256",
          "name": "amount",
          "type": "uint256"
        },
        {
          "internalType": "uint256",
          "name": "pricePerToken",
          "type": "uint256"
        },
        {
          "internalType": "address",
          "name": "paymentToken",
          "type": "address"
        },
        {
          "internalType": "uint256",
          "name": "expiresAt",
          "type": "uint256"
        },
        {
          "internalType": "uint256",
          "name": "slippageToleranceBps",
          "type": "uint256"
        }
      ],
      "name": "createListing",
      "outputs": [
        {
          "internalType": "uint256",
          "name": "listingId",
          "type": "uint256"
        }
      ],
      "stateMutability": "nonpayable",
      "type": "function"
    },
    {
      "inputs": [],
      "name": "feeRecipient",
      "outputs": [
        {
          "internalType": "address",
          "name": "",
          "type": "address"
        }
      ],
      "stateMutability": "view",
      "type": "function"
    },
    {
      "inputs": [],
      "name": "fractionalizer",
      "outputs": [
        {
          "internalType": "contract Fractionalizer",
          "name": "",
          "type": "address"
        }
      ],
      "stateMutability": "view",
      "type": "function"
    },
    {
      "inputs": [
        {
          "internalType": "uint256",
          "name": "listingId",
          "type": "uint256"
        }
      ],
      "name": "getListing",
      "outputs": [
        {
          "components": [
            {
              "internalType": "uint256",
              "name": "listingId",
              "type": "uint256"
            },
            {
              "internalType": "address",
              "name": "seller",
              "type": "address"
            },
            {
              "internalType": "address",
              "name": "royaltyToken",
              "type": "address"
            },
            {
              "internalType": "uint256",
              "name": "amount",
              "type": "uint256"
            },
            {
              "internalType": "uint256",
              "name": "pricePerToken",
              "type": "uint256"
            },
            {
              "internalType": "address",
              "name": "paymentToken",
              "type": "address"
            },
            {
              "internalType": "enum IPMarketplace.ListingStatus",
              "name": "status",
              "type": "uint8"
            },
            {
              "internalType": "uint256",
              "name": "listedAt",
              "type": "uint256"
            },
            {
              "internalType": "uint256",
              "name": "expiresAt",
              "type": "uint256"
            },
            {
              "internalType": "uint256",
              "name": "minPricePerToken",
              "type": "uint256"
            },
            {
              "internalType": "uint256",
              "name": "maxPricePerToken",
              "type": "uint256"
            }
          ],
          "internalType": "struct IPMarketplace.Listing",
          "name": "",
          "type": "tuple"
        }
      ],
      "stateMutability": "view",
      "type": "function"
    },
    {
      "inputs": [
        {
          "internalType": "address",
          "name": "royaltyToken",
          "type": "address"
        }
      ],
      "name": "getTokenListings",
      "outputs": [
        {
          "internalType": "uint256[]",
          "name": "",
          "type": "uint256[]"
        }
      ],
      "stateMutability": "view",
      "type": "function"
    },
    {
      "inputs": [
        {
          "internalType": "address",
          "name": "user",
          "type": "address"
        }
      ],
      "name": "getUserListings",
      "outputs": [
        {
          "internalType": "uint256[]",
          "name": "",
          "type": "uint256[]"
        }
      ],
      "stateMutability": "view",
      "type": "function"
    },
    {
      "inputs": [
        {
          "internalType": "uint256",
          "name": "",
          "type": "uint256"
        }
      ],
      "name": "listings",
      "outputs": [
        {
          "internalType": "uint256",
          "name": "listingId",
          "type": "uint256"
        },
        {
          "internalType": "address",
          "name": "seller",
          "type": "address"
        },
        {
          "internalType": "address",
          "name": "royaltyToken",
          "type": "address"
        },
        {
          "internalType": "uint256",
          "name": "amount",
          "type": "uint256"
        },
        {
          "internalType": "uint256",
          "name": "pricePerToken",
          "type": "uint256"
        },
        {
          "internalType": "address",
          "name": "paymentToken",
          "type": "address"
        },
        {
          "internalType": "enum IPMarketplace.ListingStatus",
          "name": "status",
          "type": "uint8"
        },
        {
          "internalType": "uint256",
          "name": "listedAt",
          "type": "uint256"
        },
        {
          "internalType": "uint256",
          "name": "expiresAt",
          "type": "uint256"
        },
        {
          "internalType": "uint256",
          "name": "minPricePerToken",
          "type": "uint256"
        },
        {
          "internalType": "uint256",
          "name": "maxPricePerToken",
          "type": "uint256"
        }
      ],
      "stateMutability": "view",
      "type": "function"
    },
    {
      "inputs": [],
      "name": "marketplaceFeeBps",
      "outputs": [
        {
          "internalType": "uint256",
          "name": "",
          "type": "uint256"
        }
      ],
      "stateMutability": "view",
      "type": "function"
    },
    {
      "inputs": [],
      "name": "owner",
      "outputs": [
        {
          "internalType": "address",
          "name": "",
          "type": "address"
        }
      ],
      "stateMutability": "view",
      "type": "function"
    },
    {
      "inputs": [],
      "name": "pause",
      "outputs": [],
      "stateMutability": "nonpayable",
      "type": "function"
    },
    {
      "inputs": [],
      "name": "paused",
      "outputs": [
        {
          "internalType": "bool",
          "name": "",
          "type": "bool"
        }
      ],
      "stateMutability": "view",
      "type": "function"
    },
    {
      "inputs": [],
      "name": "renounceOwnership",
      "outputs": [],
      "stateMutability": "nonpayable",
      "type": "function"
    },
    {
      "inputs": [
        {
          "internalType": "address",
          "name": "newRecipient",
          "type": "address"
        }
      ],
      "name": "setFeeRecipient",
      "outputs": [],
      "stateMutability": "nonpayable",
      "type": "function"
    },
    {
      "inputs": [
        {
          "internalType": "uint256",
          "name": "newFeeBps",
          "type": "uint256"
        }
      ],
      "name": "setMarketplaceFee",
      "outputs": [],
      "stateMutability": "nonpayable",
      "type": "function"
    },
    {
      "inputs": [
        {
          "internalType": "address",
          "name": "",
          "type": "address"
        },
        {
          "internalType": "uint256",
          "name": "",
          "type": "uint256"
        }
      ],
      "name": "tokenListings",
      "outputs": [
        {
          "internalType": "uint256",
          "name": "",
          "type": "uint256"
        }
      ],
      "stateMutability": "view",
      "type": "function"
    },
    {
      "inputs": [
        {
          "internalType": "address",
          "name": "newOwner",
          "type": "address"
        }
      ],
      "name": "transferOwnership",
      "outputs": [],
      "stateMutability": "nonpayable",
      "type": "function"
    },
    {
      "inputs": [],
      "name": "unpause",
      "outputs": [],
      "stateMutability": "nonpayable",
      "type": "function"
    },
    {
      "inputs": [
        {
          "internalType": "address",
          "name": "",
          "type": "address"
        },
        {
          "internalType": "uint256",
          "name": "",
          "type": "uint256"
        }
      ],
      "name": "userListings",
      "outputs": [
        {
          "internalType": "uint256",
          "name": "",
          "type": "uint256"
        }
      ],
      "stateMutability": "view",
      "type": "function"
    }
  ],
  "bytecode": "0x608060405260fa6003553480156200001657600080fd5b5060405162002229380380620022298339810160408190526200003991620001d7565b62000044336200016a565b600180556002805460ff191690556200005d836200016a565b6001600160a01b038216620000c55760405162461bcd60e51b815260206004820152602360248201527f4d61726b6574706c6163653a20496e76616c6964206672616374696f6e616c696044820152623d32b960e91b60648201526084015b60405180910390fd5b6001600160a01b038116620001285760405162461bcd60e51b815260206004820152602260248201527f4d61726b6574706c6163653a20496e76616c69642066656520726563697069656044820152611b9d60f21b6064820152608401620000bc565b60028054610100600160a81b0319166101006001600160a01b0394851602179055600480546001600160a01b0319169190921617905550600160055562000221565b600080546001600160a01b038381166001600160a01b0319831681178455604051919092169283917f8be0079c531659141344cd1fd0a4f28419497f9722a3daafe3b4186f6b6457e09190a35050565b80516001600160a01b0381168114620001d257600080fd5b919050565b600080600060608486031215620001ed57600080fd5b620001f884620001ba565b92506200020860208501620001ba565b91506200021860408501620001ba565b90509250925092565b611ff880620002316000396000f3fe60806040526004361061011f5760003560e01c80638da5cb5b116100a0578063d3929c8a11610064578063d3929c8a14610327578063de74e57b1461033d578063e74b981b146103d9578063eb18a9d8146103f9578063f2fde38b1461041957600080fd5b80638da5cb5b146102775780639407ea981461029557806394a4b561146102b5578063d03b0e49146102d5578063d1b4b312146102fa57600080fd5b8063655ac16a116100e7578063655ac16a146101ec578063715018a61461021a5780637ed7086a1461022f5780638456cb591461024257806386cfa7d31461025757600080fd5b8063107a274a14610124578063305a67a81461015a5780633f4ba83a1461017c57806346904840146101915780635c975abb146101c9575b600080fd5b34801561013057600080fd5b5061014461013f366004611ba7565b610439565b6040516101519190611bf8565b60405180910390f35b34801561016657600080fd5b5061017a610175366004611ba7565b61059a565b005b34801561018857600080fd5b5061017a61074b565b34801561019d57600080fd5b506004546101b1906001600160a01b031681565b6040516001600160a01b039091168152602001610151565b3480156101d557600080fd5b5060025460ff166040519015158152602001610151565b3480156101f857600080fd5b5061020c610207366004611cc8565b61075d565b604051908152602001610151565b34801561022657600080fd5b5061017a610c82565b61017a61023d366004611d20565b610c94565b34801561024e57600080fd5b5061017a61136b565b34801561026357600080fd5b5061020c610272366004611d4c565b61137b565b34801561028357600080fd5b506000546001600160a01b03166101b1565b3480156102a157600080fd5b5061017a6102b0366004611ba7565b6113ac565b3480156102c157600080fd5b5061020c6102d0366004611d4c565b611456565b3480156102e157600080fd5b506002546101b19061010090046001600160a01b031681565b34801561030657600080fd5b5061031a610315366004611d76565b611472565b6040516101519190611d98565b34801561033357600080fd5b5061020c60035481565b34801561034957600080fd5b506103c2610358366004611ba7565b6006602081905260009182526040909120805460018201546002830154600384015460048501546005860154968601546007870154600888015460099098015496986001600160a01b0396871698958716979496939593811694600160a01b90910460ff1693908b565b6040516101519b9a99989796959493929190611ddc565b3480156103e557600080fd5b5061017a6103f4366004611d76565b6114de565b34801561040557600080fd5b5061031a610414366004611d76565b6115a0565b34801561042557600080fd5b5061017a610434366004611d76565b61160a565b6104966040805161016081018252600080825260208201819052918101829052606081018290526080810182905260a081018290529060c08201908152602001600081526020016000815260200160008152602001600081525090565b6000828152600660205260408120548391036104cd5760405162461bcd60e51b81526004016104c490611e49565b60405180910390fd5b6000838152600660209081526040918290208251610160810184528154815260018201546001600160a01b03908116938201939093526002808301548416948201949094526003820154606082015260048201546080820152600582015492831660a082015292909160c0840191600160a01b90910460ff169081111561055657610556611bc0565b600281111561056757610567611bc0565b81526006820154602082015260078201546040820152600882015460608201526009909101546080909101529392505050565b6105a2611680565b6000818152600660205260408120548291036105d05760405162461bcd60e51b81526004016104c490611e49565b60008281526006602052604090206001015482906001600160a01b0316331461063b5760405162461bcd60e51b815260206004820152601760248201527f4d61726b6574706c6163653a204e6f742073656c6c657200000000000000000060448201526064016104c4565b6000838152600660205260408120906005820154600160a01b900460ff16600281111561066a5761066a611bc0565b146106b75760405162461bcd60e51b815260206004820152601760248201527f4d61726b6574706c6163653a204e6f742061637469766500000000000000000060448201526064016104c4565b60058101805460ff60a01b1916600160a11b1790556002810154600182015460038301546001600160a01b03928316926106f59284929116906116d9565b60018201546040514281526001600160a01b039091169086907fffadd0f4e7d64abb82ef3d770cd739a881c221c0b5b162238659e6567216abe29060200160405180910390a35050505061074860018055565b50565b61075361173c565b61075b611796565b565b6000610767611680565b61076f6117e8565b6001600160a01b0387166107c55760405162461bcd60e51b815260206004820152601a60248201527f4d61726b6574706c6163653a20496e76616c696420746f6b656e00000000000060448201526064016104c4565b600086116108155760405162461bcd60e51b815260206004820152601b60248201527f4d61726b6574706c6163653a20496e76616c696420616d6f756e74000000000060448201526064016104c4565b600085116108655760405162461bcd60e51b815260206004820152601a60248201527f4d61726b6574706c6163653a20496e76616c696420707269636500000000000060448201526064016104c4565b821580610889575042831180156108895750610885426301e13380611e96565b8311155b6108d55760405162461bcd60e51b815260206004820152601f60248201527f4d61726b6574706c6163653a20496e76616c69642065787069726174696f6e0060448201526064016104c4565b6103e88211156109275760405162461bcd60e51b815260206004820152601e60248201527f4d61726b6574706c6163653a20536c69707061676520746f6f2068696768000060448201526064016104c4565b6002546040516352003f2760e01b81526001600160a01b038981166004830152600092610100900416906352003f2790602401602060405180830381865afa158015610977573d6000803e3d6000fd5b505050506040513d601f19601f8201168201806040525081019061099b9190611eaf565b9050806000036109fc5760405162461bcd60e51b815260206004820152602660248201527f4d61726b6574706c6163653a204e6f7420612076616c696420726f79616c7479604482015265103a37b5b2b760d11b60648201526084016104c4565b87610a126001600160a01b03821633308b61182e565b60058054906000610a2283611ec8565b9091555092506000612710610a378682611ee1565b610a41908a611ef4565b610a4b9190611f0b565b90506000612710610a5c8782611e96565b610a66908b611ef4565b610a709190611f0b565b9050604051806101600160405280868152602001336001600160a01b031681526020018c6001600160a01b031681526020018b81526020018a8152602001896001600160a01b0316815260200160006002811115610ad057610ad0611bc0565b81524260208083019190915260408083018b90526060808401879052608093840186905260008a81526006845282902085518155928501516001840180546001600160a01b03199081166001600160a01b0393841617909155928601516002808601805486169284169290921790915591860151600385015593850151600484015560a085015160058401805493841691909516908117855560c08601519394926001600160a81b0319161790600160a01b908490811115610b9457610b94611bc0565b021790555060e08201516006820155610100820151600780830191909155610120830151600880840191909155610140909301516009909201919091556001600160a01b038d8116600081815260209384526040808220805460018082018355918452868420018c905533808452968652818320805491820181558352918590209091018a905580518f81529384018e9052918c1683830152606083018b9052426080840152905190929188917fd0d622403904967a26f680a5fc1e9abad7e3f19e5b6f6950bc8fe0fb9354aa509181900360a00190a450505050610c7860018055565b9695505050505050565b610c8a61173c565b61075b600061186c565b610c9c611680565b610ca46117e8565b600083815260066020526040812054849103610cd25760405162461bcd60e51b81526004016104c490611e49565b6000848152600660205260408120906005820154600160a01b900460ff166002811115610d0157610d01611bc0565b14610d4e5760405162461bcd60e51b815260206004820152601f60248201527f4d61726b6574706c6163653a204c697374696e67206e6f74206163746976650060448201526064016104c4565b600084118015610d62575080600301548411155b610dae5760405162461bcd60e51b815260206004820152601b60248201527f4d61726b6574706c6163653a20496e76616c696420616d6f756e74000000000060448201526064016104c4565b60078101541580610dc3575042816007015410155b610e0f5760405162461bcd60e51b815260206004820152601c60248201527f4d61726b6574706c6163653a204c697374696e6720657870697265640000000060448201526064016104c4565b6001810154336001600160a01b0390911603610e795760405162461bcd60e51b815260206004820152602360248201527f4d61726b6574706c6163653a2043616e6e6f7420627579206f776e206c697374604482015262696e6760e81b60648201526084016104c4565b60008311610ec95760405162461bcd60e51b815260206004820152601e60248201527f4d61726b6574706c6163653a20496e76616c6964206d6178207072696365000060448201526064016104c4565b8281600401541115610f1d5760405162461bcd60e51b815260206004820152601e60248201527f4d61726b6574706c6163653a2050726963652065786365656473206d6178000060448201526064016104c4565b806008015481600401541015610f855760405162461bcd60e51b815260206004820152602760248201527f4d61726b6574706c6163653a2050726963652062656c6f772073656c6c6572206044820152666d696e696d756d60c81b60648201526084016104c4565b806009015481600401541115610fed5760405162461bcd60e51b815260206004820152602760248201527f4d61726b6574706c6163653a2050726963652061626f76652073656c6c6572206044820152666d6178696d756d60c81b60648201526084016104c4565b6000816004015485610fff9190611ef4565b90506000612710600354836110149190611ef4565b61101e9190611f0b565b9050600061102c8284611ee1565b60058501549091506001600160a01b03166111f2578234146110905760405162461bcd60e51b815260206004820152601e60248201527f4d61726b6574706c6163653a20496e636f7272656374207061796d656e74000060448201526064016104c4565b811561113b576004546040516000916001600160a01b03169084908381818185875af1925050503d80600081146110e3576040519150601f19603f3d011682016040523d82523d6000602084013e6110e8565b606091505b50509050806111395760405162461bcd60e51b815260206004820181905260248201527f4d61726b6574706c6163653a20466565207472616e73666572206661696c656460448201526064016104c4565b505b60018401546040516000916001600160a01b03169083908381818185875af1925050503d806000811461118a576040519150601f19603f3d011682016040523d82523d6000602084013e61118f565b606091505b50509050806111ec5760405162461bcd60e51b815260206004820152602360248201527f4d61726b6574706c6163653a2053656c6c6572207472616e73666572206661696044820152621b195960ea1b60648201526084016104c4565b50611298565b34156112405760405162461bcd60e51b815260206004820152601e60248201527f4d61726b6574706c6163653a20557365207061796d656e7420746f6b656e000060448201526064016104c4565b60058401546001600160a01b031661125a8133308761182e565b821561127a5760045461127a906001600160a01b038381169116856116d9565b6001850154611296906001600160a01b038381169116846116d9565b505b60028401546001600160a01b03166112b181338a6116d9565b878560030160008282546112c59190611ee1565b909155505060038501546000036112ec5760058501805460ff60a01b1916600160a01b1790555b60018501546002860154604080516001600160a01b039283168152602081018c905290810187905260608101869052426080820152339291909116908b907fe046d05e4a42c1703f92ea30817afe631c375b595c4ffed6341dd577d8289f259060a00160405180910390a450505050505061136660018055565b505050565b61137361173c565b61075b6118bc565b6008602052816000526040600020818154811061139757600080fd5b90600052602060002001600091509150505481565b6113b461173c565b6103e88111156114065760405162461bcd60e51b815260206004820152601960248201527f4d61726b6574706c6163653a2046656520746f6f20686967680000000000000060448201526064016104c4565b6003805490829055604080518281526020810184905242918101919091527fcddce7ef430c4766c1f253a66171f8fd727b7db83a665a26261bd1aa9afbcbe3906060015b60405180910390a15050565b6007602052816000526040600020818154811061139757600080fd5b6001600160a01b0381166000908152600760209081526040918290208054835181840281018401909452808452606093928301828280156114d257602002820191906000526020600020905b8154815260200190600101908083116114be575b50505050509050919050565b6114e661173c565b6001600160a01b03811661153c5760405162461bcd60e51b815260206004820152601e60248201527f4d61726b6574706c6163653a20496e76616c696420726563697069656e74000060448201526064016104c4565b600480546001600160a01b038381166001600160a01b0319831681179093556040805191909216808252602082019390935242918101919091527f5b37de1756559a07f666dd25d2882371ceaefe601a1a3beb0ddf0e206ce0db199060600161144a565b6001600160a01b0381166000908152600860209081526040918290208054835181840281018401909452808452606093928301828280156114d257602002820191906000526020600020908154815260200190600101908083116114be5750505050509050919050565b61161261173c565b6001600160a01b0381166116775760405162461bcd60e51b815260206004820152602660248201527f4f776e61626c653a206e6577206f776e657220697320746865207a65726f206160448201526564647265737360d01b60648201526084016104c4565b6107488161186c565b6002600154036116d25760405162461bcd60e51b815260206004820152601f60248201527f5265656e7472616e637947756172643a207265656e7472616e742063616c6c0060448201526064016104c4565b6002600155565b6040516001600160a01b03831660248201526044810182905261136690849063a9059cbb60e01b906064015b60408051601f198184030181529190526020810180516001600160e01b03166001600160e01b0319909316929092179091526118f9565b6000546001600160a01b0316331461075b5760405162461bcd60e51b815260206004820181905260248201527f4f776e61626c653a2063616c6c6572206973206e6f7420746865206f776e657260448201526064016104c4565b61179e6119ce565b6002805460ff191690557f5db9ee0a495bf2e6ff9c91a7834c1ba4fdd244a5e8aa4e537bd38aeae4b073aa335b6040516001600160a01b03909116815260200160405180910390a1565b60025460ff161561075b5760405162461bcd60e51b815260206004820152601060248201526f14185d5cd8589b194e881c185d5cd95960821b60448201526064016104c4565b6040516001600160a01b03808516602483015283166044820152606481018290526118669085906323b872dd60e01b90608401611705565b50505050565b600080546001600160a01b038381166001600160a01b0319831681178455604051919092169283917f8be0079c531659141344cd1fd0a4f28419497f9722a3daafe3b4186f6b6457e09190a35050565b6118c46117e8565b6002805460ff191660011790557f62e78cea01bee320cd4e420270b5ea74000d11b0c9f74754ebdbfc544b05a2586117cb3390565b600061194e826040518060400160405280602081526020017f5361666545524332303a206c6f772d6c6576656c2063616c6c206661696c6564815250856001600160a01b0316611a179092919063ffffffff16565b905080516000148061196f57508080602001905181019061196f9190611f2d565b6113665760405162461bcd60e51b815260206004820152602a60248201527f5361666545524332303a204552433230206f7065726174696f6e20646964206e6044820152691bdd081cdd58d8d9595960b21b60648201526084016104c4565b60025460ff1661075b5760405162461bcd60e51b815260206004820152601460248201527314185d5cd8589b194e881b9bdd081c185d5cd95960621b60448201526064016104c4565b6060611a268484600085611a2e565b949350505050565b606082471015611a8f5760405162461bcd60e51b815260206004820152602660248201527f416464726573733a20696e73756666696369656e742062616c616e636520666f6044820152651c8818d85b1b60d21b60648201526084016104c4565b600080866001600160a01b03168587604051611aab9190611f73565b60006040518083038185875af1925050503d8060008114611ae8576040519150601f19603f3d011682016040523d82523d6000602084013e611aed565b606091505b5091509150611afe87838387611b09565b979650505050505050565b60608315611b78578251600003611b71576001600160a01b0385163b611b715760405162461bcd60e51b815260206004820152601d60248201527f416464726573733a2063616c6c20746f206e6f6e2d636f6e747261637400000060448201526064016104c4565b5081611a26565b611a268383815115611b8d5781518083602001fd5b8060405162461bcd60e51b81526004016104c49190611f8f565b600060208284031215611bb957600080fd5b5035919050565b634e487b7160e01b600052602160045260246000fd5b60038110611bf457634e487b7160e01b600052602160045260246000fd5b9052565b81518152602080830151610160830191611c1c908401826001600160a01b03169052565b506040830151611c3760408401826001600160a01b03169052565b50606083015160608301526080830151608083015260a0830151611c6660a08401826001600160a01b03169052565b5060c0830151611c7960c0840182611bd6565b5060e083810151908301526101008084015190830152610120808401519083015261014092830151929091019190915290565b80356001600160a01b0381168114611cc357600080fd5b919050565b60008060008060008060c08789031215611ce157600080fd5b611cea87611cac565b95506020870135945060408701359350611d0660608801611cac565b92506080870135915060a087013590509295509295509295565b600080600060608486031215611d3557600080fd5b505081359360208301359350604090920135919050565b60008060408385031215611d5f57600080fd5b611d6883611cac565b946020939093013593505050565b600060208284031215611d8857600080fd5b611d9182611cac565b9392505050565b6020808252825182820181905260009190848201906040850190845b81811015611dd057835183529284019291840191600101611db4565b50909695505050505050565b8b81526001600160a01b038b811660208301528a81166040830152606082018a905260808201899052871660a08201526101608101611e1e60c0830188611bd6565b8560e08301528461010083015283610120830152826101408301529c9b505050505050505050505050565b6020808252601c908201527f4d61726b6574706c6163653a20496e76616c6964206c697374696e6700000000604082015260600190565b634e487b7160e01b600052601160045260246000fd5b80820180821115611ea957611ea9611e80565b92915050565b600060208284031215611ec157600080fd5b5051919050565b600060018201611eda57611eda611e80565b5060010190565b81810381811115611ea957611ea9611e80565b8082028115828204841417611ea957611ea9611e80565b600082611f2857634e487b7160e01b600052601260045260246000fd5b500490565b600060208284031215611f3f57600080fd5b81518015158114611d9157600080fd5b60005b83811015611f6a578181015183820152602001611f52565b50506000910152565b60008251611f85818460208701611f4f565b9190910192915050565b6020815260008251806020840152611fae816040850160208701611f4f565b601f01601f1916919091016040019291505056fea2646970667358221220df5cf1c3843ffecc3b32f4909817b0d568622c89108595fd73808dd20c5438a064736f6c63430008140033",
  "linkReferences": {},
  "deployedLinkReferences": {}
}