{
  "_format": "hh-sol-artifact-1",
  "contractName": "GovernanceToken",
  "sourceName": "contracts/IPDAO.sol",
  "abi": [
    {
      "inputs": [
        {
          "internalType": "string",
          "name": "name",
          "type": "string"
        },
        {
          "internalType": "string",
          "name": "symbol",
          "type": "string"
        },
        {
          "internalType": "address",
          "name": "_royaltyToken",
          "type": "address"
        }
      ],
      "stateMutability": "nonpayable",
      "type": "constructor"
    },
    {
      "inputs": [],
      "name": "InvalidShortString",
      "type": "error"
    },
    {
      "inputs": [
        {
          "internalType": "string",
          "name": "str",
          "type": "string"
        }
      ],
      "name": "StringTooLong",
      "type": "error"
    },
    {
      "anonymous": false,
      "inputs": [
        {
          "indexed": true,
          "internalType": "address",
          "name": "owner",
          "type": "address"
        },
        {
          "indexed": true,
          "internalType": "address",
          "name": "spender",
          "type": "address"
        },
        {
          "indexed": false,
          "internalType": "uint256",
          "name": "value",
          "type": "uint256"
        }
      ],
      "name": "Approval",
      "type": "event"
    },
    {
      "anonymous": false,
      "inputs": [
        {
          "indexed": true,
          "internalType": "address",
          "name": "delegator",
          "type": "address"
        },
        {
          "indexed": true,
          "internalType": "address",
          "name": "fromDelegate",
          "type": "address"
        },
        {
          "indexed": true,
          "internalType": "address",
          "name": "toDelegate",
          "type": "address"
        }
      ],
      "name": "DelegateChanged",
      "type": "event"
    },
    {
      "anonymous": false,
      "inputs": [
        {
          "indexed": true,
          "internalType": "address",
          "name": "delegate",
          "type": "address"
        },
        {
          "indexed": false,
          "internalType": "uint256",
          "name": "previousBalance",
          "type": "uint256"
        },
        {
          "indexed": false,
          "internalType": "uint256",
          "name": "newBalance",
          "type": "uint256"
        }
      ],
      "name": "DelegateVotesChanged",
      "type": "event"
    },
    {
      "anonymous": false,
      "inputs": [],
      "name": "EIP712DomainChanged",
      "type": "event"
    },
    {
      "anonymous": false,
      "inputs": [
        {
          "indexed": true,
          "internalType": "address",
          "name": "previousOwner",
          "type": "address"
        },
        {
          "indexed": true,
          "internalType": "address",
          "name": "newOwner",
          "type": "address"
        }
      ],
      "name": "OwnershipTransferred",
      "type": "event"
    },
    {
      "anonymous": false,
      "inputs": [
        {
          "indexed": true,
          "internalType": "address",
          "name": "from",
          "type": "address"
        },
        {
          "indexed": true,
          "internalType": "address",
          "name": "to",
          "type": "address"
        },
        {
          "indexed": false,
          "internalType": "uint256",
          "name": "value",
          "type": "uint256"
        }
      ],
      "name": "Transfer",
      "type": "event"
    },
    {
      "inputs": [],
      "name": "CLOCK_MODE",
      "outputs": [
        {
          "internalType": "string",
          "name": "",
          "type": "string"
        }
      ],
      "stateMutability": "view",
      "type": "function"
    },
    {
      "inputs": [],
      "name": "DOMAIN_SEPARATOR",
      "outputs": [
        {
          "internalType": "bytes32",
          "name": "",
          "type": "bytes32"
        }
      ],
      "stateMutability": "view",
      "type": "function"
    },
    {
      "inputs": [
        {
          "internalType": "address",
          "name": "owner",
          "type": "address"
        },
        {
          "internalType": "address",
          "name": "spender",
          "type": "address"
        }
      ],
      "name": "allowance",
      "outputs": [
        {
          "internalType": "uint256",
          "name": "",
          "type": "uint256"
        }
      ],
      "stateMutability": "view",
      "type": "function"
    },
    {
      "inputs": [
        {
          "internalType": "address",
          "name": "spender",
          "type": "address"
        },
        {
          "internalType": "uint256",
          "name": "amount",
          "type": "uint256"
        }
      ],
      "name": "approve",
      "outputs": [
        {
          "internalType": "bool",
          "name": "",
          "type": "bool"
        }
      ],
      "stateMutability": "nonpayable",
      "type": "function"
    },
    {
      "inputs": [
        {
          "internalType": "address",
          "name": "account",
          "type": "address"
        }
      ],
      "name": "balanceOf",
      "outputs": [
        {
          "internalType": "uint256",
          "name": "",
          "type": "uint256"
        }
      ],
      "stateMutability": "view",
      "type": "function"
    },
    {
      "inputs": [
        {
          "internalType": "address",
          "name": "account",
          "type": "address"
        },
        {
          "internalType": "uint32",
          "name": "pos",
          "type": "uint32"
        }
      ],
      "name": "checkpoints",
      "outputs": [
        {
          "components": [
            {
              "internalType": "uint32",
              "name": "fromBlock",
              "type": "uint32"
            },
            {
              "internalType": "uint224",
              "name": "votes",
              "type": "uint224"
            }
          ],
          "internalType": "struct ERC20Votes.Checkpoint",
          "name": "",
          "type": "tuple"
        }
      ],
      "stateMutability": "view",
      "type": "function"
    },
    {
      "inputs": [],
      "name": "clock",
      "outputs": [
        {
          "internalType": "uint48",
          "name": "",
          "type": "uint48"
        }
      ],
      "stateMutability": "view",
      "type": "function"
    },
    {
      "inputs": [],
      "name": "decimals",
      "outputs": [
        {
          "internalType": "uint8",
          "name": "",
          "type": "uint8"
        }
      ],
      "stateMutability": "view",
      "type": "function"
    },
    {
      "inputs": [
        {
          "internalType": "address",
          "name": "spender",
          "type": "address"
        },
        {
          "internalType": "uint256",
          "name": "subtractedValue",
          "type": "uint256"
        }
      ],
      "name": "decreaseAllowance",
      "outputs": [
        {
          "internalType": "bool",
          "name": "",
          "type": "bool"
        }
      ],
      "stateMutability": "nonpayable",
      "type": "function"
    },
    {
      "inputs": [
        {
          "internalType": "address",
          "name": "delegatee",
          "type": "address"
        }
      ],
      "name": "delegate",
      "outputs": [],
      "stateMutability": "nonpayable",
      "type": "function"
    },
    {
      "inputs": [
        {
          "internalType": "address",
          "name": "delegatee",
          "type": "address"
        },
        {
          "internalType": "uint256",
          "name": "nonce",
          "type": "uint256"
        },
        {
          "internalType": "uint256",
          "name": "expiry",
          "type": "uint256"
        },
        {
          "internalType": "uint8",
          "name": "v",
          "type": "uint8"
        },
        {
          "internalType": "bytes32",
          "name": "r",
          "type": "bytes32"
        },
        {
          "internalType": "bytes32",
          "name": "s",
          "type": "bytes32"
        }
      ],
      "name": "delegateBySig",
      "outputs": [],
      "stateMutability": "nonpayable",
      "type": "function"
    },
    {
      "inputs": [
        {
          "internalType": "address",
          "name": "account",
          "type": "address"
        }
      ],
      "name": "delegates",
      "outputs": [
        {
          "internalType": "address",
          "name": "",
          "type": "address"
        }
      ],
      "stateMutability": "view",
      "type": "function"
    },
    {
      "inputs": [],
      "name": "eip712Domain",
      "outputs": [
        {
          "internalType": "bytes1",
          "name": "fields",
          "type": "bytes1"
        },
        {
          "internalType": "string",
          "name": "name",
          "type": "string"
        },
        {
          "internalType": "string",
          "name": "version",
          "type": "string"
        },
        {
          "internalType": "uint256",
          "name": "chainId",
          "type": "uint256"
        },
        {
          "internalType": "address",
          "name": "verifyingContract",
          "type": "address"
        },
        {
          "internalType": "bytes32",
          "name": "salt",
          "type": "bytes32"
        },
        {
          "internalType": "uint256[]",
          "name": "extensions",
          "type": "uint256[]"
        }
      ],
      "stateMutability": "view",
      "type": "function"
    },
    {
      "inputs": [
        {
          "internalType": "uint256",
          "name": "timepoint",
          "type": "uint256"
        }
      ],
      "name": "getPastTotalSupply",
      "outputs": [
        {
          "internalType": "uint256",
          "name": "",
          "type": "uint256"
        }
      ],
      "stateMutability": "view",
      "type": "function"
    },
    {
      "inputs": [
        {
          "internalType": "address",
          "name": "account",
          "type": "address"
        },
        {
          "internalType": "uint256",
          "name": "timepoint",
          "type": "uint256"
        }
      ],
      "name": "getPastVotes",
      "outputs": [
        {
          "internalType": "uint256",
          "name": "",
          "type": "uint256"
        }
      ],
      "stateMutability": "view",
      "type": "function"
    },
    {
      "inputs": [
        {
          "internalType": "address",
          "name": "account",
          "type": "address"
        }
      ],
      "name": "getVotes",
      "outputs": [
        {
          "internalType": "uint256",
          "name": "",
          "type": "uint256"
        }
      ],
      "stateMutability": "view",
      "type": "function"
    },
    {
      "inputs": [
        {
          "internalType": "address",
          "name": "spender",
          "type": "address"
        },
        {
          "internalType": "uint256",
          "name": "addedValue",
          "type": "uint256"
        }
      ],
      "name": "increaseAllowance",
      "outputs": [
        {
          "internalType": "bool",
          "name": "",
          "type": "bool"
        }
      ],
      "stateMutability": "nonpayable",
      "type": "function"
    },
    {
      "inputs": [],
      "name": "name",
      "outputs": [
        {
          "internalType": "string",
          "name": "",
          "type": "string"
        }
      ],
      "stateMutability": "view",
      "type": "function"
    },
    {
      "inputs": [
        {
          "internalType": "address",
          "name": "owner",
          "type": "address"
        }
      ],
      "name": "nonces",
      "outputs": [
        {
          "internalType": "uint256",
          "name": "",
          "type": "uint256"
        }
      ],
      "stateMutability": "view",
      "type": "function"
    },
    {
      "inputs": [
        {
          "internalType": "address",
          "name": "account",
          "type": "address"
        }
      ],
      "name": "numCheckpoints",
      "outputs": [
        {
          "internalType": "uint32",
          "name": "",
          "type": "uint32"
        }
      ],
      "stateMutability": "view",
      "type": "function"
    },
    {
      "inputs": [],
      "name": "owner",
      "outputs": [
        {
          "internalType": "address",
          "name": "",
          "type": "address"
        }
      ],
      "stateMutability": "view",
      "type": "function"
    },
    {
      "inputs": [
        {
          "internalType": "address",
          "name": "owner",
          "type": "address"
        },
        {
          "internalType": "address",
          "name": "spender",
          "type": "address"
        },
        {
          "internalType": "uint256",
          "name": "value",
          "type": "uint256"
        },
        {
          "internalType": "uint256",
          "name": "deadline",
          "type": "uint256"
        },
        {
          "internalType": "uint8",
          "name": "v",
          "type": "uint8"
        },
        {
          "internalType": "bytes32",
          "name": "r",
          "type": "bytes32"
        },
        {
          "internalType": "bytes32",
          "name": "s",
          "type": "bytes32"
        }
      ],
      "name": "permit",
      "outputs": [],
      "stateMutability": "nonpayable",
      "type": "function"
    },
    {
      "inputs": [],
      "name": "renounceOwnership",
      "outputs": [],
      "stateMutability": "nonpayable",
      "type": "function"
    },
    {
      "inputs": [],
      "name": "royaltyToken",
      "outputs": [
        {
          "internalType": "address",
          "name": "",
          "type": "address"
        }
      ],
      "stateMutability": "view",
      "type": "function"
    },
    {
      "inputs": [],
      "name": "symbol",
      "outputs": [
        {
          "internalType": "string",
          "name": "",
          "type": "string"
        }
      ],
      "stateMutability": "view",
      "type": "function"
    },
    {
      "inputs": [],
      "name": "totalSupply",
      "outputs": [
        {
          "internalType": "uint256",
          "name": "",
          "type": "uint256"
        }
      ],
      "stateMutability": "view",
      "type": "function"
    },
    {
      "inputs": [
        {
          "internalType": "address",
          "name": "to",
          "type": "address"
        },
        {
          "internalType": "uint256",
          "name": "amount",
          "type": "uint256"
        }
      ],
      "name": "transfer",
      "outputs": [
        {
          "internalType": "bool",
          "name": "",
          "type": "bool"
        }
      ],
      "stateMutability": "nonpayable",
      "type": "function"
    },
    {
      "inputs": [
        {
          "internalType": "address",
          "name": "from",
          "type": "address"
        },
        {
          "internalType": "address",
          "name": "to",
          "type": "address"
        },
        {
          "internalType": "uint256",
          "name": "amount",
          "type": "uint256"
        }
      ],
      "name": "transferFrom",
      "outputs": [
        {
          "internalType": "bool",
          "name": "",
          "type": "bool"
        }
      ],
      "stateMutability": "nonpayable",
      "type": "function"
    },
    {
      "inputs": [
        {
          "internalType": "address",
          "name": "newOwner",
          "type": "address"
        }
      ],
      "name": "transferOwnership",
      "outputs": [],
      "stateMutability": "nonpayable",
      "type": "function"
    },
    {
      "inputs": [
        {
          "internalType": "uint256",
          "name": "amount",
          "type": "uint256"
        }
      ],
      "name": "unwrap",
      "outputs": [],
      "stateMutability": "nonpayable",
      "type": "function"
    },
    {
      "inputs": [
        {
          "internalType": "uint256",
          "name": "amount",
          "type": "uint256"
        }
      ],
      "name": "wrap",
      "outputs": [],
      "stateMutability": "nonpayable",
      "type": "function"
    }
  ],
  "bytecode": "0x6101606040523480156200001257600080fd5b5060405162002a8538038062002a8583398101604081905262000035916200030e565b6040805180820190915260018152603160f81b602082015283908190818560036200006183826200042a565b5060046200007082826200042a565b5062000082915083905060056200016a565b61012052620000938160066200016a565b61014052815160208084019190912060e052815190820120610100524660a0526200012160e05161010051604080517f8b73c3c69bb8fe3d512ecc4cf759cc79239f7b179b0ffacaa9a75d522b39400f60208201529081019290925260608201524660808201523060a082015260009060c00160405160208183030381529060405280519060200120905090565b60805250503060c052506200013633620001a3565b6200014133620001a3565b600d80546001600160a01b0319166001600160a01b039290921691909117905550620005509050565b60006020835110156200018a576200018283620001f5565b90506200019d565b816200019784826200042a565b5060ff90505b92915050565b600c80546001600160a01b038381166001600160a01b0319831681179093556040519116919082907f8be0079c531659141344cd1fd0a4f28419497f9722a3daafe3b4186f6b6457e090600090a35050565b600080829050601f815111156200022c578260405163305a27a960e01b8152600401620002239190620004f6565b60405180910390fd5b805162000239826200052b565b179392505050565b634e487b7160e01b600052604160045260246000fd5b60005b83811015620002745781810151838201526020016200025a565b50506000910152565b600082601f8301126200028f57600080fd5b81516001600160401b0380821115620002ac57620002ac62000241565b604051601f8301601f19908116603f01168101908282118183101715620002d757620002d762000241565b81604052838152866020858801011115620002f157600080fd5b6200030484602083016020890162000257565b9695505050505050565b6000806000606084860312156200032457600080fd5b83516001600160401b03808211156200033c57600080fd5b6200034a878388016200027d565b945060208601519150808211156200036157600080fd5b5062000370868287016200027d565b604086015190935090506001600160a01b03811681146200039057600080fd5b809150509250925092565b600181811c90821680620003b057607f821691505b602082108103620003d157634e487b7160e01b600052602260045260246000fd5b50919050565b601f8211156200042557600081815260208120601f850160051c81016020861015620004005750805b601f850160051c820191505b8181101562000421578281556001016200040c565b5050505b505050565b81516001600160401b0381111562000446576200044662000241565b6200045e816200045784546200039b565b84620003d7565b602080601f8311600181146200049657600084156200047d5750858301515b600019600386901b1c1916600185901b17855562000421565b600085815260208120601f198616915b82811015620004c757888601518255948401946001909101908401620004a6565b5085821015620004e65787850151600019600388901b60f8161c191681555b5050505050600190811b01905550565b60208152600082518060208401526200051781604085016020870162000257565b601f01601f19169190910160400192915050565b80516020808301519190811015620003d15760001960209190910360031b1b16919050565b60805160a05160c05160e0516101005161012051610140516124da620005ab60003960006107780152600061074d0152600061123e01526000611216015260006111710152600061119b015260006111c501526124da6000f3fe608060405234801561001057600080fd5b50600436106101e55760003560e01c806384b0196e1161010f578063b96354cf116100a2578063de0e9a3e11610071578063de0e9a3e14610445578063ea598cb014610458578063f1127ed81461046b578063f2fde38b146104a857600080fd5b8063b96354cf146103f9578063c3cda5201461040c578063d505accf1461041f578063dd62ed3e1461043257600080fd5b806395d89b41116100de57806395d89b41146103b85780639ab24eb0146103c0578063a457c2d7146103d3578063a9059cbb146103e657600080fd5b806384b0196e1461035a5780638da5cb5b146103755780638e539e8c1461038657806391ddadf41461039957600080fd5b80633a46b1a8116101875780636fcfff45116101565780636fcfff45146102ee57806370a0823114610316578063715018a61461033f5780637ecebe001461034757600080fd5b80633a46b1a81461027a5780634bf5d7e91461028d578063587cde1e146102955780635c19a95c146102d957600080fd5b806323b872dd116101c357806323b872dd1461023d578063313ce567146102505780633644e5151461025f578063395093511461026757600080fd5b806306fdde03146101ea578063095ea7b31461020857806318160ddd1461022b575b600080fd5b6101f26104bb565b6040516101ff9190612109565b60405180910390f35b61021b610216366004612138565b61054d565b60405190151581526020016101ff565b6002545b6040519081526020016101ff565b61021b61024b366004612162565b610567565b604051601281526020016101ff565b61022f61058b565b61021b610275366004612138565b61059a565b61022f610288366004612138565b6105bc565b6101f2610646565b6102c16102a336600461219e565b6001600160a01b039081166000908152600960205260409020541690565b6040516001600160a01b0390911681526020016101ff565b6102ec6102e736600461219e565b6106de565b005b6103016102fc36600461219e565b6106eb565b60405163ffffffff90911681526020016101ff565b61022f61032436600461219e565b6001600160a01b031660009081526020819052604090205490565b6102ec61070d565b61022f61035536600461219e565b610721565b61036261073f565b6040516101ff97969594939291906121b9565b600c546001600160a01b03166102c1565b61022f61039436600461224f565b6107c8565b6103a161082f565b60405165ffffffffffff90911681526020016101ff565b6101f261083a565b61022f6103ce36600461219e565b610849565b61021b6103e1366004612138565b6108cb565b61021b6103f4366004612138565b610946565b600d546102c1906001600160a01b031681565b6102ec61041a366004612279565b610954565b6102ec61042d3660046122d1565b610a8a565b61022f61044036600461233b565b610bee565b6102ec61045336600461224f565b610c19565b6102ec61046636600461224f565b610c9c565b61047e61047936600461236e565b610d22565b60408051825163ffffffff1681526020928301516001600160e01b031692810192909252016101ff565b6102ec6104b636600461219e565b610da6565b6060600380546104ca906123ae565b80601f01602080910402602001604051908101604052809291908181526020018280546104f6906123ae565b80156105435780601f1061051857610100808354040283529160200191610543565b820191906000526020600020905b81548152906001019060200180831161052657829003601f168201915b5050505050905090565b60003361055b818585610e1c565b60019150505b92915050565b600033610575858285610f40565b610580858585610fba565b506001949350505050565b6000610595611164565b905090565b60003361055b8185856105ad8383610bee565b6105b791906123f8565b610e1c565b60006105c661082f565b65ffffffffffff16821061061d5760405162461bcd60e51b815260206004820152601960248201527804552433230566f7465733a20667574757265206c6f6f6b757603c1b60448201526064015b60405180910390fd5b6001600160a01b0383166000908152600a6020526040902061063f908361128f565b9392505050565b60604361065161082f565b65ffffffffffff16146106a65760405162461bcd60e51b815260206004820152601d60248201527f4552433230566f7465733a2062726f6b656e20636c6f636b206d6f64650000006044820152606401610614565b5060408051808201909152601d81527f6d6f64653d626c6f636b6e756d6265722666726f6d3d64656661756c74000000602082015290565b6106e83382611378565b50565b6001600160a01b0381166000908152600a6020526040812054610561906113f1565b61071561145a565b61071f60006114b4565b565b6001600160a01b038116600090815260076020526040812054610561565b6000606080828080836107737f00000000000000000000000000000000000000000000000000000000000000006005611506565b61079e7f00000000000000000000000000000000000000000000000000000000000000006006611506565b60408051600080825260208201909252600f60f81b9b939a50919850469750309650945092509050565b60006107d261082f565b65ffffffffffff1682106108245760405162461bcd60e51b815260206004820152601960248201527804552433230566f7465733a20667574757265206c6f6f6b757603c1b6044820152606401610614565b610561600b8361128f565b6000610595436115b1565b6060600480546104ca906123ae565b6001600160a01b0381166000908152600a602052604081205480156108b8576001600160a01b0383166000908152600a60205260409020805460001983019081106108965761089661240b565b60009182526020909120015464010000000090046001600160e01b03166108bb565b60005b6001600160e01b03169392505050565b600033816108d98286610bee565b9050838110156109395760405162461bcd60e51b815260206004820152602560248201527f45524332303a2064656372656173656420616c6c6f77616e63652062656c6f77604482015264207a65726f60d81b6064820152608401610614565b6105808286868403610e1c565b60003361055b818585610fba565b834211156109a45760405162461bcd60e51b815260206004820152601d60248201527f4552433230566f7465733a207369676e617475726520657870697265640000006044820152606401610614565b604080517fe48329057bfd03d55e49b547132e39cffd9c1820ad7b9d4c5307691425d15adf60208201526001600160a01b038816918101919091526060810186905260808101859052600090610a1e90610a169060a00160405160208183030381529060405280519060200120611618565b858585611645565b9050610a298161166d565b8614610a775760405162461bcd60e51b815260206004820152601960248201527f4552433230566f7465733a20696e76616c6964206e6f6e6365000000000000006044820152606401610614565b610a818188611378565b50505050505050565b83421115610ada5760405162461bcd60e51b815260206004820152601d60248201527f45524332305065726d69743a206578706972656420646561646c696e650000006044820152606401610614565b60007f6e71edae12b1b97f4d1f60370fef10105fa2faae0126114a169c64845d6126c9888888610b098c61166d565b6040805160208101969096526001600160a01b0394851690860152929091166060840152608083015260a082015260c0810186905260e0016040516020818303038152906040528051906020012090506000610b6482611618565b90506000610b7482878787611645565b9050896001600160a01b0316816001600160a01b031614610bd75760405162461bcd60e51b815260206004820152601e60248201527f45524332305065726d69743a20696e76616c6964207369676e617475726500006044820152606401610614565b610be28a8a8a610e1c565b50505050505050505050565b6001600160a01b03918216600090815260016020908152604080832093909416825291909152205490565b610c233382611695565b600d5460405163a9059cbb60e01b8152336004820152602481018390526001600160a01b039091169063a9059cbb906044016020604051808303816000875af1158015610c74573d6000803e3d6000fd5b505050506040513d601f19601f82011682018060405250810190610c989190612421565b5050565b600d546040516323b872dd60e01b8152336004820152306024820152604481018390526001600160a01b03909116906323b872dd906064016020604051808303816000875af1158015610cf3573d6000803e3d6000fd5b505050506040513d601f19601f82011682018060405250810190610d179190612421565b506106e833826116ad565b60408051808201909152600080825260208201526001600160a01b0383166000908152600a60205260409020805463ffffffff8416908110610d6657610d6661240b565b60009182526020918290206040805180820190915291015463ffffffff8116825264010000000090046001600160e01b0316918101919091529392505050565b610dae61145a565b6001600160a01b038116610e135760405162461bcd60e51b815260206004820152602660248201527f4f776e61626c653a206e6577206f776e657220697320746865207a65726f206160448201526564647265737360d01b6064820152608401610614565b6106e8816114b4565b6001600160a01b038316610e7e5760405162461bcd60e51b8152602060048201526024808201527f45524332303a20617070726f76652066726f6d20746865207a65726f206164646044820152637265737360e01b6064820152608401610614565b6001600160a01b038216610edf5760405162461bcd60e51b815260206004820152602260248201527f45524332303a20617070726f766520746f20746865207a65726f206164647265604482015261737360f01b6064820152608401610614565b6001600160a01b0383811660008181526001602090815260408083209487168084529482529182902085905590518481527f8c5be1e5ebec7d5bd14f71427d1e84f3dd0314c0f7b2291e5b200ac8c7c3b925910160405180910390a3505050565b6000610f4c8484610bee565b90506000198114610fb45781811015610fa75760405162461bcd60e51b815260206004820152601d60248201527f45524332303a20696e73756666696369656e7420616c6c6f77616e63650000006044820152606401610614565b610fb48484848403610e1c565b50505050565b6001600160a01b03831661101e5760405162461bcd60e51b815260206004820152602560248201527f45524332303a207472616e736665722066726f6d20746865207a65726f206164604482015264647265737360d81b6064820152608401610614565b6001600160a01b0382166110805760405162461bcd60e51b815260206004820152602360248201527f45524332303a207472616e7366657220746f20746865207a65726f206164647260448201526265737360e81b6064820152608401610614565b6001600160a01b038316600090815260208190526040902054818110156110f85760405162461bcd60e51b815260206004820152602660248201527f45524332303a207472616e7366657220616d6f756e7420657863656564732062604482015265616c616e636560d01b6064820152608401610614565b6001600160a01b03848116600081815260208181526040808320878703905593871680835291849020805487019055925185815290927fddf252ad1be2c89b69c2b068fc378daa952ba7f163c4a11628f55a4df523b3ef910160405180910390a3610fb484848461173c565b6000306001600160a01b037f0000000000000000000000000000000000000000000000000000000000000000161480156111bd57507f000000000000000000000000000000000000000000000000000000000000000046145b156111e757507f000000000000000000000000000000000000000000000000000000000000000090565b610595604080517f8b73c3c69bb8fe3d512ecc4cf759cc79239f7b179b0ffacaa9a75d522b39400f60208201527f0000000000000000000000000000000000000000000000000000000000000000918101919091527f000000000000000000000000000000000000000000000000000000000000000060608201524660808201523060a082015260009060c00160405160208183030381529060405280519060200120905090565b8154600090818160058111156112e95760006112aa8461176e565b6112b49085612443565b600088815260209020909150869082015463ffffffff1611156112d9578091506112e7565b6112e48160016123f8565b92505b505b808210156113365760006112fd8383611856565b600088815260209020909150869082015463ffffffff16111561132257809150611330565b61132d8160016123f8565b92505b506112e9565b8015611362576000868152602090208101600019015464010000000090046001600160e01b0316611365565b60005b6001600160e01b03169695505050505050565b6001600160a01b038281166000818152600960208181526040808420805485845282862054949093528787166001600160a01b03198416811790915590519190951694919391928592917f3134e8a2e6d97e929a7e54011ea5485d7d196dd5f0ba4d4ef95803e8e3fc257f9190a4610fb4828483611871565b600063ffffffff8211156114565760405162461bcd60e51b815260206004820152602660248201527f53616665436173743a2076616c756520646f65736e27742066697420696e203360448201526532206269747360d01b6064820152608401610614565b5090565b600c546001600160a01b0316331461071f5760405162461bcd60e51b815260206004820181905260248201527f4f776e61626c653a2063616c6c6572206973206e6f7420746865206f776e65726044820152606401610614565b600c80546001600160a01b038381166001600160a01b0319831681179093556040519116919082907f8be0079c531659141344cd1fd0a4f28419497f9722a3daafe3b4186f6b6457e090600090a35050565b606060ff831461152057611519836119ae565b9050610561565b81805461152c906123ae565b80601f0160208091040260200160405190810160405280929190818152602001828054611558906123ae565b80156115a55780601f1061157a576101008083540402835291602001916115a5565b820191906000526020600020905b81548152906001019060200180831161158857829003601f168201915b50505050509050610561565b600065ffffffffffff8211156114565760405162461bcd60e51b815260206004820152602660248201527f53616665436173743a2076616c756520646f65736e27742066697420696e203460448201526538206269747360d01b6064820152608401610614565b6000610561611625611164565b8360405161190160f01b8152600281019290925260228201526042902090565b6000806000611656878787876119ed565b9150915061166381611ab1565b5095945050505050565b6001600160a01b03811660009081526007602052604090208054600181018255905b50919050565b61169f8282611bfb565b610fb4600b611d3483611d40565b6116b78282611eb5565b6002546001600160e01b0310156117295760405162461bcd60e51b815260206004820152603060248201527f4552433230566f7465733a20746f74616c20737570706c79207269736b73206f60448201526f766572666c6f77696e6720766f74657360801b6064820152608401610614565b610fb4600b611f7c83611d40565b505050565b6001600160a01b0383811660009081526009602052604080822054858416835291205461173792918216911683611871565b60008160000361178057506000919050565b6000600161178d84611f88565b901c6001901b905060018184816117a6576117a6612456565b048201901c905060018184816117be576117be612456565b048201901c905060018184816117d6576117d6612456565b048201901c905060018184816117ee576117ee612456565b048201901c9050600181848161180657611806612456565b048201901c9050600181848161181e5761181e612456565b048201901c9050600181848161183657611836612456565b048201901c905061063f8182858161185057611850612456565b0461201c565b6000611865600284841861246c565b61063f908484166123f8565b816001600160a01b0316836001600160a01b0316141580156118935750600081115b15611737576001600160a01b03831615611921576001600160a01b0383166000908152600a6020526040812081906118ce90611d3485611d40565b91509150846001600160a01b03167fdec2bacdd2f05b59de34da9b523dff8be42e5e38e818c82fdb0bae774387a7248383604051611916929190918252602082015260400190565b60405180910390a250505b6001600160a01b03821615611737576001600160a01b0382166000908152600a60205260408120819061195790611f7c85611d40565b91509150836001600160a01b03167fdec2bacdd2f05b59de34da9b523dff8be42e5e38e818c82fdb0bae774387a724838360405161199f929190918252602082015260400190565b60405180910390a25050505050565b606060006119bb83612032565b604080516020808252818301909252919250600091906020820181803683375050509182525060208101929092525090565b6000807f7fffffffffffffffffffffffffffffff5d576e7357a4501ddfe92f46681b20a0831115611a245750600090506003611aa8565b6040805160008082526020820180845289905260ff881692820192909252606081018690526080810185905260019060a0016020604051602081039080840390855afa158015611a78573d6000803e3d6000fd5b5050604051601f1901519150506001600160a01b038116611aa157600060019250925050611aa8565b9150600090505b94509492505050565b6000816004811115611ac557611ac561248e565b03611acd5750565b6001816004811115611ae157611ae161248e565b03611b2e5760405162461bcd60e51b815260206004820152601860248201527f45434453413a20696e76616c6964207369676e617475726500000000000000006044820152606401610614565b6002816004811115611b4257611b4261248e565b03611b8f5760405162461bcd60e51b815260206004820152601f60248201527f45434453413a20696e76616c6964207369676e6174757265206c656e677468006044820152606401610614565b6003816004811115611ba357611ba361248e565b036106e85760405162461bcd60e51b815260206004820152602260248201527f45434453413a20696e76616c6964207369676e6174757265202773272076616c604482015261756560f01b6064820152608401610614565b6001600160a01b038216611c5b5760405162461bcd60e51b815260206004820152602160248201527f45524332303a206275726e2066726f6d20746865207a65726f206164647265736044820152607360f81b6064820152608401610614565b6001600160a01b03821660009081526020819052604090205481811015611ccf5760405162461bcd60e51b815260206004820152602260248201527f45524332303a206275726e20616d6f756e7420657863656564732062616c616e604482015261636560f01b6064820152608401610614565b6001600160a01b0383166000818152602081815260408083208686039055600280548790039055518581529192917fddf252ad1be2c89b69c2b068fc378daa952ba7f163c4a11628f55a4df523b3ef910160405180910390a36117378360008461173c565b600061063f8284612443565b82546000908190818115611d8d5760008781526020902082016000190160408051808201909152905463ffffffff8116825264010000000090046001600160e01b03166020820152611da2565b60408051808201909152600080825260208201525b905080602001516001600160e01b03169350611dc284868863ffffffff16565b9250600082118015611dec5750611dd761082f565b65ffffffffffff16816000015163ffffffff16145b15611e3157611dfa8361205a565b60008881526020902083016000190180546001600160e01b03929092166401000000000263ffffffff909216919091179055611eab565b866040518060400160405280611e55611e4861082f565b65ffffffffffff166113f1565b63ffffffff168152602001611e698661205a565b6001600160e01b0390811690915282546001810184556000938452602093849020835194909301519091166401000000000263ffffffff909316929092179101555b5050935093915050565b6001600160a01b038216611f0b5760405162461bcd60e51b815260206004820152601f60248201527f45524332303a206d696e7420746f20746865207a65726f2061646472657373006044820152606401610614565b8060026000828254611f1d91906123f8565b90915550506001600160a01b038216600081815260208181526040808320805486019055518481527fddf252ad1be2c89b69c2b068fc378daa952ba7f163c4a11628f55a4df523b3ef910160405180910390a3610c986000838361173c565b600061063f82846123f8565b600080608083901c15611f9d57608092831c92015b604083901c15611faf57604092831c92015b602083901c15611fc157602092831c92015b601083901c15611fd357601092831c92015b600883901c15611fe557600892831c92015b600483901c15611ff757600492831c92015b600283901c1561200957600292831c92015b600183901c156105615760010192915050565b600081831061202b578161063f565b5090919050565b600060ff8216601f81111561056157604051632cd44ac360e21b815260040160405180910390fd5b60006001600160e01b038211156114565760405162461bcd60e51b815260206004820152602760248201527f53616665436173743a2076616c756520646f65736e27742066697420696e20326044820152663234206269747360c81b6064820152608401610614565b6000815180845260005b818110156120e9576020818501810151868301820152016120cd565b506000602082860101526020601f19601f83011685010191505092915050565b60208152600061063f60208301846120c3565b80356001600160a01b038116811461213357600080fd5b919050565b6000806040838503121561214b57600080fd5b6121548361211c565b946020939093013593505050565b60008060006060848603121561217757600080fd5b6121808461211c565b925061218e6020850161211c565b9150604084013590509250925092565b6000602082840312156121b057600080fd5b61063f8261211c565b60ff60f81b881681526000602060e0818401526121d960e084018a6120c3565b83810360408501526121eb818a6120c3565b606085018990526001600160a01b038816608086015260a0850187905284810360c0860152855180825283870192509083019060005b8181101561223d57835183529284019291840191600101612221565b50909c9b505050505050505050505050565b60006020828403121561226157600080fd5b5035919050565b803560ff8116811461213357600080fd5b60008060008060008060c0878903121561229257600080fd5b61229b8761211c565b955060208701359450604087013593506122b760608801612268565b92506080870135915060a087013590509295509295509295565b600080600080600080600060e0888a0312156122ec57600080fd5b6122f58861211c565b96506123036020890161211c565b9550604088013594506060880135935061231f60808901612268565b925060a0880135915060c0880135905092959891949750929550565b6000806040838503121561234e57600080fd5b6123578361211c565b91506123656020840161211c565b90509250929050565b6000806040838503121561238157600080fd5b61238a8361211c565b9150602083013563ffffffff811681146123a357600080fd5b809150509250929050565b600181811c908216806123c257607f821691505b60208210810361168f57634e487b7160e01b600052602260045260246000fd5b634e487b7160e01b600052601160045260246000fd5b80820180821115610561576105616123e2565b634e487b7160e01b600052603260045260246000fd5b60006020828403121561243357600080fd5b8151801515811461063f57600080fd5b81810381811115610561576105616123e2565b634e487b7160e01b600052601260045260246000fd5b60008261248957634e487b7160e01b600052601260045260246000fd5b500490565b634e487b7160e01b600052602160045260246000fdfea264697066735822122000e0e75b220af4fff55906dad55b4a64b3866228aa0fb69e768371a796e0d97d64736f6c63430008140033",
  "linkReferences": {},
  "deployedLinkReferences": {}
}