{
  "_format": "hh-sol-artifact-1",
  "contractName": "IPDAO",
  "sourceName": "contracts/IPDAO.sol",
  "abi": [
    {
      "inputs": [
        {
          "internalType": "address",
          "name": "_royaltyToken",
          "type": "address"
        },
        {
          "internalType": "uint256",
          "name": "_dippChainId",
          "type": "uint256"
        },
        {
          "internalType": "address",
          "name": "_fractionalizer",
          "type": "address"
        },
        {
          "internalType": "address",
          "name": "_timelock",
          "type": "address"
        },
        {
          "internalType": "address",
          "name": "initialOwner",
          "type": "address"
        }
      ],
      "stateMutability": "nonpayable",
      "type": "constructor"
    },
    {
      "inputs": [],
      "name": "Empty",
      "type": "error"
    },
    {
      "inputs": [],
      "name": "InvalidShortString",
      "type": "error"
    },
    {
      "inputs": [
        {
          "internalType": "string",
          "name": "str",
          "type": "string"
        }
      ],
      "name": "StringTooLong",
      "type": "error"
    },
    {
      "anonymous": false,
      "inputs": [],
      "name": "EIP712DomainChanged",
      "type": "event"
    },
    {
      "anonymous": false,
      "inputs": [
        {
          "indexed": true,
          "internalType": "uint256",
          "name": "dippChainId",
          "type": "uint256"
        },
        {
          "indexed": true,
          "internalType": "address",
          "name": "royaltyToken",
          "type": "address"
        },
        {
          "indexed": true,
          "internalType": "address",
          "name": "creator",
          "type": "address"
        },
        {
          "indexed": false,
          "internalType": "uint256",
          "name": "timestamp",
          "type": "uint256"
        }
      ],
      "name": "IPDAOCreated",
      "type": "event"
    },
    {
      "anonymous": false,
      "inputs": [
        {
          "indexed": true,
          "internalType": "address",
          "name": "previousOwner",
          "type": "address"
        },
        {
          "indexed": true,
          "internalType": "address",
          "name": "newOwner",
          "type": "address"
        }
      ],
      "name": "OwnershipTransferred",
      "type": "event"
    },
    {
      "anonymous": false,
      "inputs": [
        {
          "indexed": false,
          "internalType": "address",
          "name": "account",
          "type": "address"
        }
      ],
      "name": "Paused",
      "type": "event"
    },
    {
      "anonymous": false,
      "inputs": [
        {
          "indexed": false,
          "internalType": "uint256",
          "name": "proposalId",
          "type": "uint256"
        }
      ],
      "name": "ProposalCanceled",
      "type": "event"
    },
    {
      "anonymous": false,
      "inputs": [
        {
          "indexed": false,
          "internalType": "uint256",
          "name": "proposalId",
          "type": "uint256"
        },
        {
          "indexed": false,
          "internalType": "address",
          "name": "proposer",
          "type": "address"
        },
        {
          "indexed": false,
          "internalType": "address[]",
          "name": "targets",
          "type": "address[]"
        },
        {
          "indexed": false,
          "internalType": "uint256[]",
          "name": "values",
          "type": "uint256[]"
        },
        {
          "indexed": false,
          "internalType": "string[]",
          "name": "signatures",
          "type": "string[]"
        },
        {
          "indexed": false,
          "internalType": "bytes[]",
          "name": "calldatas",
          "type": "bytes[]"
        },
        {
          "indexed": false,
          "internalType": "uint256",
          "name": "voteStart",
          "type": "uint256"
        },
        {
          "indexed": false,
          "internalType": "uint256",
          "name": "voteEnd",
          "type": "uint256"
        },
        {
          "indexed": false,
          "internalType": "string",
          "name": "description",
          "type": "string"
        }
      ],
      "name": "ProposalCreated",
      "type": "event"
    },
    {
      "anonymous": false,
      "inputs": [
        {
          "indexed": true,
          "internalType": "uint256",
          "name": "proposalId",
          "type": "uint256"
        },
        {
          "indexed": false,
          "internalType": "enum IPDAO.ProposalType",
          "name": "proposalType",
          "type": "uint8"
        },
        {
          "indexed": true,
          "internalType": "address",
          "name": "proposer",
          "type": "address"
        },
        {
          "indexed": false,
          "internalType": "uint256",
          "name": "timestamp",
          "type": "uint256"
        }
      ],
      "name": "ProposalCreatedWithType",
      "type": "event"
    },
    {
      "anonymous": false,
      "inputs": [
        {
          "indexed": false,
          "internalType": "uint256",
          "name": "proposalId",
          "type": "uint256"
        }
      ],
      "name": "ProposalExecuted",
      "type": "event"
    },
    {
      "anonymous": false,
      "inputs": [
        {
          "indexed": false,
          "internalType": "uint256",
          "name": "proposalId",
          "type": "uint256"
        },
        {
          "indexed": false,
          "internalType": "uint256",
          "name": "eta",
          "type": "uint256"
        }
      ],
      "name": "ProposalQueued",
      "type": "event"
    },
    {
      "anonymous": false,
      "inputs": [
        {
          "indexed": false,
          "internalType": "uint256",
          "name": "oldProposalThreshold",
          "type": "uint256"
        },
        {
          "indexed": false,
          "internalType": "uint256",
          "name": "newProposalThreshold",
          "type": "uint256"
        }
      ],
      "name": "ProposalThresholdSet",
      "type": "event"
    },
    {
      "anonymous": false,
      "inputs": [
        {
          "indexed": false,
          "internalType": "uint256",
          "name": "oldQuorumNumerator",
          "type": "uint256"
        },
        {
          "indexed": false,
          "internalType": "uint256",
          "name": "newQuorumNumerator",
          "type": "uint256"
        }
      ],
      "name": "QuorumNumeratorUpdated",
      "type": "event"
    },
    {
      "anonymous": false,
      "inputs": [
        {
          "indexed": false,
          "internalType": "address",
          "name": "oldTimelock",
          "type": "address"
        },
        {
          "indexed": false,
          "internalType": "address",
          "name": "newTimelock",
          "type": "address"
        }
      ],
      "name": "TimelockChange",
      "type": "event"
    },
    {
      "anonymous": false,
      "inputs": [
        {
          "indexed": false,
          "internalType": "address",
          "name": "account",
          "type": "address"
        }
      ],
      "name": "Unpaused",
      "type": "event"
    },
    {
      "anonymous": false,
      "inputs": [
        {
          "indexed": true,
          "internalType": "address",
          "name": "voter",
          "type": "address"
        },
        {
          "indexed": false,
          "internalType": "uint256",
          "name": "proposalId",
          "type": "uint256"
        },
        {
          "indexed": false,
          "internalType": "uint8",
          "name": "support",
          "type": "uint8"
        },
        {
          "indexed": false,
          "internalType": "uint256",
          "name": "weight",
          "type": "uint256"
        },
        {
          "indexed": false,
          "internalType": "string",
          "name": "reason",
          "type": "string"
        }
      ],
      "name": "VoteCast",
      "type": "event"
    },
    {
      "anonymous": false,
      "inputs": [
        {
          "indexed": true,
          "internalType": "address",
          "name": "voter",
          "type": "address"
        },
        {
          "indexed": false,
          "internalType": "uint256",
          "name": "proposalId",
          "type": "uint256"
        },
        {
          "indexed": false,
          "internalType": "uint8",
          "name": "support",
          "type": "uint8"
        },
        {
          "indexed": false,
          "internalType": "uint256",
          "name": "weight",
          "type": "uint256"
        },
        {
          "indexed": false,
          "internalType": "string",
          "name": "reason",
          "type": "string"
        },
        {
          "indexed": false,
          "internalType": "bytes",
          "name": "params",
          "type": "bytes"
        }
      ],
      "name": "VoteCastWithParams",
      "type": "event"
    },
    {
      "anonymous": false,
      "inputs": [
        {
          "indexed": false,
          "internalType": "uint256",
          "name": "oldVotingDelay",
          "type": "uint256"
        },
        {
          "indexed": false,
          "internalType": "uint256",
          "name": "newVotingDelay",
          "type": "uint256"
        }
      ],
      "name": "VotingDelaySet",
      "type": "event"
    },
    {
      "anonymous": false,
      "inputs": [
        {
          "indexed": false,
          "internalType": "uint256",
          "name": "oldVotingPeriod",
          "type": "uint256"
        },
        {
          "indexed": false,
          "internalType": "uint256",
          "name": "newVotingPeriod",
          "type": "uint256"
        }
      ],
      "name": "VotingPeriodSet",
      "type": "event"
    },
    {
      "inputs": [],
      "name": "BALLOT_TYPEHASH",
      "outputs": [
        {
          "internalType": "bytes32",
          "name": "",
          "type": "bytes32"
        }
      ],
      "stateMutability": "view",
      "type": "function"
    },
    {
      "inputs": [],
      "name": "CLOCK_MODE",
      "outputs": [
        {
          "internalType": "string",
          "name": "",
          "type": "string"
        }
      ],
      "stateMutability": "view",
      "type": "function"
    },
    {
      "inputs": [],
      "name": "COUNTING_MODE",
      "outputs": [
        {
          "internalType": "string",
          "name": "",
          "type": "string"
        }
      ],
      "stateMutability": "pure",
      "type": "function"
    },
    {
      "inputs": [],
      "name": "EXTENDED_BALLOT_TYPEHASH",
      "outputs": [
        {
          "internalType": "bytes32",
          "name": "",
          "type": "bytes32"
        }
      ],
      "stateMutability": "view",
      "type": "function"
    },
    {
      "inputs": [
        {
          "internalType": "address[]",
          "name": "targets",
          "type": "address[]"
        },
        {
          "internalType": "uint256[]",
          "name": "values",
          "type": "uint256[]"
        },
        {
          "internalType": "bytes[]",
          "name": "calldatas",
          "type": "bytes[]"
        },
        {
          "internalType": "bytes32",
          "name": "descriptionHash",
          "type": "bytes32"
        }
      ],
      "name": "cancel",
      "outputs": [
        {
          "internalType": "uint256",
          "name": "",
          "type": "uint256"
        }
      ],
      "stateMutability": "nonpayable",
      "type": "function"
    },
    {
      "inputs": [
        {
          "internalType": "uint256",
          "name": "proposalId",
          "type": "uint256"
        },
        {
          "internalType": "uint8",
          "name": "support",
          "type": "uint8"
        }
      ],
      "name": "castVote",
      "outputs": [
        {
          "internalType": "uint256",
          "name": "",
          "type": "uint256"
        }
      ],
      "stateMutability": "nonpayable",
      "type": "function"
    },
    {
      "inputs": [
        {
          "internalType": "uint256",
          "name": "proposalId",
          "type": "uint256"
        },
        {
          "internalType": "uint8",
          "name": "support",
          "type": "uint8"
        },
        {
          "internalType": "uint8",
          "name": "v",
          "type": "uint8"
        },
        {
          "internalType": "bytes32",
          "name": "r",
          "type": "bytes32"
        },
        {
          "internalType": "bytes32",
          "name": "s",
          "type": "bytes32"
        }
      ],
      "name": "castVoteBySig",
      "outputs": [
        {
          "internalType": "uint256",
          "name": "",
          "type": "uint256"
        }
      ],
      "stateMutability": "nonpayable",
      "type": "function"
    },
    {
      "inputs": [
        {
          "internalType": "uint256",
          "name": "proposalId",
          "type": "uint256"
        },
        {
          "internalType": "uint8",
          "name": "support",
          "type": "uint8"
        },
        {
          "internalType": "string",
          "name": "reason",
          "type": "string"
        }
      ],
      "name": "castVoteWithReason",
      "outputs": [
        {
          "internalType": "uint256",
          "name": "",
          "type": "uint256"
        }
      ],
      "stateMutability": "nonpayable",
      "type": "function"
    },
    {
      "inputs": [
        {
          "internalType": "uint256",
          "name": "proposalId",
          "type": "uint256"
        },
        {
          "internalType": "uint8",
          "name": "support",
          "type": "uint8"
        },
        {
          "internalType": "string",
          "name": "reason",
          "type": "string"
        },
        {
          "internalType": "bytes",
          "name": "params",
          "type": "bytes"
        }
      ],
      "name": "castVoteWithReasonAndParams",
      "outputs": [
        {
          "internalType": "uint256",
          "name": "",
          "type": "uint256"
        }
      ],
      "stateMutability": "nonpayable",
      "type": "function"
    },
    {
      "inputs": [
        {
          "internalType": "uint256",
          "name": "proposalId",
          "type": "uint256"
        },
        {
          "internalType": "uint8",
          "name": "support",
          "type": "uint8"
        },
        {
          "internalType": "string",
          "name": "reason",
          "type": "string"
        },
        {
          "internalType": "bytes",
          "name": "params",
          "type": "bytes"
        },
        {
          "internalType": "uint8",
          "name": "v",
          "type": "uint8"
        },
        {
          "internalType": "bytes32",
          "name": "r",
          "type": "bytes32"
        },
        {
          "internalType": "bytes32",
          "name": "s",
          "type": "bytes32"
        }
      ],
      "name": "castVoteWithReasonAndParamsBySig",
      "outputs": [
        {
          "internalType": "uint256",
          "name": "",
          "type": "uint256"
        }
      ],
      "stateMutability": "nonpayable",
      "type": "function"
    },
    {
      "inputs": [],
      "name": "clock",
      "outputs": [
        {
          "internalType": "uint48",
          "name": "",
          "type": "uint48"
        }
      ],
      "stateMutability": "view",
      "type": "function"
    },
    {
      "inputs": [],
      "name": "dippChainId",
      "outputs": [
        {
          "internalType": "uint256",
          "name": "",
          "type": "uint256"
        }
      ],
      "stateMutability": "view",
      "type": "function"
    },
    {
      "inputs": [],
      "name": "eip712Domain",
      "outputs": [
        {
          "internalType": "bytes1",
          "name": "fields",
          "type": "bytes1"
        },
        {
          "internalType": "string",
          "name": "name",
          "type": "string"
        },
        {
          "internalType": "string",
          "name": "version",
          "type": "string"
        },
        {
          "internalType": "uint256",
          "name": "chainId",
          "type": "uint256"
        },
        {
          "internalType": "address",
          "name": "verifyingContract",
          "type": "address"
        },
        {
          "internalType": "bytes32",
          "name": "salt",
          "type": "bytes32"
        },
        {
          "internalType": "uint256[]",
          "name": "extensions",
          "type": "uint256[]"
        }
      ],
      "stateMutability": "view",
      "type": "function"
    },
    {
      "inputs": [
        {
          "internalType": "address[]",
          "name": "targets",
          "type": "address[]"
        },
        {
          "internalType": "uint256[]",
          "name": "values",
          "type": "uint256[]"
        },
        {
          "internalType": "bytes[]",
          "name": "calldatas",
          "type": "bytes[]"
        },
        {
          "internalType": "bytes32",
          "name": "descriptionHash",
          "type": "bytes32"
        }
      ],
      "name": "execute",
      "outputs": [
        {
          "internalType": "uint256",
          "name": "",
          "type": "uint256"
        }
      ],
      "stateMutability": "payable",
      "type": "function"
    },
    {
      "inputs": [],
      "name": "fractionalizer",
      "outputs": [
        {
          "internalType": "contract Fractionalizer",
          "name": "",
          "type": "address"
        }
      ],
      "stateMutability": "view",
      "type": "function"
    },
    {
      "inputs": [
        {
          "internalType": "address",
          "name": "account",
          "type": "address"
        },
        {
          "internalType": "uint256",
          "name": "timepoint",
          "type": "uint256"
        }
      ],
      "name": "getVotes",
      "outputs": [
        {
          "internalType": "uint256",
          "name": "",
          "type": "uint256"
        }
      ],
      "stateMutability": "view",
      "type": "function"
    },
    {
      "inputs": [
        {
          "internalType": "address",
          "name": "account",
          "type": "address"
        },
        {
          "internalType": "uint256",
          "name": "timepoint",
          "type": "uint256"
        },
        {
          "internalType": "bytes",
          "name": "params",
          "type": "bytes"
        }
      ],
      "name": "getVotesWithParams",
      "outputs": [
        {
          "internalType": "uint256",
          "name": "",
          "type": "uint256"
        }
      ],
      "stateMutability": "view",
      "type": "function"
    },
    {
      "inputs": [
        {
          "internalType": "uint256",
          "name": "proposalId",
          "type": "uint256"
        },
        {
          "internalType": "address",
          "name": "account",
          "type": "address"
        }
      ],
      "name": "hasVoted",
      "outputs": [
        {
          "internalType": "bool",
          "name": "",
          "type": "bool"
        }
      ],
      "stateMutability": "view",
      "type": "function"
    },
    {
      "inputs": [
        {
          "internalType": "address[]",
          "name": "targets",
          "type": "address[]"
        },
        {
          "internalType": "uint256[]",
          "name": "values",
          "type": "uint256[]"
        },
        {
          "internalType": "bytes[]",
          "name": "calldatas",
          "type": "bytes[]"
        },
        {
          "internalType": "bytes32",
          "name": "descriptionHash",
          "type": "bytes32"
        }
      ],
      "name": "hashProposal",
      "outputs": [
        {
          "internalType": "uint256",
          "name": "",
          "type": "uint256"
        }
      ],
      "stateMutability": "pure",
      "type": "function"
    },
    {
      "inputs": [],
      "name": "name",
      "outputs": [
        {
          "internalType": "string",
          "name": "",
          "type": "string"
        }
      ],
      "stateMutability": "view",
      "type": "function"
    },
    {
      "inputs": [
        {
          "internalType": "address",
          "name": "",
          "type": "address"
        },
        {
          "internalType": "address",
          "name": "",
          "type": "address"
        },
        {
          "internalType": "uint256[]",
          "name": "",
          "type": "uint256[]"
        },
        {
          "internalType": "uint256[]",
          "name": "",
          "type": "uint256[]"
        },
        {
          "internalType": "bytes",
          "name": "",
          "type": "bytes"
        }
      ],
      "name": "onERC1155BatchReceived",
      "outputs": [
        {
          "internalType": "bytes4",
          "name": "",
          "type": "bytes4"
        }
      ],
      "stateMutability": "nonpayable",
      "type": "function"
    },
    {
      "inputs": [
        {
          "internalType": "address",
          "name": "",
          "type": "address"
        },
        {
          "internalType": "address",
          "name": "",
          "type": "address"
        },
        {
          "internalType": "uint256",
          "name": "",
          "type": "uint256"
        },
        {
          "internalType": "uint256",
          "name": "",
          "type": "uint256"
        },
        {
          "internalType": "bytes",
          "name": "",
          "type": "bytes"
        }
      ],
      "name": "onERC1155Received",
      "outputs": [
        {
          "internalType": "bytes4",
          "name": "",
          "type": "bytes4"
        }
      ],
      "stateMutability": "nonpayable",
      "type": "function"
    },
    {
      "inputs": [
        {
          "internalType": "address",
          "name": "",
          "type": "address"
        },
        {
          "internalType": "address",
          "name": "",
          "type": "address"
        },
        {
          "internalType": "uint256",
          "name": "",
          "type": "uint256"
        },
        {
          "internalType": "bytes",
          "name": "",
          "type": "bytes"
        }
      ],
      "name": "onERC721Received",
      "outputs": [
        {
          "internalType": "bytes4",
          "name": "",
          "type": "bytes4"
        }
      ],
      "stateMutability": "nonpayable",
      "type": "function"
    },
    {
      "inputs": [],
      "name": "owner",
      "outputs": [
        {
          "internalType": "address",
          "name": "",
          "type": "address"
        }
      ],
      "stateMutability": "view",
      "type": "function"
    },
    {
      "inputs": [],
      "name": "pause",
      "outputs": [],
      "stateMutability": "nonpayable",
      "type": "function"
    },
    {
      "inputs": [],
      "name": "paused",
      "outputs": [
        {
          "internalType": "bool",
          "name": "",
          "type": "bool"
        }
      ],
      "stateMutability": "view",
      "type": "function"
    },
    {
      "inputs": [
        {
          "internalType": "uint256",
          "name": "proposalId",
          "type": "uint256"
        }
      ],
      "name": "proposalDeadline",
      "outputs": [
        {
          "internalType": "uint256",
          "name": "",
          "type": "uint256"
        }
      ],
      "stateMutability": "view",
      "type": "function"
    },
    {
      "inputs": [
        {
          "internalType": "uint256",
          "name": "proposalId",
          "type": "uint256"
        }
      ],
      "name": "proposalEta",
      "outputs": [
        {
          "internalType": "uint256",
          "name": "",
          "type": "uint256"
        }
      ],
      "stateMutability": "view",
      "type": "function"
    },
    {
      "inputs": [
        {
          "internalType": "uint256",
          "name": "proposalId",
          "type": "uint256"
        }
      ],
      "name": "proposalProposer",
      "outputs": [
        {
          "internalType": "address",
          "name": "",
          "type": "address"
        }
      ],
      "stateMutability": "view",
      "type": "function"
    },
    {
      "inputs": [
        {
          "internalType": "uint256",
          "name": "proposalId",
          "type": "uint256"
        }
      ],
      "name": "proposalSnapshot",
      "outputs": [
        {
          "internalType": "uint256",
          "name": "",
          "type": "uint256"
        }
      ],
      "stateMutability": "view",
      "type": "function"
    },
    {
      "inputs": [],
      "name": "proposalThreshold",
      "outputs": [
        {
          "internalType": "uint256",
          "name": "",
          "type": "uint256"
        }
      ],
      "stateMutability": "view",
      "type": "function"
    },
    {
      "inputs": [
        {
          "internalType": "uint256",
          "name": "proposalId",
          "type": "uint256"
        }
      ],
      "name": "proposalVotes",
      "outputs": [
        {
          "internalType": "uint256",
          "name": "againstVotes",
          "type": "uint256"
        },
        {
          "internalType": "uint256",
          "name": "forVotes",
          "type": "uint256"
        },
        {
          "internalType": "uint256",
          "name": "abstainVotes",
          "type": "uint256"
        }
      ],
      "stateMutability": "view",
      "type": "function"
    },
    {
      "inputs": [
        {
          "internalType": "address[]",
          "name": "targets",
          "type": "address[]"
        },
        {
          "internalType": "uint256[]",
          "name": "values",
          "type": "uint256[]"
        },
        {
          "internalType": "bytes[]",
          "name": "calldatas",
          "type": "bytes[]"
        },
        {
          "internalType": "string",
          "name": "description",
          "type": "string"
        }
      ],
      "name": "propose",
      "outputs": [
        {
          "internalType": "uint256",
          "name": "",
          "type": "uint256"
        }
      ],
      "stateMutability": "nonpayable",
      "type": "function"
    },
    {
      "inputs": [
        {
          "internalType": "address[]",
          "name": "targets",
          "type": "address[]"
        },
        {
          "internalType": "uint256[]",
          "name": "values",
          "type": "uint256[]"
        },
        {
          "internalType": "bytes[]",
          "name": "calldatas",
          "type": "bytes[]"
        },
        {
          "internalType": "string",
          "name": "description",
          "type": "string"
        },
        {
          "internalType": "enum IPDAO.ProposalType",
          "name": "proposalType",
          "type": "uint8"
        }
      ],
      "name": "proposeWithType",
      "outputs": [
        {
          "internalType": "uint256",
          "name": "",
          "type": "uint256"
        }
      ],
      "stateMutability": "nonpayable",
      "type": "function"
    },
    {
      "inputs": [
        {
          "internalType": "address[]",
          "name": "targets",
          "type": "address[]"
        },
        {
          "internalType": "uint256[]",
          "name": "values",
          "type": "uint256[]"
        },
        {
          "internalType": "bytes[]",
          "name": "calldatas",
          "type": "bytes[]"
        },
        {
          "internalType": "bytes32",
          "name": "descriptionHash",
          "type": "bytes32"
        }
      ],
      "name": "queue",
      "outputs": [
        {
          "internalType": "uint256",
          "name": "",
          "type": "uint256"
        }
      ],
      "stateMutability": "nonpayable",
      "type": "function"
    },
    {
      "inputs": [
        {
          "internalType": "uint256",
          "name": "blockNumber",
          "type": "uint256"
        }
      ],
      "name": "quorum",
      "outputs": [
        {
          "internalType": "uint256",
          "name": "",
          "type": "uint256"
        }
      ],
      "stateMutability": "view",
      "type": "function"
    },
    {
      "inputs": [],
      "name": "quorumDenominator",
      "outputs": [
        {
          "internalType": "uint256",
          "name": "",
          "type": "uint256"
        }
      ],
      "stateMutability": "view",
      "type": "function"
    },
    {
      "inputs": [
        {
          "internalType": "uint256",
          "name": "timepoint",
          "type": "uint256"
        }
      ],
      "name": "quorumNumerator",
      "outputs": [
        {
          "internalType": "uint256",
          "name": "",
          "type": "uint256"
        }
      ],
      "stateMutability": "view",
      "type": "function"
    },
    {
      "inputs": [],
      "name": "quorumNumerator",
      "outputs": [
        {
          "internalType": "uint256",
          "name": "",
          "type": "uint256"
        }
      ],
      "stateMutability": "view",
      "type": "function"
    },
    {
      "inputs": [
        {
          "internalType": "address",
          "name": "target",
          "type": "address"
        },
        {
          "internalType": "uint256",
          "name": "value",
          "type": "uint256"
        },
        {
          "internalType": "bytes",
          "name": "data",
          "type": "bytes"
        }
      ],
      "name": "relay",
      "outputs": [],
      "stateMutability": "payable",
      "type": "function"
    },
    {
      "inputs": [],
      "name": "renounceOwnership",
      "outputs": [],
      "stateMutability": "nonpayable",
      "type": "function"
    },
    {
      "inputs": [],
      "name": "royaltyToken",
      "outputs": [
        {
          "internalType": "address",
          "name": "",
          "type": "address"
        }
      ],
      "stateMutability": "view",
      "type": "function"
    },
    {
      "inputs": [
        {
          "internalType": "uint256",
          "name": "newProposalThreshold",
          "type": "uint256"
        }
      ],
      "name": "setProposalThreshold",
      "outputs": [],
      "stateMutability": "nonpayable",
      "type": "function"
    },
    {
      "inputs": [
        {
          "internalType": "uint256",
          "name": "newVotingDelay",
          "type": "uint256"
        }
      ],
      "name": "setVotingDelay",
      "outputs": [],
      "stateMutability": "nonpayable",
      "type": "function"
    },
    {
      "inputs": [
        {
          "internalType": "uint256",
          "name": "newVotingPeriod",
          "type": "uint256"
        }
      ],
      "name": "setVotingPeriod",
      "outputs": [],
      "stateMutability": "nonpayable",
      "type": "function"
    },
    {
      "inputs": [
        {
          "internalType": "uint256",
          "name": "proposalId",
          "type": "uint256"
        }
      ],
      "name": "state",
      "outputs": [
        {
          "internalType": "enum IGovernor.ProposalState",
          "name": "",
          "type": "uint8"
        }
      ],
      "stateMutability": "view",
      "type": "function"
    },
    {
      "inputs": [
        {
          "internalType": "bytes4",
          "name": "interfaceId",
          "type": "bytes4"
        }
      ],
      "name": "supportsInterface",
      "outputs": [
        {
          "internalType": "bool",
          "name": "",
          "type": "bool"
        }
      ],
      "stateMutability": "view",
      "type": "function"
    },
    {
      "inputs": [],
      "name": "timelock",
      "outputs": [
        {
          "internalType": "address",
          "name": "",
          "type": "address"
        }
      ],
      "stateMutability": "view",
      "type": "function"
    },
    {
      "inputs": [],
      "name": "token",
      "outputs": [
        {
          "internalType": "contract IERC5805",
          "name": "",
          "type": "address"
        }
      ],
      "stateMutability": "view",
      "type": "function"
    },
    {
      "inputs": [
        {
          "internalType": "address",
          "name": "newOwner",
          "type": "address"
        }
      ],
      "name": "transferOwnership",
      "outputs": [],
      "stateMutability": "nonpayable",
      "type": "function"
    },
    {
      "inputs": [],
      "name": "unpause",
      "outputs": [],
      "stateMutability": "nonpayable",
      "type": "function"
    },
    {
      "inputs": [
        {
          "internalType": "uint256",
          "name": "newQuorumNumerator",
          "type": "uint256"
        }
      ],
      "name": "updateQuorumNumerator",
      "outputs": [],
      "stateMutability": "nonpayable",
      "type": "function"
    },
    {
      "inputs": [
        {
          "internalType": "contract TimelockController",
          "name": "newTimelock",
          "type": "address"
        }
      ],
      "name": "updateTimelock",
      "outputs": [],
      "stateMutability": "nonpayable",
      "type": "function"
    },
    {
      "inputs": [],
      "name": "version",
      "outputs": [
        {
          "internalType": "string",
          "name": "",
          "type": "string"
        }
      ],
      "stateMutability": "view",
      "type": "function"
    },
    {
      "inputs": [],
      "name": "votingDelay",
      "outputs": [
        {
          "internalType": "uint256",
          "name": "",
          "type": "uint256"
        }
      ],
      "stateMutability": "view",
      "type": "function"
    },
    {
      "inputs": [],
      "name": "votingPeriod",
      "outputs": [
        {
          "internalType": "uint256",
          "name": "",
          "type": "uint256"
        }
      ],
      "stateMutability": "view",
      "type": "function"
    },
    {
      "stateMutability": "payable",
      "type": "receive"
    }
  ],
  "bytecode": "0x6101806040523480156200001257600080fd5b5060405162005af738038062005af7833981016040819052620000359162000adb565b81600486600161c4e0600060405180604001604052806005815260200164495044414f60d81b815250806200006f620002cd60201b60201c565b6200007c826000620002e8565b610120526200008d816001620002e8565b61014052815160208084019190912060e052815190820120610100524660a0526200011b60e05161010051604080517f8b73c3c69bb8fe3d512ecc4cf759cc79239f7b179b0ffacaa9a75d522b39400f60208201529081019290925260608201524660808201523060a082015260009060c00160405160208183030381529060405280519060200120905090565b60805250503060c052600262000132828262000be7565b506200014090508362000321565b6200014b8262000362565b620001568162000405565b5050506001600160a01b031661016052620001718162000446565b506200017d81620005c5565b5062000189336200062e565b600e805460ff60a01b191690556001600160a01b038516620001f25760405162461bcd60e51b815260206004820152601460248201527f495044414f3a20496e76616c696420746f6b656e00000000000000000000000060448201526064015b60405180910390fd5b6001600160a01b0383166200024a5760405162461bcd60e51b815260206004820152601d60248201527f495044414f3a20496e76616c6964206672616374696f6e616c697a65720000006044820152606401620001e9565b62000255816200062e565b601180546001600160a01b03199081166001600160a01b038881169182179093556010879055600f8054909216868416179091556040514281529183169186907fe7e76da66617f0cb22fa1c59ea618c5f56fe9a4f580c1047832c5f992e5536919060200160405180910390a4505050505062000d74565b6040805180820190915260018152603160f81b602082015290565b60006020835110156200030857620003008362000680565b90506200031b565b8162000315848262000be7565b5060ff90505b92915050565b60065460408051918252602082018390527fc565b045403dc03c2eea82b81a0465edad9e2e7fc4d97e11421c209da93d7a93910160405180910390a1600655565b60008111620003c45760405162461bcd60e51b815260206004820152602760248201527f476f7665726e6f7253657474696e67733a20766f74696e6720706572696f6420604482015266746f6f206c6f7760c81b6064820152608401620001e9565b60075460408051918252602082018390527f7e3f7f0708a84de9203036abaa450dccc85ad5ff52f78c170f3edb55cf5e8828910160405180910390a1600755565b60085460408051918252602082018390527fccb45da8d5717e6c4544694297c4ba5cf151d455c9bb0ed4fc7a38411bc05461910160405180910390a1600855565b6064811115620004cb5760405162461bcd60e51b815260206004820152604360248201527f476f7665726e6f72566f74657351756f72756d4672616374696f6e3a2071756f60448201527f72756d4e756d657261746f72206f7665722071756f72756d44656e6f6d696e616064820152623a37b960e91b608482015260a401620001e9565b6000620004d7620006c3565b90508015801590620004e95750600b54155b1562000551576040805180820190915260008152600b90602081016200050f84620006f2565b6001600160e01b0390811690915282546001810184556000938452602093849020835194909301519091166401000000000263ffffffff909316929092179101555b62000586620005716200056362000761565b65ffffffffffff16620007d8565b6200057c84620006f2565b600b91906200083f565b505060408051828152602081018490527f0553476bf02ef2726e8ce5ced78d63e26e602e4a2257b1f559418e24b4633997910160405180910390a15050565b600c54604080516001600160a01b03928316815291831660208301527f08f74ea46ef7894f65eabfb5e6e695de773a000b47c529ab559178069b226401910160405180910390a1600c80546001600160a01b0319166001600160a01b0392909216919091179055565b600e80546001600160a01b038381166001600160a01b0319831681179093556040519116919082907f8be0079c531659141344cd1fd0a4f28419497f9722a3daafe3b4186f6b6457e090600090a35050565b600080829050601f81511115620006ae578260405163305a27a960e01b8152600401620001e9919062000cb3565b8051620006bb8262000d03565b179392505050565b600b5460009015620006e957620006db600b6200085c565b6001600160e01b0316905090565b600a545b905090565b60006001600160e01b038211156200075d5760405162461bcd60e51b815260206004820152602760248201527f53616665436173743a2076616c756520646f65736e27742066697420696e20326044820152663234206269747360c81b6064820152608401620001e9565b5090565b6000610160516001600160a01b03166391ddadf46040518163ffffffff1660e01b8152600401602060405180830381865afa925050508015620007c3575060408051601f3d908101601f19168201909252620007c09181019062000d28565b60015b620007d357620006ed43620008aa565b919050565b600063ffffffff8211156200075d5760405162461bcd60e51b815260206004820152602660248201527f53616665436173743a2076616c756520646f65736e27742066697420696e203360448201526532206269747360d01b6064820152608401620001e9565b6000806200084f85858562000913565b915091505b935093915050565b80546000908015620008a05762000888836200087a60018462000d52565b600091825260209091200190565b5464010000000090046001600160e01b0316620008a3565b60005b9392505050565b600065ffffffffffff8211156200075d5760405162461bcd60e51b815260206004820152602660248201527f53616665436173743a2076616c756520646f65736e27742066697420696e203460448201526538206269747360d01b6064820152608401620001e9565b82546000908190801562000a6857600062000935876200087a60018562000d52565b60408051808201909152905463ffffffff8082168084526401000000009092046001600160e01b031660208401529192509087161015620009b95760405162461bcd60e51b815260206004820152601b60248201527f436865636b706f696e743a2064656372656173696e67206b65797300000000006044820152606401620001e9565b805163ffffffff80881691160362000a075784620009de886200087a60018662000d52565b80546001600160e01b03929092166401000000000263ffffffff90921691909117905562000a57565b6040805180820190915263ffffffff80881682526001600160e01b0380881660208085019182528b54600181018d5560008d81529190912094519151909216640100000000029216919091179101555b602001519250839150620008549050565b50506040805180820190915263ffffffff80851682526001600160e01b0380851660208085019182528854600181018a5560008a81529182209551925190931664010000000002919093161792019190915590508162000854565b80516001600160a01b0381168114620007d357600080fd5b600080600080600060a0868803121562000af457600080fd5b62000aff8662000ac3565b94506020860151935062000b166040870162000ac3565b925062000b266060870162000ac3565b915062000b366080870162000ac3565b90509295509295909350565b634e487b7160e01b600052604160045260246000fd5b600181811c9082168062000b6d57607f821691505b60208210810362000b8e57634e487b7160e01b600052602260045260246000fd5b50919050565b601f82111562000be257600081815260208120601f850160051c8101602086101562000bbd5750805b601f850160051c820191505b8181101562000bde5782815560010162000bc9565b5050505b505050565b81516001600160401b0381111562000c035762000c0362000b42565b62000c1b8162000c14845462000b58565b8462000b94565b602080601f83116001811462000c53576000841562000c3a5750858301515b600019600386901b1c1916600185901b17855562000bde565b600085815260208120601f198616915b8281101562000c845788860151825594840194600190910190840162000c63565b508582101562000ca35787850151600019600388901b60f8161c191681555b5050505050600190811b01905550565b600060208083528351808285015260005b8181101562000ce25785810183015185820160400152820162000cc4565b506000604082860101526040601f19601f8301168501019250505092915050565b8051602080830151919081101562000b8e5760001960209190910360031b1b16919050565b60006020828403121562000d3b57600080fd5b815165ffffffffffff81168114620008a357600080fd5b818103818111156200031b57634e487b7160e01b600052601160045260246000fd5b60805160a05160c05160e05161010051610120516101405161016051614d0162000df660003960008181610be1015281816112f2015281816116680152818161297c0152612ba001526000611614015260006115ea01526000612d9d01526000612d7501526000612cd001526000612cfa01526000612d240152614d016000f3fe60806040526004361061036f5760003560e01c80637eecc366116101c6578063c01f9e37116100f7578063ea0217cf11610095578063f23a6e611161006f578063f23a6e6114610b63578063f2fde38b14610b8f578063f8ce560a14610baf578063fc0c546a14610bcf57600080fd5b8063ea0217cf14610b03578063eb9019d414610b23578063ece40cc114610b4357600080fd5b8063d03b0e49116100d1578063d03b0e4914610a4b578063d33219b414610a6b578063dd4e2ba514610a89578063deaaa7cc14610acf57600080fd5b8063c01f9e37146109df578063c28bc2fa14610a18578063c59057e414610a2b57600080fd5b8063a7713a7011610164578063ad1bd7f71161013e578063ad1bd7f71461095e578063b58131b01461097e578063b96354cf14610993578063bc197c81146109b357600080fd5b8063a7713a7014610909578063a890c9101461091e578063ab58fb8e1461093e57600080fd5b80638da5cb5b116101a05780638da5cb5b1461088b57806391ddadf4146108a957806397c3d334146108d55780639a802a6d146108e957600080fd5b80637eecc366146108385780638456cb591461084e57806384b0196e1461086357600080fd5b80633f4ba83a116102a05780635c975abb1161023e57806370b0f6601161021857806370b0f660146107c3578063715018a6146107e35780637b3c71d3146107f85780637d5e81e21461081857600080fd5b80635c975abb146107645780635f398a141461078357806360c4247f146107a357600080fd5b80634bf5d7e91161027a5780634bf5d7e9146106b0578063544ffc9c146106c557806354fd4d501461071a578063567813881461074457600080fd5b80633f4ba83a146106315780634385963214610646578063452115d61461069057600080fd5b8063160cbed71161030d5780632fe3e261116102e75780632fe3e2611461059b5780633932abb1146105cf5780633bccf4fd146105e45780633e4f49e61461060457600080fd5b8063160cbed7146105325780632656227d146105525780632d63f6931461056557600080fd5b806306f3f9e61161034957806306f3f9e61461045757806306fdde0314610477578063143489d014610499578063150b7a02146104ee57600080fd5b806301ffc9a7146103df57806302a251a314610414578063034201811461043757600080fd5b366103da573061037d610c03565b6001600160a01b0316146103d85760405162461bcd60e51b815260206004820152601f60248201527f476f7665726e6f723a206d7573742073656e6420746f206578656375746f720060448201526064015b60405180910390fd5b005b600080fd5b3480156103eb57600080fd5b506103ff6103fa366004613cb7565b610c1c565b60405190151581526020015b60405180910390f35b34801561042057600080fd5b50610429610c2d565b60405190815260200161040b565b34801561044357600080fd5b50610429610452366004613dfd565b610c38565b34801561046357600080fd5b506103d8610472366004613ea3565b610d30565b34801561048357600080fd5b5061048c610dba565b60405161040b9190613f0c565b3480156104a557600080fd5b506104d66104b4366004613ea3565b600090815260036020526040902054600160401b90046001600160a01b031690565b6040516001600160a01b03909116815260200161040b565b3480156104fa57600080fd5b50610519610509366004613f34565b630a85bd0160e11b949350505050565b6040516001600160e01b0319909116815260200161040b565b34801561053e57600080fd5b5061042961054d36600461410b565b610e4c565b61042961056036600461410b565b61104d565b34801561057157600080fd5b50610429610580366004613ea3565b6000908152600360205260409020546001600160401b031690565b3480156105a757600080fd5b506104297fb3b3f3b703cd84ce352197dcff232b1b5d3cfb2025ce47cf04742d0651f1af8881565b3480156105db57600080fd5b5061042961113f565b3480156105f057600080fd5b506104296105ff36600461419a565b61114a565b34801561061057600080fd5b5061062461061f366004613ea3565b6111c0565b60405161040b91906141fe565b34801561063d57600080fd5b506103d86111cb565b34801561065257600080fd5b506103ff610661366004614218565b60008281526009602090815260408083206001600160a01b038516845260030190915290205460ff1692915050565b34801561069c57600080fd5b506104296106ab36600461410b565b6111dd565b3480156106bc57600080fd5b5061048c6112ee565b3480156106d157600080fd5b506106ff6106e0366004613ea3565b6000908152600960205260409020805460018201546002909201549092565b6040805193845260208401929092529082015260600161040b565b34801561072657600080fd5b506040805180820190915260018152603160f81b602082015261048c565b34801561075057600080fd5b5061042961075f366004614248565b6113b0565b34801561077057600080fd5b50600e54600160a01b900460ff166103ff565b34801561078f57600080fd5b5061042961079e366004614274565b6113d9565b3480156107af57600080fd5b506104296107be366004613ea3565b611423565b3480156107cf57600080fd5b506103d86107de366004613ea3565b6114d4565b3480156107ef57600080fd5b506103d861155b565b34801561080457600080fd5b506104296108133660046142f7565b61156d565b34801561082457600080fd5b50610429610833366004614350565b6115b5565b34801561084457600080fd5b5061042960105481565b34801561085a57600080fd5b506103d86115cc565b34801561086f57600080fd5b506108786115dc565b60405161040b979695949392919061442b565b34801561089757600080fd5b50600e546001600160a01b03166104d6565b3480156108b557600080fd5b506108be611664565b60405165ffffffffffff909116815260200161040b565b3480156108e157600080fd5b506064610429565b3480156108f557600080fd5b5061042961090436600461448d565b6116ed565b34801561091557600080fd5b50610429611704565b34801561092a57600080fd5b506103d86109393660046144e5565b61172e565b34801561094a57600080fd5b50610429610959366004613ea3565b6117b5565b34801561096a57600080fd5b50610429610979366004614502565b61184f565b34801561098a57600080fd5b506104296118ae565b34801561099f57600080fd5b506011546104d6906001600160a01b031681565b3480156109bf57600080fd5b506105196109ce3660046145c7565b63bc197c8160e01b95945050505050565b3480156109eb57600080fd5b506104296109fa366004613ea3565b6000908152600360205260409020600101546001600160401b031690565b6103d8610a2636600461465a565b6118b9565b348015610a3757600080fd5b50610429610a4636600461410b565b6119c8565b348015610a5757600080fd5b50600f546104d6906001600160a01b031681565b348015610a7757600080fd5b50600c546001600160a01b03166104d6565b348015610a9557600080fd5b506040805180820190915260208082527f737570706f72743d627261766f2671756f72756d3d666f722c6162737461696e9082015261048c565b348015610adb57600080fd5b506104297f150214d74d59b7d1e90c73fc22ef3d991dd0a76b046543d4d80ab92d2a50328f81565b348015610b0f57600080fd5b506103d8610b1e366004613ea3565b611a02565b348015610b2f57600080fd5b50610429610b3e36600461469d565b611a89565b348015610b4f57600080fd5b506103d8610b5e366004613ea3565b611aaa565b348015610b6f57600080fd5b50610519610b7e3660046146c9565b63f23a6e6160e01b95945050505050565b348015610b9b57600080fd5b506103d8610baa3660046144e5565b611b31565b348015610bbb57600080fd5b50610429610bca366004613ea3565b611ba7565b348015610bdb57600080fd5b506104d67f000000000000000000000000000000000000000000000000000000000000000081565b6000610c17600c546001600160a01b031690565b905090565b6000610c2782611bb2565b92915050565b6000610c1760075490565b600080610cdc610cd47fb3b3f3b703cd84ce352197dcff232b1b5d3cfb2025ce47cf04742d0651f1af888c8c8c8c604051610c74929190614731565b60405180910390208b80519060200120604051602001610cb9959493929190948552602085019390935260ff9190911660408401526060830152608082015260a00190565b60405160208183030381529060405280519060200120611bd7565b868686611c04565b9050610d228a828b8b8b8080601f0160208091040260200160405190810160405280939291908181526020018383808284376000920191909152508d9250611c22915050565b9a9950505050505050505050565b610d38610c03565b6001600160a01b0316336001600160a01b031614610d685760405162461bcd60e51b81526004016103cf90614741565b30610d71610c03565b6001600160a01b031614610dae5760008036604051610d91929190614731565b604051809103902090505b80610da76004611d77565b03610d9c57505b610db781611df6565b50565b606060028054610dc990614778565b80601f0160208091040260200160405190810160405280929190818152602001828054610df590614778565b8015610e425780601f10610e1757610100808354040283529160200191610e42565b820191906000526020600020905b815481529060010190602001808311610e2557829003601f168201915b5050505050905090565b600080610e5b868686866119c8565b90506004610e68826111c0565b6007811115610e7957610e796141e8565b14610e965760405162461bcd60e51b81526004016103cf906147b2565b600c546040805163793d064960e11b815290516000926001600160a01b03169163f27a0c929160048083019260209291908290030181865afa158015610ee0573d6000803e3d6000fd5b505050506040513d601f19601f82011682018060405250810190610f0491906147f3565b600c5460405163b1c5f42760e01b81529192506001600160a01b03169063b1c5f42790610f3e908a908a908a906000908b9060040161489d565b602060405180830381865afa158015610f5b573d6000803e3d6000fd5b505050506040513d601f19601f82011682018060405250810190610f7f91906147f3565b6000838152600d602052604080822092909255600c5491516308f2a0bb60e41b81526001600160a01b0390921691638f2a0bb091610fca918b918b918b91908b9089906004016148eb565b600060405180830381600087803b158015610fe457600080fd5b505af1158015610ff8573d6000803e3d6000fd5b505050507f9a2e42fd6722813d69113e7d0079d3d940171428df7373df9c7f7617cfda289282824261102a9190614959565b604080519283526020830191909152015b60405180910390a15095945050505050565b60008061105c868686866119c8565b90506000611069826111c0565b9050600481600781111561107f5761107f6141e8565b148061109c5750600581600781111561109a5761109a6141e8565b145b6110b85760405162461bcd60e51b81526004016103cf906147b2565b60008281526003602052604090819020600201805460ff19166001179055517f712ae1383f79ac853f8d882153778e0260ef8f03b504e2866e0593e04d2b291f906111069084815260200190565b60405180910390a161111b8288888888611f64565b6111288288888888612006565b6111358288888888612013565b5095945050505050565b6000610c1760065490565b604080517f150214d74d59b7d1e90c73fc22ef3d991dd0a76b046543d4d80ab92d2a50328f602082015290810186905260ff85166060820152600090819061119890610cd490608001610cb9565b90506111b58782886040518060200160405280600081525061204c565b979650505050505050565b6000610c278261206f565b6111d36121b9565b6111db612213565b565b6000806111ec868686866119c8565b905060006111f9826111c0565b600781111561120a5761120a6141e8565b146112575760405162461bcd60e51b815260206004820152601c60248201527f476f7665726e6f723a20746f6f206c61746520746f2063616e63656c0000000060448201526064016103cf565b600081815260036020526040902054600160401b90046001600160a01b0316336001600160a01b0316146112d85760405162461bcd60e51b815260206004820152602260248201527f476f7665726e6f723a206f6e6c792070726f706f7365722063616e2063616e63604482015261195b60f21b60648201526084016103cf565b6112e486868686612268565b9695505050505050565b60607f00000000000000000000000000000000000000000000000000000000000000006001600160a01b0316634bf5d7e96040518163ffffffff1660e01b8152600401600060405180830381865afa92505050801561136f57506040513d6000823e601f3d908101601f1916820160405261136c919081019061496c565b60015b6113ab575060408051808201909152601d81527f6d6f64653d626c6f636b6e756d6265722666726f6d3d64656661756c74000000602082015290565b919050565b6000803390506113d18482856040518060200160405280600081525061204c565b949350505050565b6000803390506111b587828888888080601f0160208091040260200160405190810160405280939291908181526020018383808284376000920191909152508a9250611c22915050565b600b5460009080820361143a575050600a54919050565b6000600b6114496001846149d9565b81548110611459576114596149ec565b60009182526020918290206040805180820190915291015463ffffffff8116808352600160201b9091046001600160e01b031692820192909252915084106114af57602001516001600160e01b03169392505050565b6114c36114bb85612276565b600b906122df565b6001600160e01b0316949350505050565b6114dc610c03565b6001600160a01b0316336001600160a01b03161461150c5760405162461bcd60e51b81526004016103cf90614741565b30611515610c03565b6001600160a01b0316146115525760008036604051611535929190614731565b604051809103902090505b8061154b6004611d77565b0361154057505b610db781612392565b6115636121b9565b6111db60006123d3565b6000803390506112e486828787878080601f01602080910402602001604051908101604052809392919081815260200183838082843760009201919091525061204c92505050565b60006115c385858585612425565b95945050505050565b6115d46121b9565b6111db6127fe565b60006060808280808361160f7f000000000000000000000000000000000000000000000000000000000000000083612841565b61163a7f00000000000000000000000000000000000000000000000000000000000000006001612841565b60408051600080825260208201909252600f60f81b9b939a50919850469750309650945092509050565b60007f00000000000000000000000000000000000000000000000000000000000000006001600160a01b03166391ddadf46040518163ffffffff1660e01b8152600401602060405180830381865afa9250505080156116e0575060408051601f3d908101601f191682019092526116dd91810190614a02565b60015b6113ab57610c17436128ec565b60006116fa848484612953565b90505b9392505050565b600b546000901561172757611719600b6129e9565b6001600160e01b0316905090565b50600a5490565b611736610c03565b6001600160a01b0316336001600160a01b0316146117665760405162461bcd60e51b81526004016103cf90614741565b3061176f610c03565b6001600160a01b0316146117ac576000803660405161178f929190614731565b604051809103902090505b806117a56004611d77565b0361179a57505b610db781612a19565b600c546000828152600d602052604080822054905163d45c443560e01b81526004810191909152909182916001600160a01b039091169063d45c443590602401602060405180830381865afa158015611812573d6000803e3d6000fd5b505050506040513d601f19601f8201168201806040525081019061183691906147f3565b90508060011461184657806116fd565b60009392505050565b60008061185e878787876115b5565b9050336001600160a01b0316817f80fb80b4b89e6c13f9998f2ac98011efd315b38a5906d94f7838e7d66fabf8e1854260405161189c929190614a2a565b60405180910390a39695505050505050565b6000610c1760085490565b6118c1610c03565b6001600160a01b0316336001600160a01b0316146118f15760405162461bcd60e51b81526004016103cf90614741565b306118fa610c03565b6001600160a01b031614611937576000803660405161191a929190614731565b604051809103902090505b806119306004611d77565b0361192557505b600080856001600160a01b0316858585604051611955929190614731565b60006040518083038185875af1925050503d8060008114611992576040519150601f19603f3d011682016040523d82523d6000602084013e611997565b606091505b50915091506119bf8282604051806060016040528060288152602001614ca460289139612a82565b50505050505050565b6000848484846040516020016119e19493929190614a48565b60408051601f19818403018152919052805160209091012095945050505050565b611a0a610c03565b6001600160a01b0316336001600160a01b031614611a3a5760405162461bcd60e51b81526004016103cf90614741565b30611a43610c03565b6001600160a01b031614611a805760008036604051611a63929190614731565b604051809103902090505b80611a796004611d77565b03611a6e57505b610db781612a9b565b60006116fd8383611aa560408051602081019091526000815290565b612953565b611ab2610c03565b6001600160a01b0316336001600160a01b031614611ae25760405162461bcd60e51b81526004016103cf90614741565b30611aeb610c03565b6001600160a01b031614611b285760008036604051611b0b929190614731565b604051809103902090505b80611b216004611d77565b03611b1657505b610db781612b3c565b611b396121b9565b6001600160a01b038116611b9e5760405162461bcd60e51b815260206004820152602660248201527f4f776e61626c653a206e6577206f776e657220697320746865207a65726f206160448201526564647265737360d01b60648201526084016103cf565b610db7816123d3565b6000610c2782612b7d565b60006001600160e01b03198216636e665ced60e01b1480610c275750610c2782612c27565b6000610c27611be4612cc3565b8360405161190160f01b8152600281019290925260228201526042902090565b6000806000611c1587878787612dee565b9150915061113581612eb2565b60008581526003602052604081206001611c3b886111c0565b6007811115611c4c57611c4c6141e8565b14611ca55760405162461bcd60e51b815260206004820152602360248201527f476f7665726e6f723a20766f7465206e6f742063757272656e746c792061637460448201526269766560e81b60648201526084016103cf565b8054600090611cbf9088906001600160401b031686612953565b9050611cce8888888488612ffc565b8351600003611d2357866001600160a01b03167fb8e138887d0aa13bab447e82de9d5c1777041ecd21ca36ba824ff1e6c07ddda489888489604051611d169493929190614a93565b60405180910390a26111b5565b866001600160a01b03167fe2babfbac5889a709b63bb7f598b324e08bc5a4fb9ec647fb3cbc9ec07eb87128988848989604051611d64959493929190614abb565b60405180910390a2979650505050505050565b6000611d928254600f81810b600160801b909204900b131590565b15611db057604051631ed9509560e11b815260040160405180910390fd5b508054600f0b6000818152600180840160205260408220805492905583546fffffffffffffffffffffffffffffffff191692016001600160801b03169190911790915590565b6064811115611e795760405162461bcd60e51b815260206004820152604360248201527f476f7665726e6f72566f74657351756f72756d4672616374696f6e3a2071756f60448201527f72756d4e756d657261746f72206f7665722071756f72756d44656e6f6d696e616064820152623a37b960e91b608482015260a4016103cf565b6000611e83611704565b90508015801590611e945750600b54155b15611ef8576040805180820190915260008152600b9060208101611eb784613176565b6001600160e01b039081169091528254600181018455600093845260209384902083519490930151909116600160201b0263ffffffff909316929092179101555b611f25611f13611f06611664565b65ffffffffffff16612276565b611f1c84613176565b600b91906131df565b505060408051828152602081018490527f0553476bf02ef2726e8ce5ced78d63e26e602e4a2257b1f559418e24b4633997910160405180910390a15050565b30611f6d610c03565b6001600160a01b031614611fff5760005b8451811015611ffd57306001600160a01b0316858281518110611fa357611fa36149ec565b60200260200101516001600160a01b031603611fed57611fed838281518110611fce57611fce6149ec565b60200260200101518051906020012060046131fa90919063ffffffff16565b611ff681614b01565b9050611f7e565b505b5050505050565b611fff8585858585613236565b3061201c610c03565b6001600160a01b031614611fff57600454600f81810b600160801b909204900b1315611fff576000600455611fff565b60006115c38585858561206a60408051602081019091526000815290565b611c22565b60008061207b836132aa565b90506004816007811115612091576120916141e8565b1461209c5792915050565b6000838152600d6020526040902054806120b7575092915050565b600c54604051632ab0f52960e01b8152600481018390526001600160a01b0390911690632ab0f52990602401602060405180830381865afa158015612100573d6000803e3d6000fd5b505050506040513d601f19601f820116820180604052508101906121249190614b1a565b15612133575060079392505050565b600c54604051632c258a9f60e11b8152600481018390526001600160a01b039091169063584b153e90602401602060405180830381865afa15801561217c573d6000803e3d6000fd5b505050506040513d601f19601f820116820180604052508101906121a09190614b1a565b156121af575060059392505050565b5060029392505050565b600e546001600160a01b031633146111db5760405162461bcd60e51b815260206004820181905260248201527f4f776e61626c653a2063616c6c6572206973206e6f7420746865206f776e657260448201526064016103cf565b61221b6133ea565b600e805460ff60a01b191690557f5db9ee0a495bf2e6ff9c91a7834c1ba4fdd244a5e8aa4e537bd38aeae4b073aa335b6040516001600160a01b03909116815260200160405180910390a1565b60006115c38585858561343a565b600063ffffffff8211156122db5760405162461bcd60e51b815260206004820152602660248201527f53616665436173743a2076616c756520646f65736e27742066697420696e203360448201526532206269747360d01b60648201526084016103cf565b5090565b81546000908181600581111561233c5760006122fa846134ec565b61230490856149d9565b60008881526020902090915081015463ffffffff908116908716101561232c5780915061233a565b612337816001614959565b92505b505b600061234a878785856135d4565b905080156123855761236f876123616001846149d9565b600091825260209091200190565b54600160201b90046001600160e01b03166111b5565b6000979650505050505050565b60065460408051918252602082018390527fc565b045403dc03c2eea82b81a0465edad9e2e7fc4d97e11421c209da93d7a93910160405180910390a1600655565b600e80546001600160a01b038381166001600160a01b0319831681179093556040519116919082907f8be0079c531659141344cd1fd0a4f28419497f9722a3daafe3b4186f6b6457e090600090a35050565b6000336124328184613632565b61247e5760405162461bcd60e51b815260206004820152601d60248201527f476f7665726e6f723a2070726f706f736572207265737472696374656400000060448201526064016103cf565b6000612488611664565b65ffffffffffff16905061249a6118ae565b6124a983610b3e6001856149d9565b10156125115760405162461bcd60e51b815260206004820152603160248201527f476f7665726e6f723a2070726f706f73657220766f7465732062656c6f7720706044820152701c9bdc1bdcd85b081d1a1c995cda1bdb19607a1b60648201526084016103cf565b600061252688888888805190602001206119c8565b905086518851146125495760405162461bcd60e51b81526004016103cf90614b3c565b855188511461256a5760405162461bcd60e51b81526004016103cf90614b3c565b60008851116125bb5760405162461bcd60e51b815260206004820152601860248201527f476f7665726e6f723a20656d7074792070726f706f73616c000000000000000060448201526064016103cf565b6000818152600360205260409020546001600160401b03161561262a5760405162461bcd60e51b815260206004820152602160248201527f476f7665726e6f723a2070726f706f73616c20616c72656164792065786973746044820152607360f81b60648201526084016103cf565b600061263461113f565b61263e9084614959565b9050600061264a610c2d565b6126549083614959565b90506040518060e0016040528061266a84613723565b6001600160401b031681526001600160a01b03871660208201526000604082015260600161269783613723565b6001600160401b039081168252600060208084018290526040808501839052606094850183905288835260038252918290208551815492870151878501519186166001600160e01b031990941693909317600160401b6001600160a01b039094168402176001600160e01b0316600160e01b60e09290921c91909102178155938501516080860151908416921c0217600183015560a08301516002909201805460c09094015161ffff1990941692151561ff00191692909217610100931515939093029290921790558a517f7d84a6263ae0d98d3329bd7b46bb4e8d6f98cd35a7adb45c274c8b7fd5ebd5e091859188918e918e9181111561279b5761279b613d3a565b6040519080825280602002602001820160405280156127ce57816020015b60608152602001906001900390816127b95790505b508d88888f6040516127e899989796959493929190614b7d565b60405180910390a1509098975050505050505050565b61280661378b565b600e805460ff60a01b1916600160a01b1790557f62e78cea01bee320cd4e420270b5ea74000d11b0c9f74754ebdbfc544b05a25861224b3390565b606060ff831461285b57612854836137d8565b9050610c27565b81805461286790614778565b80601f016020809104026020016040519081016040528092919081815260200182805461289390614778565b80156128e05780601f106128b5576101008083540402835291602001916128e0565b820191906000526020600020905b8154815290600101906020018083116128c357829003601f168201915b50505050509050610c27565b600065ffffffffffff8211156122db5760405162461bcd60e51b815260206004820152602660248201527f53616665436173743a2076616c756520646f65736e27742066697420696e203460448201526538206269747360d01b60648201526084016103cf565b604051630748d63560e31b81526001600160a01b038481166004830152602482018490526000917f000000000000000000000000000000000000000000000000000000000000000090911690633a46b1a890604401602060405180830381865afa1580156129c5573d6000803e3d6000fd5b505050506040513d601f19601f820116820180604052508101906116fa91906147f3565b8054600090801561184657612a03836123616001846149d9565b54600160201b90046001600160e01b03166116fd565b600c54604080516001600160a01b03928316815291831660208301527f08f74ea46ef7894f65eabfb5e6e695de773a000b47c529ab559178069b226401910160405180910390a1600c80546001600160a01b0319166001600160a01b0392909216919091179055565b60608315612a915750816116fd565b6116fd8383613817565b60008111612afb5760405162461bcd60e51b815260206004820152602760248201527f476f7665726e6f7253657474696e67733a20766f74696e6720706572696f6420604482015266746f6f206c6f7760c81b60648201526084016103cf565b60075460408051918252602082018390527f7e3f7f0708a84de9203036abaa450dccc85ad5ff52f78c170f3edb55cf5e8828910160405180910390a1600755565b60085460408051918252602082018390527fccb45da8d5717e6c4544694297c4ba5cf151d455c9bb0ed4fc7a38411bc05461910160405180910390a1600855565b60006064612b8a83611423565b604051632394e7a360e21b8152600481018590527f00000000000000000000000000000000000000000000000000000000000000006001600160a01b031690638e539e8c90602401602060405180830381865afa158015612bef573d6000803e3d6000fd5b505050506040513d601f19601f82011682018060405250810190612c1391906147f3565b612c1d9190614c54565b610c279190614c81565b600063288ace0360e11b6318df743f60e31b63bf26d89760e01b6379dd796f60e01b6001600160e01b03198616821480612c6d57506001600160e01b0319868116908216145b80612c8457506001600160e01b0319868116908516145b80612c9f57506001600160e01b03198616630271189760e51b145b806112e457506301ffc9a760e01b6001600160e01b03198716149695505050505050565b6000306001600160a01b037f000000000000000000000000000000000000000000000000000000000000000016148015612d1c57507f000000000000000000000000000000000000000000000000000000000000000046145b15612d4657507f000000000000000000000000000000000000000000000000000000000000000090565b610c17604080517f8b73c3c69bb8fe3d512ecc4cf759cc79239f7b179b0ffacaa9a75d522b39400f60208201527f0000000000000000000000000000000000000000000000000000000000000000918101919091527f000000000000000000000000000000000000000000000000000000000000000060608201524660808201523060a082015260009060c00160405160208183030381529060405280519060200120905090565b6000807f7fffffffffffffffffffffffffffffff5d576e7357a4501ddfe92f46681b20a0831115612e255750600090506003612ea9565b6040805160008082526020820180845289905260ff881692820192909252606081018690526080810185905260019060a0016020604051602081039080840390855afa158015612e79573d6000803e3d6000fd5b5050604051601f1901519150506001600160a01b038116612ea257600060019250925050612ea9565b9150600090505b94509492505050565b6000816004811115612ec657612ec66141e8565b03612ece5750565b6001816004811115612ee257612ee26141e8565b03612f2f5760405162461bcd60e51b815260206004820152601860248201527f45434453413a20696e76616c6964207369676e6174757265000000000000000060448201526064016103cf565b6002816004811115612f4357612f436141e8565b03612f905760405162461bcd60e51b815260206004820152601f60248201527f45434453413a20696e76616c6964207369676e6174757265206c656e6774680060448201526064016103cf565b6003816004811115612fa457612fa46141e8565b03610db75760405162461bcd60e51b815260206004820152602260248201527f45434453413a20696e76616c6964207369676e6174757265202773272076616c604482015261756560f01b60648201526084016103cf565b60008581526009602090815260408083206001600160a01b0388168452600381019092529091205460ff16156130845760405162461bcd60e51b815260206004820152602760248201527f476f7665726e6f72566f74696e6753696d706c653a20766f746520616c726561604482015266191e4818d85cdd60ca1b60648201526084016103cf565b6001600160a01b03851660009081526003820160205260409020805460ff1916600117905560ff84166130d057828160000160008282546130c59190614959565b90915550611ffd9050565b60001960ff8516016130f057828160010160008282546130c59190614959565b60011960ff85160161311057828160020160008282546130c59190614959565b60405162461bcd60e51b815260206004820152603560248201527f476f7665726e6f72566f74696e6753696d706c653a20696e76616c69642076616044820152746c756520666f7220656e756d20566f74655479706560581b60648201526084016103cf565b60006001600160e01b038211156122db5760405162461bcd60e51b815260206004820152602760248201527f53616665436173743a2076616c756520646f65736e27742066697420696e20326044820152663234206269747360c81b60648201526084016103cf565b6000806131ed858585613841565b915091505b935093915050565b8154600160801b90819004600f0b6000818152600180860160205260409091209390935583546001600160801b03908116939091011602179055565b600c5460405163e38335e560e01b81526001600160a01b039091169063e38335e590349061327190889088908890600090899060040161489d565b6000604051808303818588803b15801561328a57600080fd5b505af115801561329e573d6000803e3d6000fd5b50505050505050505050565b6000818152600360205260408120600281015460ff16156132ce5750600792915050565b6002810154610100900460ff16156132e95750600292915050565b6000838152600360205260408120546001600160401b0316908190036133515760405162461bcd60e51b815260206004820152601d60248201527f476f7665726e6f723a20756e6b6e6f776e2070726f706f73616c20696400000060448201526064016103cf565b600061335b611664565b65ffffffffffff16905080821061337757506000949350505050565b6000858152600360205260409020600101546001600160401b03168181106133a55750600195945050505050565b6133ae866139e0565b80156133cd575060008681526009602052604090208054600190910154115b156133de5750600495945050505050565b50600395945050505050565b600e54600160a01b900460ff166111db5760405162461bcd60e51b815260206004820152601460248201527314185d5cd8589b194e881b9bdd081c185d5cd95960621b60448201526064016103cf565b60008061344986868686613a2c565b6000818152600d6020526040902054909150156115c357600c546000828152600d60205260409081902054905163c4d252f560e01b81526001600160a01b039092169163c4d252f5916134a29160040190815260200190565b600060405180830381600087803b1580156134bc57600080fd5b505af11580156134d0573d6000803e3d6000fd5b5050506000828152600d60205260408120555095945050505050565b6000816000036134fe57506000919050565b6000600161350b84613b38565b901c6001901b9050600181848161352457613524614c6b565b048201901c9050600181848161353c5761353c614c6b565b048201901c9050600181848161355457613554614c6b565b048201901c9050600181848161356c5761356c614c6b565b048201901c9050600181848161358457613584614c6b565b048201901c9050600181848161359c5761359c614c6b565b048201901c905060018184816135b4576135b4614c6b565b048201901c90506116fd818285816135ce576135ce614c6b565b04613bcc565b60005b8183101561362a5760006135eb8484613be2565b60008781526020902090915063ffffffff86169082015463ffffffff16111561361657809250613624565b613621816001614959565b93505b506135d7565b509392505050565b8051600090603481101561364a576001915050610c27565b82810160131901516001600160a01b031981166b046e0e4dee0dee6cae47a60f60a31b1461367d57600192505050610c27565b60008061368b6028856149d9565b90505b83811015613702576000806136c28884815181106136ae576136ae6149ec565b01602001516001600160f81b031916613bfd565b91509150816136da5760019650505050505050610c27565b8060ff166004856001600160a01b0316901b1793505050806136fb90614b01565b905061368e565b50856001600160a01b0316816001600160a01b031614935050505092915050565b60006001600160401b038211156122db5760405162461bcd60e51b815260206004820152602660248201527f53616665436173743a2076616c756520646f65736e27742066697420696e203660448201526534206269747360d01b60648201526084016103cf565b600e54600160a01b900460ff16156111db5760405162461bcd60e51b815260206004820152601060248201526f14185d5cd8589b194e881c185d5cd95960821b60448201526064016103cf565b606060006137e583613c8f565b604080516020808252818301909252919250600091906020820181803683375050509182525060208101929092525090565b8151156138275781518083602001fd5b8060405162461bcd60e51b81526004016103cf9190613f0c565b82546000908190801561398757600061385f876123616001856149d9565b60408051808201909152905463ffffffff808216808452600160201b9092046001600160e01b0316602084015291925090871610156138e05760405162461bcd60e51b815260206004820152601b60248201527f436865636b706f696e743a2064656372656173696e67206b657973000000000060448201526064016103cf565b805163ffffffff8088169116036139285784613901886123616001866149d9565b80546001600160e01b0392909216600160201b0263ffffffff909216919091179055613977565b6040805180820190915263ffffffff80881682526001600160e01b0380881660208085019182528b54600181018d5560008d81529190912094519151909216600160201b029216919091179101555b6020015192508391506131f29050565b50506040805180820190915263ffffffff80851682526001600160e01b0380851660208085019182528854600181018a5560008a815291822095519251909316600160201b0291909316179201919091559050816131f2565b600081815260096020526040812060028101546001820154613a029190614959565b600084815260036020526040902054613a23906001600160401b0316611ba7565b11159392505050565b600080613a3b868686866119c8565b90506000613a48826111c0565b90506002816007811115613a5e57613a5e6141e8565b14158015613a7e57506006816007811115613a7b57613a7b6141e8565b14155b8015613a9c57506007816007811115613a9957613a996141e8565b14155b613ae85760405162461bcd60e51b815260206004820152601d60248201527f476f7665726e6f723a2070726f706f73616c206e6f742061637469766500000060448201526064016103cf565b60008281526003602052604090819020600201805461ff001916610100179055517f789cf55be980739dad1d0699b93b58e806b51c9d96619bfa8fe0a28abaa7b30c9061103b9084815260200190565b600080608083901c15613b4d57608092831c92015b604083901c15613b5f57604092831c92015b602083901c15613b7157602092831c92015b601083901c15613b8357601092831c92015b600883901c15613b9557600892831c92015b600483901c15613ba757600492831c92015b600283901c15613bb957600292831c92015b600183901c15610c275760010192915050565b6000818310613bdb57816116fd565b5090919050565b6000613bf16002848418614c81565b6116fd90848416614959565b60008060f883901c602f81118015613c185750603a8160ff16105b15613c2d57600194602f199091019350915050565b8060ff166040108015613c43575060478160ff16105b15613c58576001946036199091019350915050565b8060ff166060108015613c6e575060678160ff16105b15613c83576001946056199091019350915050565b50600093849350915050565b600060ff8216601f811115610c2757604051632cd44ac360e21b815260040160405180910390fd5b600060208284031215613cc957600080fd5b81356001600160e01b0319811681146116fd57600080fd5b803560ff811681146113ab57600080fd5b60008083601f840112613d0457600080fd5b5081356001600160401b03811115613d1b57600080fd5b602083019150836020828501011115613d3357600080fd5b9250929050565b634e487b7160e01b600052604160045260246000fd5b604051601f8201601f191681016001600160401b0381118282101715613d7857613d78613d3a565b604052919050565b60006001600160401b03821115613d9957613d99613d3a565b50601f01601f191660200190565b600082601f830112613db857600080fd5b8135613dcb613dc682613d80565b613d50565b818152846020838601011115613de057600080fd5b816020850160208301376000918101602001919091529392505050565b60008060008060008060008060e0898b031215613e1957600080fd5b88359750613e2960208a01613ce1565b965060408901356001600160401b0380821115613e4557600080fd5b613e518c838d01613cf2565b909850965060608b0135915080821115613e6a57600080fd5b50613e778b828c01613da7565b945050613e8660808a01613ce1565b925060a0890135915060c089013590509295985092959890939650565b600060208284031215613eb557600080fd5b5035919050565b60005b83811015613ed7578181015183820152602001613ebf565b50506000910152565b60008151808452613ef8816020860160208601613ebc565b601f01601f19169290920160200192915050565b6020815260006116fd6020830184613ee0565b6001600160a01b0381168114610db757600080fd5b60008060008060808587031215613f4a57600080fd5b8435613f5581613f1f565b93506020850135613f6581613f1f565b92506040850135915060608501356001600160401b03811115613f8757600080fd5b613f9387828801613da7565b91505092959194509250565b60006001600160401b03821115613fb857613fb8613d3a565b5060051b60200190565b600082601f830112613fd357600080fd5b81356020613fe3613dc683613f9f565b82815260059290921b8401810191818101908684111561400257600080fd5b8286015b8481101561402657803561401981613f1f565b8352918301918301614006565b509695505050505050565b600082601f83011261404257600080fd5b81356020614052613dc683613f9f565b82815260059290921b8401810191818101908684111561407157600080fd5b8286015b848110156140265780358352918301918301614075565b600082601f83011261409d57600080fd5b813560206140ad613dc683613f9f565b82815260059290921b840181019181810190868411156140cc57600080fd5b8286015b848110156140265780356001600160401b038111156140ef5760008081fd5b6140fd8986838b0101613da7565b8452509183019183016140d0565b6000806000806080858703121561412157600080fd5b84356001600160401b038082111561413857600080fd5b61414488838901613fc2565b9550602087013591508082111561415a57600080fd5b61416688838901614031565b9450604087013591508082111561417c57600080fd5b506141898782880161408c565b949793965093946060013593505050565b600080600080600060a086880312156141b257600080fd5b853594506141c260208701613ce1565b93506141d060408701613ce1565b94979396509394606081013594506080013592915050565b634e487b7160e01b600052602160045260246000fd5b6020810160088310614212576142126141e8565b91905290565b6000806040838503121561422b57600080fd5b82359150602083013561423d81613f1f565b809150509250929050565b6000806040838503121561425b57600080fd5b8235915061426b60208401613ce1565b90509250929050565b60008060008060006080868803121561428c57600080fd5b8535945061429c60208701613ce1565b935060408601356001600160401b03808211156142b857600080fd5b6142c489838a01613cf2565b909550935060608801359150808211156142dd57600080fd5b506142ea88828901613da7565b9150509295509295909350565b6000806000806060858703121561430d57600080fd5b8435935061431d60208601613ce1565b925060408501356001600160401b0381111561433857600080fd5b61434487828801613cf2565b95989497509550505050565b6000806000806080858703121561436657600080fd5b84356001600160401b038082111561437d57600080fd5b61438988838901613fc2565b9550602087013591508082111561439f57600080fd5b6143ab88838901614031565b945060408701359150808211156143c157600080fd5b6143cd8883890161408c565b935060608701359150808211156143e357600080fd5b50613f9387828801613da7565b600081518084526020808501945080840160005b8381101561442057815187529582019590820190600101614404565b509495945050505050565b60ff60f81b8816815260e06020820152600061444a60e0830189613ee0565b828103604084015261445c8189613ee0565b606084018890526001600160a01b038716608085015260a0840186905283810360c08501529050610d2281856143f0565b6000806000606084860312156144a257600080fd5b83356144ad81613f1f565b92506020840135915060408401356001600160401b038111156144cf57600080fd5b6144db86828701613da7565b9150509250925092565b6000602082840312156144f757600080fd5b81356116fd81613f1f565b600080600080600060a0868803121561451a57600080fd5b85356001600160401b038082111561453157600080fd5b61453d89838a01613fc2565b9650602088013591508082111561455357600080fd5b61455f89838a01614031565b9550604088013591508082111561457557600080fd5b61458189838a0161408c565b9450606088013591508082111561459757600080fd5b506145a488828901613da7565b9250506080860135600581106145b957600080fd5b809150509295509295909350565b600080600080600060a086880312156145df57600080fd5b85356145ea81613f1f565b945060208601356145fa81613f1f565b935060408601356001600160401b038082111561461657600080fd5b61462289838a01614031565b9450606088013591508082111561463857600080fd5b61464489838a01614031565b935060808801359150808211156142dd57600080fd5b6000806000806060858703121561467057600080fd5b843561467b81613f1f565b93506020850135925060408501356001600160401b0381111561433857600080fd5b600080604083850312156146b057600080fd5b82356146bb81613f1f565b946020939093013593505050565b600080600080600060a086880312156146e157600080fd5b85356146ec81613f1f565b945060208601356146fc81613f1f565b9350604086013592506060860135915060808601356001600160401b0381111561472557600080fd5b6142ea88828901613da7565b8183823760009101908152919050565b60208082526018908201527f476f7665726e6f723a206f6e6c79476f7665726e616e63650000000000000000604082015260600190565b600181811c9082168061478c57607f821691505b6020821081036147ac57634e487b7160e01b600052602260045260246000fd5b50919050565b60208082526021908201527f476f7665726e6f723a2070726f706f73616c206e6f74207375636365737366756040820152601b60fa1b606082015260800190565b60006020828403121561480557600080fd5b5051919050565b600081518084526020808501945080840160005b838110156144205781516001600160a01b031687529582019590820190600101614820565b600082825180855260208086019550808260051b84010181860160005b8481101561489057601f1986840301895261487e838351613ee0565b98840198925090830190600101614862565b5090979650505050505050565b60a0815260006148b060a083018861480c565b82810360208401526148c281886143f0565b905082810360408401526148d68187614845565b60608401959095525050608001529392505050565b60c0815260006148fe60c083018961480c565b828103602084015261491081896143f0565b905082810360408401526149248188614845565b60608401969096525050608081019290925260a0909101529392505050565b634e487b7160e01b600052601160045260246000fd5b80820180821115610c2757610c27614943565b60006020828403121561497e57600080fd5b81516001600160401b0381111561499457600080fd5b8201601f810184136149a557600080fd5b80516149b3613dc682613d80565b8181528560208385010111156149c857600080fd5b6115c3826020830160208601613ebc565b81810381811115610c2757610c27614943565b634e487b7160e01b600052603260045260246000fd5b600060208284031215614a1457600080fd5b815165ffffffffffff811681146116fd57600080fd5b6040810160058410614a3e57614a3e6141e8565b9281526020015290565b608081526000614a5b608083018761480c565b8281036020840152614a6d81876143f0565b90508281036040840152614a818186614845565b91505082606083015295945050505050565b84815260ff841660208201528260408201526080606082015260006112e46080830184613ee0565b85815260ff8516602082015283604082015260a060608201526000614ae360a0830185613ee0565b8281036080840152614af58185613ee0565b98975050505050505050565b600060018201614b1357614b13614943565b5060010190565b600060208284031215614b2c57600080fd5b815180151581146116fd57600080fd5b60208082526021908201527f476f7665726e6f723a20696e76616c69642070726f706f73616c206c656e67746040820152600d60fb1b606082015260800190565b60006101208b8352602060018060a01b038c1681850152816040850152614ba68285018c61480c565b91508382036060850152614bba828b6143f0565b915083820360808501528189518084528284019150828160051b850101838c0160005b83811015614c0b57601f19878403018552614bf9838351613ee0565b94860194925090850190600101614bdd565b505086810360a0880152614c1f818c614845565b9450505050508560c08401528460e0840152828103610100840152614c448185613ee0565b9c9b505050505050505050505050565b8082028115828204841417610c2757610c27614943565b634e487b7160e01b600052601260045260246000fd5b600082614c9e57634e487b7160e01b600052601260045260246000fd5b50049056fe476f7665726e6f723a2072656c617920726576657274656420776974686f7574206d657373616765a26469706673582212203b73f88c6128512253ebcd1d6db64b61922431265baa79a9efc8054c369f796464736f6c63430008140033",
  "linkReferences": {},
  "deployedLinkReferences": {}
}