{
  "_format": "hh-sol-artifact-1",
  "contractName": "RevenueDistributor",
  "sourceName": "contracts/RevenueDistributor.sol",
  "abi": [
    {
      "inputs": [
        {
          "internalType": "address",
          "name": "initialOwner",
          "type": "address"
        },
        {
          "internalType": "address",
          "name": "_fractionalizer",
          "type": "address"
        }
      ],
      "stateMutability": "nonpayable",
      "type": "constructor"
    },
    {
      "anonymous": false,
      "inputs": [
        {
          "indexed": true,
          "internalType": "address",
          "name": "previousOwner",
          "type": "address"
        },
        {
          "indexed": true,
          "internalType": "address",
          "name": "newOwner",
          "type": "address"
        }
      ],
      "name": "OwnershipTransferred",
      "type": "event"
    },
    {
      "anonymous": false,
      "inputs": [
        {
          "indexed": false,
          "internalType": "address",
          "name": "account",
          "type": "address"
        }
      ],
      "name": "Paused",
      "type": "event"
    },
    {
      "anonymous": false,
      "inputs": [
        {
          "indexed": true,
          "internalType": "address",
          "name": "user",
          "type": "address"
        },
        {
          "indexed": true,
          "internalType": "address",
          "name": "royaltyToken",
          "type": "address"
        },
        {
          "indexed": true,
          "internalType": "uint256",
          "name": "distributionId",
          "type": "uint256"
        },
        {
          "indexed": false,
          "internalType": "uint256",
          "name": "amount",
          "type": "uint256"
        },
        {
          "indexed": false,
          "internalType": "uint256",
          "name": "timestamp",
          "type": "uint256"
        }
      ],
      "name": "RevenueClaimed",
      "type": "event"
    },
    {
      "anonymous": false,
      "inputs": [
        {
          "indexed": true,
          "internalType": "address",
          "name": "royaltyToken",
          "type": "address"
        },
        {
          "indexed": true,
          "internalType": "uint256",
          "name": "distributionId",
          "type": "uint256"
        },
        {
          "indexed": true,
          "internalType": "address",
          "name": "paymentToken",
          "type": "address"
        },
        {
          "indexed": false,
          "internalType": "uint256",
          "name": "totalAmount",
          "type": "uint256"
        },
        {
          "indexed": false,
          "internalType": "uint256",
          "name": "totalSupply",
          "type": "uint256"
        },
        {
          "indexed": false,
          "internalType": "uint256",
          "name": "timestamp",
          "type": "uint256"
        }
      ],
      "name": "RevenueDistributed",
      "type": "event"
    },
    {
      "anonymous": false,
      "inputs": [
        {
          "indexed": false,
          "internalType": "address",
          "name": "account",
          "type": "address"
        }
      ],
      "name": "Unpaused",
      "type": "event"
    },
    {
      "inputs": [
        {
          "internalType": "address",
          "name": "royaltyToken",
          "type": "address"
        },
        {
          "internalType": "uint256[]",
          "name": "distributionIds",
          "type": "uint256[]"
        }
      ],
      "name": "claimMultiple",
      "outputs": [],
      "stateMutability": "nonpayable",
      "type": "function"
    },
    {
      "inputs": [
        {
          "internalType": "address",
          "name": "royaltyToken",
          "type": "address"
        },
        {
          "internalType": "uint256",
          "name": "distributionId",
          "type": "uint256"
        }
      ],
      "name": "claimRevenue",
      "outputs": [],
      "stateMutability": "nonpayable",
      "type": "function"
    },
    {
      "inputs": [
        {
          "internalType": "address",
          "name": "",
          "type": "address"
        },
        {
          "internalType": "address",
          "name": "",
          "type": "address"
        },
        {
          "internalType": "uint256",
          "name": "",
          "type": "uint256"
        }
      ],
      "name": "claimed",
      "outputs": [
        {
          "internalType": "bool",
          "name": "",
          "type": "bool"
        }
      ],
      "stateMutability": "view",
      "type": "function"
    },
    {
      "inputs": [
        {
          "internalType": "address",
          "name": "royaltyToken",
          "type": "address"
        },
        {
          "internalType": "address",
          "name": "paymentToken",
          "type": "address"
        },
        {
          "internalType": "uint256",
          "name": "amount",
          "type": "uint256"
        }
      ],
      "name": "distributeRevenue",
      "outputs": [
        {
          "internalType": "uint256",
          "name": "distributionId",
          "type": "uint256"
        }
      ],
      "stateMutability": "payable",
      "type": "function"
    },
    {
      "inputs": [
        {
          "internalType": "address",
          "name": "",
          "type": "address"
        },
        {
          "internalType": "uint256",
          "name": "",
          "type": "uint256"
        }
      ],
      "name": "distributions",
      "outputs": [
        {
          "internalType": "uint256",
          "name": "distributionId",
          "type": "uint256"
        },
        {
          "internalType": "address",
          "name": "royaltyToken",
          "type": "address"
        },
        {
          "internalType": "address",
          "name": "paymentToken",
          "type": "address"
        },
        {
          "internalType": "uint256",
          "name": "totalAmount",
          "type": "uint256"
        },
        {
          "internalType": "uint256",
          "name": "totalSupply",
          "type": "uint256"
        },
        {
          "internalType": "uint256",
          "name": "snapshotId",
          "type": "uint256"
        },
        {
          "internalType": "uint256",
          "name": "distributedAt",
          "type": "uint256"
        },
        {
          "internalType": "bool",
          "name": "isActive",
          "type": "bool"
        }
      ],
      "stateMutability": "view",
      "type": "function"
    },
    {
      "inputs": [],
      "name": "fractionalizer",
      "outputs": [
        {
          "internalType": "contract Fractionalizer",
          "name": "",
          "type": "address"
        }
      ],
      "stateMutability": "view",
      "type": "function"
    },
    {
      "inputs": [
        {
          "internalType": "address",
          "name": "user",
          "type": "address"
        },
        {
          "internalType": "address",
          "name": "royaltyToken",
          "type": "address"
        },
        {
          "internalType": "uint256",
          "name": "distributionId",
          "type": "uint256"
        }
      ],
      "name": "getClaimableAmount",
      "outputs": [
        {
          "internalType": "uint256",
          "name": "claimableAmount",
          "type": "uint256"
        }
      ],
      "stateMutability": "view",
      "type": "function"
    },
    {
      "inputs": [
        {
          "internalType": "address",
          "name": "",
          "type": "address"
        }
      ],
      "name": "nextDistributionId",
      "outputs": [
        {
          "internalType": "uint256",
          "name": "",
          "type": "uint256"
        }
      ],
      "stateMutability": "view",
      "type": "function"
    },
    {
      "inputs": [],
      "name": "owner",
      "outputs": [
        {
          "internalType": "address",
          "name": "",
          "type": "address"
        }
      ],
      "stateMutability": "view",
      "type": "function"
    },
    {
      "inputs": [],
      "name": "pause",
      "outputs": [],
      "stateMutability": "nonpayable",
      "type": "function"
    },
    {
      "inputs": [],
      "name": "paused",
      "outputs": [
        {
          "internalType": "bool",
          "name": "",
          "type": "bool"
        }
      ],
      "stateMutability": "view",
      "type": "function"
    },
    {
      "inputs": [],
      "name": "renounceOwnership",
      "outputs": [],
      "stateMutability": "nonpayable",
      "type": "function"
    },
    {
      "inputs": [
        {
          "internalType": "address",
          "name": "newOwner",
          "type": "address"
        }
      ],
      "name": "transferOwnership",
      "outputs": [],
      "stateMutability": "nonpayable",
      "type": "function"
    },
    {
      "inputs": [],
      "name": "unpause",
      "outputs": [],
      "stateMutability": "nonpayable",
      "type": "function"
    }
  ],
  "bytecode": "0x60806040523480156200001157600080fd5b5060405162001e5338038062001e53833981016040819052620000349162000160565b6200003f33620000f3565b600180556002805460ff191690556200005882620000f3565b6001600160a01b038116620000c65760405162461bcd60e51b815260206004820152602a60248201527f526576656e75654469737472696275746f723a20496e76616c696420667261636044820152693a34b7b730b634bd32b960b11b606482015260840160405180910390fd5b600280546001600160a01b0390921661010002610100600160a81b03199092169190911790555062000198565b600080546001600160a01b038381166001600160a01b0319831681178455604051919092169283917f8be0079c531659141344cd1fd0a4f28419497f9722a3daafe3b4186f6b6457e09190a35050565b80516001600160a01b03811681146200015b57600080fd5b919050565b600080604083850312156200017457600080fd5b6200017f8362000143565b91506200018f6020840162000143565b90509250929050565b611cab80620001a86000396000f3fe6080604052600436106100dd5760003560e01c80637ef2d9851161007f578063cd4517eb11610059578063cd4517eb146102cc578063d03b0e49146102ec578063f2fde38b14610311578063f40084b71461033157600080fd5b80637ef2d985146102655780638456cb59146102855780638da5cb5b1461029a57600080fd5b80633f4ba83a116100bb5780633f4ba83a146102025780634fa0b483146102195780635c975abb1461022c578063715018a61461025057600080fd5b80630a279e15146100e25780632d9b4b25146101155780633c553a6b146101d5575b600080fd5b3480156100ee57600080fd5b506101026100fd36600461195b565b610372565b6040519081526020015b60405180910390f35b34801561012157600080fd5b5061018c610130366004611997565b600360208181526000938452604080852090915291835291208054600182015460028301549383015460048401546005850154600686015460079096015494966001600160a01b03948516969416949293919290919060ff1688565b604080519889526001600160a01b0397881660208a015295909616948701949094526060860192909252608085015260a084015260c0830152151560e08201526101000161010c565b3480156101e157600080fd5b506101026101f03660046119c1565b60046020526000908152604090205481565b34801561020e57600080fd5b50610217610506565b005b61010261022736600461195b565b610518565b34801561023857600080fd5b5060025460ff165b604051901515815260200161010c565b34801561025c57600080fd5b50610217610aaa565b34801561027157600080fd5b506102176102803660046119dc565b610abc565b34801561029157600080fd5b5061021761102d565b3480156102a657600080fd5b506000546001600160a01b03165b6040516001600160a01b03909116815260200161010c565b3480156102d857600080fd5b506102176102e7366004611997565b61103d565b3480156102f857600080fd5b506002546102b49061010090046001600160a01b031681565b34801561031d57600080fd5b5061021761032c3660046119c1565b61139f565b34801561033d57600080fd5b5061024061034c36600461195b565b600560209081526000938452604080852082529284528284209052825290205460ff1681565b6001600160a01b038084166000908152600560209081526040808320938616835292815282822084835290529081205460ff16156103b2575060006104ff565b6001600160a01b038084166000908152600360208181526040808420878552825292839020835161010081018552815481526001820154861692810192909252600281015490941692810192909252820154606082015260048201546080820152600582015460a0820152600682015460c082015260079091015460ff16151560e082018190526104475760009150506104ff565b60a081015160405163277166bf60e11b81526001600160a01b0387811660048301526024820192909252859160009190831690634ee2cd7e90604401602060405180830381865afa1580156104a0573d6000803e3d6000fd5b505050506040513d601f19601f820116820180604052508101906104c49190611a62565b9050806000036104da57600093505050506104ff565b82608001518184606001516104ef9190611a91565b6104f99190611aae565b93505050505b9392505050565b61050e611418565b610516611472565b565b60006105226114c4565b61052a61151d565b6001600160a01b03841661058f5760405162461bcd60e51b815260206004820152602160248201527f526576656e75654469737472696275746f723a20496e76616c696420746f6b656044820152603760f91b60648201526084015b60405180910390fd5b600082116105ea5760405162461bcd60e51b815260206004820152602260248201527f526576656e75654469737472696275746f723a20496e76616c696420616d6f756044820152611b9d60f21b6064820152608401610586565b6002546040516352003f2760e01b81526001600160a01b038681166004830152600092610100900416906352003f2790602401602060405180830381865afa15801561063a573d6000803e3d6000fd5b505050506040513d601f19601f8201168201806040525081019061065e9190611a62565b9050806000036106c65760405162461bcd60e51b815260206004820152602d60248201527f526576656e75654469737472696275746f723a204e6f7420612076616c69642060448201526c3937bcb0b63a3c903a37b5b2b760991b6064820152608401610586565b60008590506000816001600160a01b0316639711715a6040518163ffffffff1660e01b81526004016020604051808303816000875af115801561070d573d6000803e3d6000fd5b505050506040513d601f19601f820116820180604052508101906107319190611a62565b604051630981b24d60e41b8152600481018290529091506000906001600160a01b0384169063981b24d090602401602060405180830381865afa15801561077c573d6000803e3d6000fd5b505050506040513d601f19601f820116820180604052508101906107a09190611a62565b9050600081116107fe5760405162461bcd60e51b815260206004820152602360248201527f526576656e75654469737472696275746f723a204e6f20746f6b656e20737570604482015262706c7960e81b6064820152608401610586565b6001600160a01b03871661086c578534146108675760405162461bcd60e51b815260206004820152602360248201527f526576656e75654469737472696275746f723a20416d6f756e74206d69736d616044820152620e8c6d60eb1b6064820152608401610586565b6108de565b34156108c65760405162461bcd60e51b8152602060048201526024808201527f526576656e75654469737472696275746f723a20557365207061796d656e745460448201526337b5b2b760e11b6064820152608401610586565b866108dc6001600160a01b03821633308a611563565b505b6001600160a01b038816600090815260046020526040812080549161090283611ad0565b919050559450604051806101000160405280868152602001896001600160a01b03168152602001886001600160a01b0316815260200187815260200182815260200183815260200142815260200160011515815250600360008a6001600160a01b03166001600160a01b0316815260200190815260200160002060008781526020019081526020016000206000820151816000015560208201518160010160006101000a8154816001600160a01b0302191690836001600160a01b0316021790555060408201518160020160006101000a8154816001600160a01b0302191690836001600160a01b03160217905550606082015181600301556080820151816004015560a0820151816005015560c0820151816006015560e08201518160070160006101000a81548160ff021916908315150217905550905050866001600160a01b031685896001600160a01b03167fd364c3f5b6023a844ed5a2f07b23845760b4b41abc1accc6f782d9a0300b8f5b898542604051610a95939291909283526020830191909152604082015260600190565b60405180910390a4505050506104ff60018055565b610ab2611418565b61051660006115d4565b610ac46114c4565b610acc61151d565b80610b195760405162461bcd60e51b815260206004820152601f60248201527f526576656e75654469737472696275746f723a20456d707479206172726179006044820152606401610586565b6032811115610b765760405162461bcd60e51b815260206004820152602360248201527f526576656e75654469737472696275746f723a20417272617920746f6f206c6160448201526272676560e81b6064820152608401610586565b8260008080805b85811015610f27576000878783818110610b9957610b99611ae9565b90506020020135905060056000336001600160a01b03166001600160a01b0316815260200190815260200160002060008a6001600160a01b03166001600160a01b03168152602001908152602001600020600082815260200190815260200160002060009054906101000a900460ff1615610c265760405162461bcd60e51b815260040161058690611aff565b6001600160a01b03808a166000908152600360208181526040808420868552825292839020835161010081018552815481526001820154861692810192909252600281015490941692810192909252820154606082015260048201546080820152600582015460a0820152600682015460c082015260079091015460ff16151560e08201819052610cc95760405162461bcd60e51b815260040161058690611b42565b83610cde578060400151945060019350610d4e565b80604001516001600160a01b0316856001600160a01b031614610d4e5760405162461bcd60e51b815260206004820152602260248201527f526576656e75654469737472696275746f723a20546f6b656e206d69736d61746044820152610c6d60f31b6064820152608401610586565b60a081015160405163277166bf60e11b815233600482015260248101919091526000906001600160a01b03891690634ee2cd7e90604401602060405180830381865afa158015610da2573d6000803e3d6000fd5b505050506040513d601f19601f82011682018060405250810190610dc69190611a62565b905060008111610e185760405162461bcd60e51b815260206004820152601d60248201527f526576656e75654469737472696275746f723a204e6f20746f6b656e730000006044820152606401610586565b60008260800151828460600151610e2f9190611a91565b610e399190611aae565b9050610e458189611b8a565b9750600160056000336001600160a01b03166001600160a01b0316815260200190815260200160002060008e6001600160a01b03166001600160a01b03168152602001908152602001600020600086815260200190815260200160002060006101000a81548160ff021916908315150217905550838c6001600160a01b0316336001600160a01b03167feddbb87c8b6493084f7bedb6725a0fff87ee8a6974d027eb9d450f1fcf8ded728442604051610f08929190918252602082015260400190565b60405180910390a4505050508080610f1f90611ad0565b915050610b7d565b5060008311610f885760405162461bcd60e51b815260206004820152602760248201527f526576656e75654469737472696275746f723a204e6f20636c61696d61626c6560448201526608185b5bdd5b9d60ca1b6064820152608401610586565b6001600160a01b03821661100457604051600090339085908381818185875af1925050503d8060008114610fd8576040519150601f19603f3d011682016040523d82523d6000602084013e610fdd565b606091505b5050905080610ffe5760405162461bcd60e51b815260040161058690611b9d565b5061101b565b816110196001600160a01b0382163386611624565b505b5050505061102860018055565b505050565b611035611418565b610516611654565b6110456114c4565b61104d61151d565b3360009081526005602090815260408083206001600160a01b0386168452825280832084845290915290205460ff16156110995760405162461bcd60e51b815260040161058690611aff565b6001600160a01b038083166000908152600360208181526040808420868552825292839020835161010081018552815481526001820154861692810192909252600281015490941692810192909252820154606082015260048201546080820152600582015460a0820152600682015460c082015260079091015460ff16151560e0820181905261113c5760405162461bcd60e51b815260040161058690611b42565b60a081015160405163277166bf60e11b8152336004820152602481019190915283906000906001600160a01b03831690634ee2cd7e90604401602060405180830381865afa158015611192573d6000803e3d6000fd5b505050506040513d601f19601f820116820180604052508101906111b69190611a62565b9050600081116112085760405162461bcd60e51b815260206004820152601d60248201527f526576656e75654469737472696275746f723a204e6f20746f6b656e730000006044820152606401610586565b6000836080015182856060015161121f9190611a91565b6112299190611aae565b90506000811161127b5760405162461bcd60e51b815260206004820152601c60248201527f526576656e75654469737472696275746f723a204e6f207368617265000000006044820152606401610586565b3360009081526005602090815260408083206001600160a01b038a8116855290835281842089855290925291829020805460ff19166001179055908501511661132c57604051600090339083908381818185875af1925050503d8060008114611300576040519150601f19603f3d011682016040523d82523d6000602084013e611305565b606091505b50509050806113265760405162461bcd60e51b815260040161058690611b9d565b50611347565b60408401516113456001600160a01b0382163384611624565b505b6040805182815242602082015286916001600160a01b0389169133917feddbb87c8b6493084f7bedb6725a0fff87ee8a6974d027eb9d450f1fcf8ded72910160405180910390a45050505061139b60018055565b5050565b6113a7611418565b6001600160a01b03811661140c5760405162461bcd60e51b815260206004820152602660248201527f4f776e61626c653a206e6577206f776e657220697320746865207a65726f206160448201526564647265737360d01b6064820152608401610586565b611415816115d4565b50565b6000546001600160a01b031633146105165760405162461bcd60e51b815260206004820181905260248201527f4f776e61626c653a2063616c6c6572206973206e6f7420746865206f776e65726044820152606401610586565b61147a611691565b6002805460ff191690557f5db9ee0a495bf2e6ff9c91a7834c1ba4fdd244a5e8aa4e537bd38aeae4b073aa335b6040516001600160a01b03909116815260200160405180910390a1565b6002600154036115165760405162461bcd60e51b815260206004820152601f60248201527f5265656e7472616e637947756172643a207265656e7472616e742063616c6c006044820152606401610586565b6002600155565b60025460ff16156105165760405162461bcd60e51b815260206004820152601060248201526f14185d5cd8589b194e881c185d5cd95960821b6044820152606401610586565b6040516001600160a01b03808516602483015283166044820152606481018290526115ce9085906323b872dd60e01b906084015b60408051601f198184030181529190526020810180516001600160e01b03166001600160e01b0319909316929092179091526116da565b50505050565b600080546001600160a01b038381166001600160a01b0319831681178455604051919092169283917f8be0079c531659141344cd1fd0a4f28419497f9722a3daafe3b4186f6b6457e09190a35050565b6040516001600160a01b03831660248201526044810182905261102890849063a9059cbb60e01b90606401611597565b61165c61151d565b6002805460ff191660011790557f62e78cea01bee320cd4e420270b5ea74000d11b0c9f74754ebdbfc544b05a2586114a73390565b60025460ff166105165760405162461bcd60e51b815260206004820152601460248201527314185d5cd8589b194e881b9bdd081c185d5cd95960621b6044820152606401610586565b600061172f826040518060400160405280602081526020017f5361666545524332303a206c6f772d6c6576656c2063616c6c206661696c6564815250856001600160a01b03166117af9092919063ffffffff16565b90508051600014806117505750808060200190518101906117509190611be0565b6110285760405162461bcd60e51b815260206004820152602a60248201527f5361666545524332303a204552433230206f7065726174696f6e20646964206e6044820152691bdd081cdd58d8d9595960b21b6064820152608401610586565b60606117be84846000856117c6565b949350505050565b6060824710156118275760405162461bcd60e51b815260206004820152602660248201527f416464726573733a20696e73756666696369656e742062616c616e636520666f6044820152651c8818d85b1b60d21b6064820152608401610586565b600080866001600160a01b031685876040516118439190611c26565b60006040518083038185875af1925050503d8060008114611880576040519150601f19603f3d011682016040523d82523d6000602084013e611885565b606091505b5091509150611896878383876118a1565b979650505050505050565b60608315611910578251600003611909576001600160a01b0385163b6119095760405162461bcd60e51b815260206004820152601d60248201527f416464726573733a2063616c6c20746f206e6f6e2d636f6e74726163740000006044820152606401610586565b50816117be565b6117be83838151156119255781518083602001fd5b8060405162461bcd60e51b81526004016105869190611c42565b80356001600160a01b038116811461195657600080fd5b919050565b60008060006060848603121561197057600080fd5b6119798461193f565b92506119876020850161193f565b9150604084013590509250925092565b600080604083850312156119aa57600080fd5b6119b38361193f565b946020939093013593505050565b6000602082840312156119d357600080fd5b6104ff8261193f565b6000806000604084860312156119f157600080fd5b6119fa8461193f565b9250602084013567ffffffffffffffff80821115611a1757600080fd5b818601915086601f830112611a2b57600080fd5b813581811115611a3a57600080fd5b8760208260051b8501011115611a4f57600080fd5b6020830194508093505050509250925092565b600060208284031215611a7457600080fd5b5051919050565b634e487b7160e01b600052601160045260246000fd5b8082028115828204841417611aa857611aa8611a7b565b92915050565b600082611acb57634e487b7160e01b600052601260045260246000fd5b500490565b600060018201611ae257611ae2611a7b565b5060010190565b634e487b7160e01b600052603260045260246000fd5b60208082526023908201527f526576656e75654469737472696275746f723a20416c726561647920636c61696040820152621b595960ea1b606082015260800190565b60208082526028908201527f526576656e75654469737472696275746f723a20496e76616c696420646973746040820152673934b13aba34b7b760c11b606082015260800190565b80820180821115611aa857611aa8611a7b565b60208082526023908201527f526576656e75654469737472696275746f723a205472616e73666572206661696040820152621b195960ea1b606082015260800190565b600060208284031215611bf257600080fd5b815180151581146104ff57600080fd5b60005b83811015611c1d578181015183820152602001611c05565b50506000910152565b60008251611c38818460208701611c02565b9190910192915050565b6020815260008251806020840152611c61816040850160208701611c02565b601f01601f1916919091016040019291505056fea26469706673582212207a8d35eb71b2af48651717cd812d9d44032ccbc5acd7896361adb031b9e7261464736f6c63430008140033",
  "linkReferences": {},
  "deployedLinkReferences": {}
}