{
  "_format": "hh-sol-artifact-1",
  "contractName": "IPRegistryAdapter",
  "sourceName": "contracts/IPRegistryAdapter.sol",
  "abi": [
    {
      "inputs": [
        {
          "internalType": "address",
          "name": "initialOwner",
          "type": "address"
        }
      ],
      "stateMutability": "nonpayable",
      "type": "constructor"
    },
    {
      "anonymous": false,
      "inputs": [
        {
          "indexed": true,
          "internalType": "uint256",
          "name": "dippChainId",
          "type": "uint256"
        },
        {
          "indexed": false,
          "internalType": "string",
          "name": "cid",
          "type": "string"
        },
        {
          "indexed": false,
          "internalType": "uint256",
          "name": "timestamp",
          "type": "uint256"
        }
      ],
      "name": "ContentCIDAdded",
      "type": "event"
    },
    {
      "anonymous": false,
      "inputs": [
        {
          "indexed": true,
          "internalType": "uint256",
          "name": "dippChainId",
          "type": "uint256"
        },
        {
          "indexed": false,
          "internalType": "bool",
          "name": "enabled",
          "type": "bool"
        },
        {
          "indexed": false,
          "internalType": "uint256",
          "name": "timestamp",
          "type": "uint256"
        }
      ],
      "name": "DetectionToggled",
      "type": "event"
    },
    {
      "anonymous": false,
      "inputs": [
        {
          "indexed": true,
          "internalType": "address",
          "name": "previousOwner",
          "type": "address"
        },
        {
          "indexed": true,
          "internalType": "address",
          "name": "newOwner",
          "type": "address"
        }
      ],
      "name": "OwnershipTransferred",
      "type": "event"
    },
    {
      "anonymous": false,
      "inputs": [
        {
          "indexed": false,
          "internalType": "address",
          "name": "account",
          "type": "address"
        }
      ],
      "name": "Paused",
      "type": "event"
    },
    {
      "anonymous": false,
      "inputs": [
        {
          "indexed": true,
          "internalType": "uint256",
          "name": "dippChainId",
          "type": "uint256"
        },
        {
          "indexed": false,
          "internalType": "uint256",
          "name": "timestamp",
          "type": "uint256"
        }
      ],
      "name": "RecordDeactivated",
      "type": "event"
    },
    {
      "anonymous": false,
      "inputs": [
        {
          "indexed": true,
          "internalType": "uint256",
          "name": "dippChainId",
          "type": "uint256"
        },
        {
          "indexed": true,
          "internalType": "address",
          "name": "storyNftContract",
          "type": "address"
        },
        {
          "indexed": true,
          "internalType": "uint256",
          "name": "storyTokenId",
          "type": "uint256"
        },
        {
          "indexed": false,
          "internalType": "address",
          "name": "registeredBy",
          "type": "address"
        },
        {
          "indexed": false,
          "internalType": "uint256",
          "name": "timestamp",
          "type": "uint256"
        }
      ],
      "name": "StoryIPRegistered",
      "type": "event"
    },
    {
      "anonymous": false,
      "inputs": [
        {
          "indexed": false,
          "internalType": "address",
          "name": "account",
          "type": "address"
        }
      ],
      "name": "Unpaused",
      "type": "event"
    },
    {
      "anonymous": false,
      "inputs": [
        {
          "indexed": true,
          "internalType": "uint256",
          "name": "dippChainId",
          "type": "uint256"
        },
        {
          "indexed": false,
          "internalType": "string",
          "name": "newWatermarkHash",
          "type": "string"
        },
        {
          "indexed": false,
          "internalType": "uint256",
          "name": "timestamp",
          "type": "uint256"
        }
      ],
      "name": "WatermarkUpdated",
      "type": "event"
    },
    {
      "inputs": [
        {
          "internalType": "uint256",
          "name": "dippChainId",
          "type": "uint256"
        },
        {
          "internalType": "string",
          "name": "cid",
          "type": "string"
        }
      ],
      "name": "addContentCID",
      "outputs": [],
      "stateMutability": "nonpayable",
      "type": "function"
    },
    {
      "inputs": [
        {
          "internalType": "uint256",
          "name": "dippChainId",
          "type": "uint256"
        }
      ],
      "name": "deactivateRecord",
      "outputs": [],
      "stateMutability": "nonpayable",
      "type": "function"
    },
    {
      "inputs": [
        {
          "internalType": "uint256",
          "name": "",
          "type": "uint256"
        }
      ],
      "name": "dippChainRecords",
      "outputs": [
        {
          "internalType": "address",
          "name": "storyNftContract",
          "type": "address"
        },
        {
          "internalType": "uint256",
          "name": "storyTokenId",
          "type": "uint256"
        },
        {
          "internalType": "string",
          "name": "watermarkHash",
          "type": "string"
        },
        {
          "internalType": "bool",
          "name": "detectionEnabled",
          "type": "bool"
        },
        {
          "internalType": "uint256",
          "name": "registeredAt",
          "type": "uint256"
        },
        {
          "internalType": "address",
          "name": "registeredBy",
          "type": "address"
        },
        {
          "internalType": "bool",
          "name": "isActive",
          "type": "bool"
        }
      ],
      "stateMutability": "view",
      "type": "function"
    },
    {
      "inputs": [
        {
          "internalType": "uint256",
          "name": "",
          "type": "uint256"
        }
      ],
      "name": "exists",
      "outputs": [
        {
          "internalType": "bool",
          "name": "",
          "type": "bool"
        }
      ],
      "stateMutability": "view",
      "type": "function"
    },
    {
      "inputs": [
        {
          "internalType": "address",
          "name": "storyNftContract",
          "type": "address"
        },
        {
          "internalType": "uint256",
          "name": "tokenId",
          "type": "uint256"
        }
      ],
      "name": "getDippChainId",
      "outputs": [
        {
          "internalType": "uint256",
          "name": "dippChainId",
          "type": "uint256"
        }
      ],
      "stateMutability": "view",
      "type": "function"
    },
    {
      "inputs": [
        {
          "internalType": "uint256",
          "name": "dippChainId",
          "type": "uint256"
        }
      ],
      "name": "getMetadata",
      "outputs": [
        {
          "components": [
            {
              "internalType": "address",
              "name": "storyNftContract",
              "type": "address"
            },
            {
              "internalType": "uint256",
              "name": "storyTokenId",
              "type": "uint256"
            },
            {
              "internalType": "string",
              "name": "watermarkHash",
              "type": "string"
            },
            {
              "internalType": "string[]",
              "name": "contentCids",
              "type": "string[]"
            },
            {
              "internalType": "bool",
              "name": "detectionEnabled",
              "type": "bool"
            },
            {
              "internalType": "uint256",
              "name": "registeredAt",
              "type": "uint256"
            },
            {
              "internalType": "address",
              "name": "registeredBy",
              "type": "address"
            },
            {
              "internalType": "bool",
              "name": "isActive",
              "type": "bool"
            }
          ],
          "internalType": "struct IPRegistryAdapter.DippChainMetadata",
          "name": "metadata",
          "type": "tuple"
        }
      ],
      "stateMutability": "view",
      "type": "function"
    },
    {
      "inputs": [
        {
          "internalType": "uint256",
          "name": "dippChainId",
          "type": "uint256"
        }
      ],
      "name": "getStoryReference",
      "outputs": [
        {
          "internalType": "address",
          "name": "storyNftContract",
          "type": "address"
        },
        {
          "internalType": "uint256",
          "name": "storyTokenId",
          "type": "uint256"
        }
      ],
      "stateMutability": "view",
      "type": "function"
    },
    {
      "inputs": [
        {
          "internalType": "address",
          "name": "storyNftContract",
          "type": "address"
        },
        {
          "internalType": "uint256",
          "name": "tokenId",
          "type": "uint256"
        }
      ],
      "name": "isRegistered",
      "outputs": [
        {
          "internalType": "bool",
          "name": "isRegistered",
          "type": "bool"
        }
      ],
      "stateMutability": "view",
      "type": "function"
    },
    {
      "inputs": [],
      "name": "owner",
      "outputs": [
        {
          "internalType": "address",
          "name": "",
          "type": "address"
        }
      ],
      "stateMutability": "view",
      "type": "function"
    },
    {
      "inputs": [],
      "name": "pause",
      "outputs": [],
      "stateMutability": "nonpayable",
      "type": "function"
    },
    {
      "inputs": [],
      "name": "paused",
      "outputs": [
        {
          "internalType": "bool",
          "name": "",
          "type": "bool"
        }
      ],
      "stateMutability": "view",
      "type": "function"
    },
    {
      "inputs": [
        {
          "internalType": "address",
          "name": "storyNftContract",
          "type": "address"
        },
        {
          "internalType": "uint256",
          "name": "tokenId",
          "type": "uint256"
        },
        {
          "internalType": "string",
          "name": "watermarkHash",
          "type": "string"
        },
        {
          "internalType": "string[]",
          "name": "contentCids",
          "type": "string[]"
        }
      ],
      "name": "registerStoryIP",
      "outputs": [
        {
          "internalType": "uint256",
          "name": "",
          "type": "uint256"
        }
      ],
      "stateMutability": "nonpayable",
      "type": "function"
    },
    {
      "inputs": [],
      "name": "renounceOwnership",
      "outputs": [],
      "stateMutability": "nonpayable",
      "type": "function"
    },
    {
      "inputs": [
        {
          "internalType": "uint256",
          "name": "dippChainId",
          "type": "uint256"
        },
        {
          "internalType": "bool",
          "name": "enabled",
          "type": "bool"
        }
      ],
      "name": "setDetectionEnabled",
      "outputs": [],
      "stateMutability": "nonpayable",
      "type": "function"
    },
    {
      "inputs": [
        {
          "internalType": "address",
          "name": "",
          "type": "address"
        },
        {
          "internalType": "uint256",
          "name": "",
          "type": "uint256"
        }
      ],
      "name": "storyToDippChain",
      "outputs": [
        {
          "internalType": "uint256",
          "name": "",
          "type": "uint256"
        }
      ],
      "stateMutability": "view",
      "type": "function"
    },
    {
      "inputs": [],
      "name": "totalRegistered",
      "outputs": [
        {
          "internalType": "uint256",
          "name": "count",
          "type": "uint256"
        }
      ],
      "stateMutability": "view",
      "type": "function"
    },
    {
      "inputs": [
        {
          "internalType": "address",
          "name": "newOwner",
          "type": "address"
        }
      ],
      "name": "transferOwnership",
      "outputs": [],
      "stateMutability": "nonpayable",
      "type": "function"
    },
    {
      "inputs": [],
      "name": "unpause",
      "outputs": [],
      "stateMutability": "nonpayable",
      "type": "function"
    },
    {
      "inputs": [
        {
          "internalType": "uint256",
          "name": "dippChainId",
          "type": "uint256"
        },
        {
          "internalType": "string",
          "name": "newWatermarkHash",
          "type": "string"
        }
      ],
      "name": "updateWatermark",
      "outputs": [],
      "stateMutability": "nonpayable",
      "type": "function"
    }
  ],
  "bytecode": "0x60806040523480156200001157600080fd5b5060405162002ae938038062002ae98339810160408190526200003491620000b4565b6200003f3362000064565b600180556002805460ff19169055620000588162000064565b506001600355620000e6565b600080546001600160a01b038381166001600160a01b0319831681178455604051919092169283917f8be0079c531659141344cd1fd0a4f28419497f9722a3daafe3b4186f6b6457e09190a35050565b600060208284031215620000c757600080fd5b81516001600160a01b0381168114620000df57600080fd5b9392505050565b6129f380620000f66000396000f3fe608060405234801561001057600080fd5b50600436106101215760003560e01c806371abc906116100ad57806393f9cfde1161007157806393f9cfde14610283578063a574cea414610296578063a8f1602c146102b6578063db27f36c146102c9578063f2fde38b146102dc57600080fd5b806371abc9061461021a5780637d7a0a131461022d5780638456cb59146102585780638da5cb5b14610260578063927416c01461027b57600080fd5b806358359766116100f4578063583597661461018e5780635c925940146101c05780635c975abb146101e15780636f5cb657146101ec578063715018a61461021257600080fd5b806319c1833f146101265780632960d3341461013b5780633f4ba83a1461014e5780634f558e7914610156575b600080fd5b6101396101343660046122e4565b6102ef565b005b6101396101493660046123b4565b610733565b610139610bc7565b6101796101643660046122e4565b60066020526000908152604090205460ff1681565b60405190151581526020015b60405180910390f35b6101a161019c3660046122e4565b610bd9565b604080516001600160a01b039093168352602083019190915201610185565b6101d36101ce366004612410565b610e29565b604051908152602001610185565b60025460ff16610179565b6101ff6101fa3660046122e4565b610e54565b6040516101859796959493929190612482565b610139610f34565b6101396102283660046124e2565b610f46565b6101d361023b366004612410565b600560209081526000928352604080842090915290825290205481565b61013961137d565b6000546040516001600160a01b039091168152602001610185565b6101d361138d565b6101396102913660046123b4565b6113a3565b6102a96102a43660046122e4565b61181e565b6040516101859190612567565b6101796102c4366004612410565b611ac4565b6101d36102d7366004612611565b611b31565b6101396102ea366004612715565b611f8d565b600081815260046020908152604080832081516101008101835281546001600160a01b03168152600182015493810193909352600281018054869594938401919061033990612739565b80601f016020809104026020016040519081016040528092919081815260200182805461036590612739565b80156103b25780601f10610387576101008083540402835291602001916103b2565b820191906000526020600020905b81548152906001019060200180831161039557829003601f168201915b5050505050815260200160038201805480602002602001604051908101604052809291908181526020016000905b8282101561048c5783829060005260206000200180546103ff90612739565b80601f016020809104026020016040519081016040528092919081815260200182805461042b90612739565b80156104785780601f1061044d57610100808354040283529160200191610478565b820191906000526020600020905b81548152906001019060200180831161045b57829003601f168201915b5050505050815260200190600101906103e0565b50505090825250600482015460ff908116151560208084019190915260058401546040808501919091526006948501546001600160a01b0381166060860152600160a01b9004831615156080909401939093526000878152939052912054919250166105135760405162461bcd60e51b815260040161050a9061276d565b60405180910390fd5b8060e001516105345760405162461bcd60e51b815260040161050a906127a2565b805160208201516040516331a9108f60e11b81526000916001600160a01b03841691636352211e9161056c9160040190815260200190565b602060405180830381865afa158015610589573d6000803e3d6000fd5b505050506040513d601f19601f820116820180604052508101906105ad91906127d9565b90506001600160a01b0381163314806106425750602083015160405163020604bf60e21b815233916001600160a01b0385169163081812fc916105f69160040190815260200190565b602060405180830381865afa158015610613573d6000803e3d6000fd5b505050506040513d601f19601f8201168201806040525081019061063791906127d9565b6001600160a01b0316145b806106b8575060405163e985e9c560e01b81526001600160a01b03828116600483015233602483015283169063e985e9c590604401602060405180830381865afa158015610694573d6000803e3d6000fd5b505050506040513d601f19601f820116820180604052508101906106b891906127f6565b6106d45760405162461bcd60e51b815260040161050a90612813565b60008581526004602052604090819020600601805460ff60a01b191690555185907f5afb45aa2d38ed48f6353969b5ae81293be9a5e0958b159fdae4974992eeaf86906107249042815260200190565b60405180910390a25050505050565b600082815260046020908152604080832081516101008101835281546001600160a01b03168152600182015493810193909352600281018054879594938401919061077d90612739565b80601f01602080910402602001604051908101604052809291908181526020018280546107a990612739565b80156107f65780601f106107cb576101008083540402835291602001916107f6565b820191906000526020600020905b8154815290600101906020018083116107d957829003601f168201915b5050505050815260200160038201805480602002602001604051908101604052809291908181526020016000905b828210156108d057838290600052602060002001805461084390612739565b80601f016020809104026020016040519081016040528092919081815260200182805461086f90612739565b80156108bc5780601f10610891576101008083540402835291602001916108bc565b820191906000526020600020905b81548152906001019060200180831161089f57829003601f168201915b505050505081526020019060010190610824565b50505090825250600482015460ff908116151560208084019190915260058401546040808501919091526006948501546001600160a01b0381166060860152600160a01b90048316151560809094019390935260008781529390529120549192501661094e5760405162461bcd60e51b815260040161050a9061276d565b8060e0015161096f5760405162461bcd60e51b815260040161050a906127a2565b805160208201516040516331a9108f60e11b81526000916001600160a01b03841691636352211e916109a79160040190815260200190565b602060405180830381865afa1580156109c4573d6000803e3d6000fd5b505050506040513d601f19601f820116820180604052508101906109e891906127d9565b90506001600160a01b038116331480610a7d5750602083015160405163020604bf60e21b815233916001600160a01b0385169163081812fc91610a319160040190815260200190565b602060405180830381865afa158015610a4e573d6000803e3d6000fd5b505050506040513d601f19601f82011682018060405250810190610a7291906127d9565b6001600160a01b0316145b80610af3575060405163e985e9c560e01b81526001600160a01b03828116600483015233602483015283169063e985e9c590604401602060405180830381865afa158015610acf573d6000803e3d6000fd5b505050506040513d601f19601f82011682018060405250810190610af391906127f6565b610b0f5760405162461bcd60e51b815260040161050a90612813565b6000855111610b595760405162461bcd60e51b8152602060048201526016602482015275111a5c1c10da185a5b8e88125b9d985b1a590810d25160521b604482015260640161050a565b600086815260046020908152604082206003018054600181018255908352912001610b848682612899565b50857fdb45f58b8b3e398d58a0ccf5a0537395dfb2614c9e8ca45bc4203992916935698642604051610bb7929190612959565b60405180910390a2505050505050565b610bcf612006565b610bd7612060565b565b6000818152600660205260408120548190839060ff16610c335760405162461bcd60e51b8152602060048201526015602482015274111a5c1c10da185a5b8e88125b9d985b1a59081251605a1b604482015260640161050a565b600084815260046020908152604080832081516101008101835281546001600160a01b031681526001820154938101939093526002810180549192840191610c7a90612739565b80601f0160208091040260200160405190810160405280929190818152602001828054610ca690612739565b8015610cf35780601f10610cc857610100808354040283529160200191610cf3565b820191906000526020600020905b815481529060010190602001808311610cd657829003601f168201915b5050505050815260200160038201805480602002602001604051908101604052809291908181526020016000905b82821015610dcd578382906000526020600020018054610d4090612739565b80601f0160208091040260200160405190810160405280929190818152602001828054610d6c90612739565b8015610db95780601f10610d8e57610100808354040283529160200191610db9565b820191906000526020600020905b815481529060010190602001808311610d9c57829003601f168201915b505050505081526020019060010190610d21565b50505090825250600482015460ff9081161515602080840191909152600584015460408401526006909301546001600160a01b0381166060840152600160a01b9004161515608090910152815191015190945092505050915091565b6001600160a01b03821660009081526005602090815260408083208484529091529020545b92915050565b6004602052600090815260409020805460018201546002830180546001600160a01b03909316939192610e8690612739565b80601f0160208091040260200160405190810160405280929190818152602001828054610eb290612739565b8015610eff5780601f10610ed457610100808354040283529160200191610eff565b820191906000526020600020905b815481529060010190602001808311610ee257829003601f168201915b50505060048401546005850154600690950154939460ff918216949093506001600160a01b0381169250600160a01b90041687565b610f3c612006565b610bd760006120b2565b600082815260046020908152604080832081516101008101835281546001600160a01b031681526001820154938101939093526002810180548795949384019190610f9090612739565b80601f0160208091040260200160405190810160405280929190818152602001828054610fbc90612739565b80156110095780601f10610fde57610100808354040283529160200191611009565b820191906000526020600020905b815481529060010190602001808311610fec57829003601f168201915b5050505050815260200160038201805480602002602001604051908101604052809291908181526020016000905b828210156110e357838290600052602060002001805461105690612739565b80601f016020809104026020016040519081016040528092919081815260200182805461108290612739565b80156110cf5780601f106110a4576101008083540402835291602001916110cf565b820191906000526020600020905b8154815290600101906020018083116110b257829003601f168201915b505050505081526020019060010190611037565b50505090825250600482015460ff908116151560208084019190915260058401546040808501919091526006948501546001600160a01b0381166060860152600160a01b9004831615156080909401939093526000878152939052912054919250166111615760405162461bcd60e51b815260040161050a9061276d565b8060e001516111825760405162461bcd60e51b815260040161050a906127a2565b805160208201516040516331a9108f60e11b81526000916001600160a01b03841691636352211e916111ba9160040190815260200190565b602060405180830381865afa1580156111d7573d6000803e3d6000fd5b505050506040513d601f19601f820116820180604052508101906111fb91906127d9565b90506001600160a01b0381163314806112905750602083015160405163020604bf60e21b815233916001600160a01b0385169163081812fc916112449160040190815260200190565b602060405180830381865afa158015611261573d6000803e3d6000fd5b505050506040513d601f19601f8201168201806040525081019061128591906127d9565b6001600160a01b0316145b80611306575060405163e985e9c560e01b81526001600160a01b03828116600483015233602483015283169063e985e9c590604401602060405180830381865afa1580156112e2573d6000803e3d6000fd5b505050506040513d601f19601f8201168201806040525081019061130691906127f6565b6113225760405162461bcd60e51b815260040161050a90612813565b600086815260046020818152604092839020909101805460ff19168815159081179091558251908152429181019190915287917f8f575c9224fb5b3c49101a689fcdf38ca8937fa539d51f771c1a23a7f5fa9b8f9101610bb7565b611385612006565b610bd7612102565b6000600160035461139e9190612991565b905090565b600082815260046020908152604080832081516101008101835281546001600160a01b0316815260018201549381019390935260028101805487959493840191906113ed90612739565b80601f016020809104026020016040519081016040528092919081815260200182805461141990612739565b80156114665780601f1061143b57610100808354040283529160200191611466565b820191906000526020600020905b81548152906001019060200180831161144957829003601f168201915b5050505050815260200160038201805480602002602001604051908101604052809291908181526020016000905b828210156115405783829060005260206000200180546114b390612739565b80601f01602080910402602001604051908101604052809291908181526020018280546114df90612739565b801561152c5780601f106115015761010080835404028352916020019161152c565b820191906000526020600020905b81548152906001019060200180831161150f57829003601f168201915b505050505081526020019060010190611494565b50505090825250600482015460ff908116151560208084019190915260058401546040808501919091526006948501546001600160a01b0381166060860152600160a01b9004831615156080909401939093526000878152939052912054919250166115be5760405162461bcd60e51b815260040161050a9061276d565b8060e001516115df5760405162461bcd60e51b815260040161050a906127a2565b805160208201516040516331a9108f60e11b81526000916001600160a01b03841691636352211e916116179160040190815260200190565b602060405180830381865afa158015611634573d6000803e3d6000fd5b505050506040513d601f19601f8201168201806040525081019061165891906127d9565b90506001600160a01b0381163314806116ed5750602083015160405163020604bf60e21b815233916001600160a01b0385169163081812fc916116a19160040190815260200190565b602060405180830381865afa1580156116be573d6000803e3d6000fd5b505050506040513d601f19601f820116820180604052508101906116e291906127d9565b6001600160a01b0316145b80611763575060405163e985e9c560e01b81526001600160a01b03828116600483015233602483015283169063e985e9c590604401602060405180830381865afa15801561173f573d6000803e3d6000fd5b505050506040513d601f19601f8201168201806040525081019061176391906127f6565b61177f5760405162461bcd60e51b815260040161050a90612813565b60008551116117d05760405162461bcd60e51b815260206004820152601c60248201527f44697070436861696e3a20496e76616c69642077617465726d61726b00000000604482015260640161050a565b60008681526004602052604090206002016117eb8682612899565b50857f7ef5eda9abdf3aedf3fa12221e1c2396beb59c7cb63bfb3d7ed670cb1d44f4b28642604051610bb7929190612959565b61187c60405180610100016040528060006001600160a01b031681526020016000815260200160608152602001606081526020016000151581526020016000815260200160006001600160a01b031681526020016000151581525090565b600082815260066020526040902054829060ff166118d45760405162461bcd60e51b8152602060048201526015602482015274111a5c1c10da185a5b8e88125b9d985b1a59081251605a1b604482015260640161050a565b60008381526004602090815260409182902082516101008101845281546001600160a01b03168152600182015492810192909252600281018054929391929184019161191f90612739565b80601f016020809104026020016040519081016040528092919081815260200182805461194b90612739565b80156119985780601f1061196d57610100808354040283529160200191611998565b820191906000526020600020905b81548152906001019060200180831161197b57829003601f168201915b5050505050815260200160038201805480602002602001604051908101604052809291908181526020016000905b82821015611a725783829060005260206000200180546119e590612739565b80601f0160208091040260200160405190810160405280929190818152602001828054611a1190612739565b8015611a5e5780601f10611a3357610100808354040283529160200191611a5e565b820191906000526020600020905b815481529060010190602001808311611a4157829003601f168201915b5050505050815260200190600101906119c6565b50505090825250600482015460ff90811615156020830152600583015460408301526006909201546001600160a01b0381166060830152600160a01b9004909116151560809091015291505b50919050565b6001600160a01b03821660009081526005602090815260408083208484529091528120548015801590611b05575060008181526006602052604090205460ff165b8015611b295750600081815260046020526040902060060154600160a01b900460ff165b949350505050565b6000611b3b61213f565b611b43612198565b6001600160a01b038516611b995760405162461bcd60e51b815260206004820152601b60248201527f44697070436861696e3a20496e76616c696420636f6e74726163740000000000604482015260640161050a565b6000835111611bea5760405162461bcd60e51b815260206004820152601d60248201527f44697070436861696e3a2057617465726d61726b207265717569726564000000604482015260640161050a565b6040516331a9108f60e11b81526004810185905285906000906001600160a01b03831690636352211e90602401602060405180830381865afa158015611c34573d6000803e3d6000fd5b505050506040513d601f19601f82011682018060405250810190611c5891906127d9565b90506001600160a01b038116331480611ce2575060405163020604bf60e21b81526004810187905233906001600160a01b0384169063081812fc90602401602060405180830381865afa158015611cb3573d6000803e3d6000fd5b505050506040513d601f19601f82011682018060405250810190611cd791906127d9565b6001600160a01b0316145b80611d58575060405163e985e9c560e01b81526001600160a01b03828116600483015233602483015283169063e985e9c590604401602060405180830381865afa158015611d34573d6000803e3d6000fd5b505050506040513d601f19601f82011682018060405250810190611d5891906127f6565b611d745760405162461bcd60e51b815260040161050a90612813565b6001600160a01b038716600090815260056020908152604080832089845290915290205415611de55760405162461bcd60e51b815260206004820152601d60248201527f44697070436861696e3a20416c72656164792072656769737465726564000000604482015260640161050a565b600380549081906000611df7836129a4565b909155505060408051610100810182526001600160a01b038a8116825260208083018b81528385018b8152606085018b90526000608086018190524260a08701523360c0870152600160e08701819052888252600490945295909520845181546001600160a01b0319169416939093178355519082015591519091906002820190611e829082612899565b5060608201518051611e9e916003840191602090910190612227565b50608082015160048201805491151560ff1992831617905560a083015160058084019190915560c08401516006938401805460e0909601511515600160a01b026001600160a81b03199096166001600160a01b039283161795909517909455928b166000818152602094855260408082208d835286528082208790558682529390945292829020805490911660011790555188919083907fd0ff429bc7d917661cecbc6aba70ae9b42457032e3a0d67711fb5fcc445fdee590611f7890339042906001600160a01b03929092168252602082015260400190565b60405180910390a492505050611b2960018055565b611f95612006565b6001600160a01b038116611ffa5760405162461bcd60e51b815260206004820152602660248201527f4f776e61626c653a206e6577206f776e657220697320746865207a65726f206160448201526564647265737360d01b606482015260840161050a565b612003816120b2565b50565b6000546001600160a01b03163314610bd75760405162461bcd60e51b815260206004820181905260248201527f4f776e61626c653a2063616c6c6572206973206e6f7420746865206f776e6572604482015260640161050a565b6120686121de565b6002805460ff191690557f5db9ee0a495bf2e6ff9c91a7834c1ba4fdd244a5e8aa4e537bd38aeae4b073aa335b6040516001600160a01b03909116815260200160405180910390a1565b600080546001600160a01b038381166001600160a01b0319831681178455604051919092169283917f8be0079c531659141344cd1fd0a4f28419497f9722a3daafe3b4186f6b6457e09190a35050565b61210a612198565b6002805460ff191660011790557f62e78cea01bee320cd4e420270b5ea74000d11b0c9f74754ebdbfc544b05a2586120953390565b6002600154036121915760405162461bcd60e51b815260206004820152601f60248201527f5265656e7472616e637947756172643a207265656e7472616e742063616c6c00604482015260640161050a565b6002600155565b60025460ff1615610bd75760405162461bcd60e51b815260206004820152601060248201526f14185d5cd8589b194e881c185d5cd95960821b604482015260640161050a565b60025460ff16610bd75760405162461bcd60e51b815260206004820152601460248201527314185d5cd8589b194e881b9bdd081c185d5cd95960621b604482015260640161050a565b82805482825590600052602060002090810192821561226d579160200282015b8281111561226d578251829061225d9082612899565b5091602001919060010190612247565b5061227992915061227d565b5090565b80821115612279576000612291828261229a565b5060010161227d565b5080546122a690612739565b6000825580601f106122b6575050565b601f01602090049060005260206000209081019061200391905b8082111561227957600081556001016122d0565b6000602082840312156122f657600080fd5b5035919050565b634e487b7160e01b600052604160045260246000fd5b604051601f8201601f1916810167ffffffffffffffff8111828210171561233c5761233c6122fd565b604052919050565b600082601f83011261235557600080fd5b813567ffffffffffffffff81111561236f5761236f6122fd565b612382601f8201601f1916602001612313565b81815284602083860101111561239757600080fd5b816020850160208301376000918101602001919091529392505050565b600080604083850312156123c757600080fd5b82359150602083013567ffffffffffffffff8111156123e557600080fd5b6123f185828601612344565b9150509250929050565b6001600160a01b038116811461200357600080fd5b6000806040838503121561242357600080fd5b823561242e816123fb565b946020939093013593505050565b6000815180845260005b8181101561246257602081850181015186830182015201612446565b506000602082860101526020601f19601f83011685010191505092915050565b600060018060a01b03808a16835288602084015260e060408401526124aa60e084018961243c565b96151560608401526080830195909552509190921660a082015290151560c0909101529392505050565b801515811461200357600080fd5b600080604083850312156124f557600080fd5b823591506020830135612507816124d4565b809150509250929050565b600081518084526020808501808196508360051b8101915082860160005b8581101561255a57828403895261254884835161243c565b98850198935090840190600101612530565b5091979650505050505050565b6020815260018060a01b03825116602082015260208201516040820152600060408301516101008060608501526125a261012085018361243c565b91506060850151601f198584030160808601526125bf8382612512565b92505060808501516125d560a086018215159052565b5060a085015160c085015260c08501516125fa60e08601826001600160a01b03169052565b5060e0850151801515858301525090949350505050565b6000806000806080858703121561262757600080fd5b8435612632816123fb565b93506020858101359350604086013567ffffffffffffffff8082111561265757600080fd5b61266389838a01612344565b9450606088013591508082111561267957600080fd5b818801915088601f83011261268d57600080fd5b81358181111561269f5761269f6122fd565b8060051b6126ae858201612313565b918252838101850191858101908c8411156126c857600080fd5b86860192505b83831015612704578235858111156126e65760008081fd5b6126f48e89838a0101612344565b83525091860191908601906126ce565b999c989b5096995050505050505050565b60006020828403121561272757600080fd5b8135612732816123fb565b9392505050565b600181811c9082168061274d57607f821691505b602082108103611abe57634e487b7160e01b600052602260045260246000fd5b6020808252818101527f44697070436861696e3a205265636f726420646f6573206e6f74206578697374604082015260600190565b6020808252601f908201527f44697070436861696e3a205265636f7264206973206e6f742061637469766500604082015260600190565b6000602082840312156127eb57600080fd5b8151612732816123fb565b60006020828403121561280857600080fd5b8151612732816124d4565b60208082526019908201527f44697070436861696e3a204e6f7420617574686f72697a656400000000000000604082015260600190565b601f82111561289457600081815260208120601f850160051c810160208610156128715750805b601f850160051c820191505b818110156128905782815560010161287d565b5050505b505050565b815167ffffffffffffffff8111156128b3576128b36122fd565b6128c7816128c18454612739565b8461284a565b602080601f8311600181146128fc57600084156128e45750858301515b600019600386901b1c1916600185901b178555612890565b600085815260208120601f198616915b8281101561292b5788860151825594840194600190910190840161290c565b50858210156129495787850151600019600388901b60f8161c191681555b5050505050600190811b01905550565b60408152600061296c604083018561243c565b90508260208301529392505050565b634e487b7160e01b600052601160045260246000fd5b81810381811115610e4e57610e4e61297b565b6000600182016129b6576129b661297b565b506001019056fea264697066735822122084533de5b2c4ca6e5f33b49acaf0c5d78ef4660191f9212f8a5b6d41625f72e464736f6c63430008140033",
  "linkReferences": {},
  "deployedLinkReferences": {}
}